S027000052656E657361735F5241324D325F536D6172745F44657369676E5F44656D6F2E7372656386
S31500000000F83300202D310000712E00002931000048
S315000000102931000029310000293100002931000072
S315000000200000000000000000000000002931000070
S3150000003029310000000000002931000029310000AC
S31500000040C91B00004D1B0000551C0000891C000048
S31500000050000000009D1F0000B52000000000000009
S31500000060000000000000000000000000000000008A
S31500000070000000000000000000000000000000007A
S31500000080000000000000000000000000000000006A
S31500000090000000000000000000000000000000005A
S315000000A0000000000000000000000000000000004A
S315000000B0000000000000000000000000000000003A
S315000000C0000000000000000000000000000000002A
S315000000D0000000000000000000000000000000001A
S315000000E00000000000000000D9250000000000000C
S315000000F000000000000000000000000000000000FA
S31500000100000000000000000000000000992A000026
S3150000011000000000000000000000000000000000D9
S3150000012000000000000000000000000000000000C9
S3150000013000000000000000000000000000000000B9
S3150000014000000000000000000000000000000000A9
S31500000400FFFFFFFFDFCEFFFFFCFF0F00FFFF0F0028
S31500000410FCFF0F00FFFF0F00FCFF0F00FFFF0F00A8
S31500000420FCFF0F20FFFF0F20FCFF7F40FFFF7F40F8
S31500000430FCFF0D40FFFF0D40FFFFFFFF40F2845021
S3150000044040F28453C2F20000C2F2000310B58342A8
S3150000045005D040F20003C0F2000303B1984710BD77
S3150000046040F2845040F28453C2F20000C2F200030C
S315000004701B1A9A10D90F8918491010B529B140F2E4
S315000004800003C0F2000303B1984710BD10B540F257
S31500000490A054C2F20004237873B9FFF7CFFF40F2ED
S315000004A00003C0F200032BB144F65860C0F200000E
S315000004B000E000BF0123237010BDC04640F20003D8
S315000004C0C0F2000310B54BB140F2A45144F6586097
S315000004D0C2F20001C0F2000000E000BFFFF7C0FF5B
S315000004E010BDC046C368F0B5C64698468768040086
S315000004F040680D0000B5FE1AC0189044964208D90F
S3150000050003F0D6FCBFF35F8F4346E36080BCB8467A
S31500000510F0BD320003F0CCFC4346DB1B1A006068DA
S31500000520A919984603F0C4FCBFF35F8FECE7C046F9
S31500000530F8B54746CE46884680B51600070040F215
S315000005400009C56884681CE0013B5B1B641BB44260
S3150000055000D934009C4200D91C007868220041462C
S31500000560401903F0A5FC2D19A144A044361BBC6814
S31500000570631B5A1E93415B421D40BFF35F8FFD60B4
S3150000058036B13B699D42DFD3013B1B195B1BDDE79F
S315000005904846C0BCB946B046F8BDC04610B540F6A0
S315000005A0CC140323C2F20004236144F2A8726361EF
S315000005B040F2CC53C0F20002C2F20003A261E36132
S315000005C040F2004323620023A3626362E362226671
S315000005D040F2BC52C2F20002626644F2B4711022CA
S315000005E0E01DA266C0F200010C3A2367E36663676A
S315000005F003F05EFCBFF35F8F44F2B873C0F20003F2
S315000006001A6822609B88A380BFF35F8F2023A371A3
S31500000610BFF35F8F10BDC046431C70B50400580081
S31500000620C01840F6CC13C2F200039C4663001B19A7
S31500000630DB006344DC6AC00015006044012C14D062
S31500000640022C0DD0FCB99A6A5E6AB24222D9013AEE
S31500000650961BB54207D82A00FFF744FF2C0002E09C
S31500000660FFF766FF0400200070BD9A6A5C6AA2422A
S315000006700BD9013A121B2C00954200D91400220016
S31500000680FFF730FFEFE70024EDE71B6AD218013AC7
S31500000690121BF0E71B6AD218013A961BD9E7C0462F
S315000006A0F8B540F6CC13C2F200031B7804000D0027
S315000006B0160063B1EFF31087012181F31088320031
S315000006C029002000FFF7A8FF87F31088F8BDFFF781
S315000006D065FFEFE710B5040082686368501C984216
S315000006E007D8236899540200E368A0600133E360E9
S315000006F063689A4200D010BD21682069FFF7D0FFD9
S31500000700A368984203D001235B42E360F3E700232A
S31500000710A360F0E7F8B54E4645465746DE46E0B5D7
S315000007201E000A9B0F008046150099460B999742BA
S3150000073000D271E03B000122B3FBF5F301329D428A
S31500000740FAD9B246964200D2924601231A000A40CE
S3150000075093460B4202D14B46002B42D14346DB68FF
S315000007600124002B02DA27E06C43013E012EFBD860
S31500000770B7FBF4F39D4204D86C43B7FBF4F39D42F8
S31500000780FAD944F67036C0F2000606E0B4FBF5F37B
S31500000790AC420DD31C00B7FBF3F322005A43F156CB
S315000007A04046BF1AFFF796FF4346DB68002BEDDA9B
S315000007B05B460BB14B468BB9F0BCBB46B246A9466D
S315000007C0A046F8BD01235B429C4620214046E144F9
S315000007D0FFF780FF4346DB68002BEDDBD145F1D800
S315000007E0EAE72024890714D5744274412401203491
S315000007F0D145B3D901235B429C4621004046E144E2
S31500000800FFF768FF4346DB68002BD5DB4A46002A24
S31500000810A6D0D145EED8A1E7012292E7F0B5DE4693
S3150000082057464E464546E0B59DB00CAB9A460793F3
S315000008304023089300230C00914640F2010B8046AA
S3150000084009930A93AF4B0B90029300216156013432
S31500000850002967D0252907D007A8FFF73BFF0A9B89
S31500000860002BF2DA1F0066E00023E356002702257C
S3150000087008200422611C2D2B0CD02D2B0EDC232BE3
S3150000088011D02B2B3CD10C0017430023E356611CDF
S315000008902D2BF2D15B460C001F43F6E7302B05D11A
S315000008A00C002F43F1E70C000743EEE71A00303A3D
S315000008B0D2B20026092A0DD8B20096197600F6188B
S315000008C00023CB560C001A00303AD2B2303E01312A
S315000008D0092AF1D92E2B00D1B4E000230025E356D6
S315000008E00C0004221900914368290BD0252B13D044
S315000008F0583BDBB2202BB2D8029A9B00D3589F46B6
S315000009000026EAE704210023E35601341A008A434D
S31500000910682AF8D0252BEBD1252107A8FFF7DAFEA8
S315000009200A9B9DE70A9F4546002F04DD099C002C83
S3150000093000D0A1E03F1938001DB0F0BCBB46B2465E
S31500000940A946A046F0BD4B4649461B6807A81A1D96
S315000009500A60196810222B0001970096FFF7DAFE4D
S315000009600A9B7DE74B4649461B6807A81A1D0A6085
S3150000097019680A222B0001970096FFF7CBFE0A9B07
S315000009806EE74B4649461B681A1D0A601D6806E05D
S3150000099007A8FFF79FFE0A9B002B00DA62E70021FB
S315000009A0695601350029F3D159E74B4649461B687C
S315000009B007A81A1D0A6019680023019308330093DB
S315000009C01022FFF7A7FE0A9B4AE74B4649461B68DB
S315000009D01A1D1B680A60DA1703939B1853400122FD
S315000009E0092B06DD0A201900013293FBF0F3632977
S315000009F0F9DC0495954262D3002E43D100260A9B6A
S31500000A00002B00DA2EE7039B002B67DB7B0770D4F5
S31500000A1003233B40022B77D02B000A220399019730
S31500000A20009607A8FFF776FE0A9B19E74B4649464C
S31500000A301B6807A81A1D0A6000215956FFF74AFECF
S31500000A400A9B0DE70123E3561A00303AD2B2092A6F
S31500000A5054D800250C002A009500AD186D00EA1840
S31500000A6000230134E356303A19003039C9B2092956
S31500000A70F2D91500611C33E7220051462800FFF722
S31500000A800FFE57E70223039A3B40002A1BDB7A0737
S31500000A9019D4002B51D0FDB1FB071DD40597049F37
S31500000AA0BE4218D9202107A8FFF714FE0A9B013E73
S31500000AB0002B00DAD6E6002EF2D1059FA0E70492BD
S31500000AC0002EDFD19AE7013E03B12DB1FB0703D417
S31500000AD0002EE3D192E7059F0A9B91E75B422D2109
S31500000AE007A80393FFF7F6FD0A9B002B90DA1F0079
S31500000AF021E72B2107A8FFF7EDFDF5E700250131DA
S31500000B00EEE6C046EC4A0000002D00D084E7002E39
S31500000B1000D181E7049B9E4217D9302107A8FFF731
S31500000B20D9FD0A9B013E002B00DA9BE6002EF1D18F
S31500000B30002B00DB70E71F00FDE6FB07AED50A9B26
S31500000B40002B00DB68E71F00F5E60A9BF0E7C046CE
S31500000B500EB400B582B003AB02CB01AA0193FFF736
S31500000B605DFE02B008BC03B01847C04644F6C83361
S31500000B7010B50400C0F2000318689B680A009B6861
S31500000B802100984710BDC04610B503F06CF9431E0E
S31500000B909841C0B210BDC046F0B557464E464546D0
S31500000BA0DE4640F6762AE0B50B8885B0C2F2000A2A
S31500000BB01600019352460023138044F6C83340F6CC
S31500000BC0782BC0F200039A681F68C2F2000B9046A9
S31500000BD05B463A00B34647460500002440F200094A
S31500000BE01E00904602A97B680122404607319847BD
S31500000BF0337853B14B46337002ABDB7901342B703B
S31500000C00019BA4B20135A3420BD953461B885B4511
S31500000C10E8D3142005B0F0BCBB46B246A946A046B0
S31500000C20F0BD0020F6E7C04644F6C833F0B54746A7
S31500000C30CE46C0F200039A6840F2000490460025B2
S31500000C404FF6FF7680B51F688BB0C2F200042369A9
S31500000C501800994603F035F94346020049469B6859
S31500000C603240380098476A46238B0021D38002A879
S31500000C70202203F0E3F86B4640F2F412991D02A815
S31500000C80FFF78AFF68B114280BD040F2E831A08B39
S31500000C9002F0C0F80135A37EEDB2AB42D7D80120F1
S31500000CA006E0616902A803F0DEF80028EDD0002016
S31500000CB00BB0C0BCB946B046F0BDC046F0B5CE4696
S31500000CC0474644F6084380B5C0F200031C689D6899
S31500000CD0596893B02B68200098476B6820009847A6
S31500000CE044F6C833C0F200031E689F685968300096
S31500000CF040F200043B68984700254FF6FF78C2F2A1
S31500000D00000423681800994603F0DBF84246BB68E6
S31500000D10024049463000984740F66D3244F2C071B1
S31500000D20C0F20002C0F200010020FFF711FF6A4680
S31500000D3023890021D38002A8402203F07FF86B4666
S31500000D406422991D02A8FFF727FFA8B1142813D023
S31500000D5040F2E831A08902F05DF80135A37AEDB2E0
S31500000D60AB42CED844F2D47101220020C0F2000179
S31500000D70FFF7EEFE012418E0616802A803F073F89D
S31500000D800028E5D044F2D4710022C0F20001002010
S31500000D90FFF7DEFEFFF748FF44F2D47104000200BD
S31500000DA0C0F200010020FFF7D3FE200013B0C0BC44
S31500000DB0B946B046F0BDC046F0B557464E46454624
S31500000DC0DE4644F6C833E0B5C0F200031F68A5B09E
S31500000DD09E6802AB40F200089D1D3B0040F20004F5
S31500000DE037004FF6FF79464640F22A0A9846C2F285
S31500000DF00004236A18009B4603F063F84A465946E6
S31500000E000240BB6840469847238D202200212B8054
S31500000E1004A803F013F840F2F412290004A8FFF71F
S31500000E20BBFEA0B1142812D040F2E831A08D01F02B
S31500000E30F1FF53460136E35CF6B2B342D9D801203E
S31500000E4025B0F0BCBB46B246A946A046F0BD616AD5
S31500000E5004A803F008F80028E6D03E00474640F212
S31500000E6000083B004FF6FF79370040F23A0A464643
S31500000E709846236B18009B4603F023F84A465946CA
S31500000E800240BB6840469847238F202200212B80D2
S31500000E9004A802F0D3FF40F2F412290004A8FFF7D9
S31500000EA07BFE68B114280BD040F2E831A08F01F028
S31500000EB0B1FF53460136E35CF6B2B342D9D8BEE77A
S31500000EC0616B04A802F0CFFF0028EDD03E00474634
S31500000ED040F200083B004FF6FF7B370040F2480A1D
S31500000EE046469846236C1800994602F0EAFF5A4691
S31500000EF049460240BB68404698475346E35A80221B
S31500000F0000212B8004A802F099FF40F6B832290090
S31500000F1004A8FFF741FE70B114280CD04C2340F210
S31500000F20E831E05A01F076FF4A230136E35CF6B277
S31500000F30B342D7D883E7616C04A802F094FF002877
S31500000F40ECD03E00474640F200083B004FF6FF7BE0
S31500000F50370040F2580A46469846236D18009946CF
S31500000F6002F0AFFF5A4649460240BB6840469847E2
S31500000F705346E35A802200212B8004A802F05EFF2C
S31500000F8041F64072290004A8FFF706FE00283FD16B
S31500000F90616D04A802F067FFE0B33E004746FFF725
S31500000FA043FE002800D04BE740F2000843464FF6C8
S31500000FB0FF7BB04640F2680AB9461E000190276ED4
S31500000FC0380002F07EFF5A464346024039009B68CD
S31500000FD0484698475346E35A402200212B8004A8EE
S31500000FE002F02CFF40F6B832290004A8FFF7D4FD22
S31500000FF0E8B114281BD06C2340F2E831E05A01F026
S3150000100009FF6A230136E35CF6B2B342D7D816E786
S315000010101428BDD05C2340F2E831E05A01F0FAFE14
S315000010205A230136E35CF6B2B34296D807E7616EFF
S3150000103004A802F018FF0028DDD0464640F200085A
S3150000104043464FF6FF7BB04640F2780A1E00276FF4
S31500001050380002F036FF5A464346024039009B6884
S31500001060484698475346E35A402200212B8004A85D
S3150000107002F0E4FE40F2F412290004A8FFF78CFD0A
S3150000108070B114280CD07C2340F2E831E05A01F00C
S31500001090C1FE7A230136E35CF6B2B342D7D8CEE678
S315000010A0616F04A802F0DFFE0028ECD0464640F24D
S315000010B00008434640F2800BB0464FF6FF7A1E000A
S315000010C05B46E758380002F0FCFE524643460240B3
S315000010D039009B68484698478823E35A40220021F6
S315000010E02B8004A802F0AAFE40F2D072290004A8C0
S315000010F0FFF752FD70B114280CD08C2340F2E83172
S31500001100E05A01F087FE8A230136E35CF6B2B34269
S31500001110D6D894E6842304A8E15802F0A4FE002859
S31500001120EBD0464640F20008434640F2900BB046EC
S315000011304FF6FF7A1E005B46E758380002F0C1FE04
S3150000114052464346024039009B68484698479823D2
S31500001150E35A402200212B8004A802F06FFE40F2E1
S31500001160F412290004A8FFF717FD70B114280CD05B
S315000011709C2340F2E831E05A01F04CFE9A230136F6
S31500001180E35CF6B2B342D6D859E6942304A8E158F4
S3150000119002F069FE0028EBD0019846464F4640F221
S315000011A0000840F2A00B4FF6FF7A81465B46E358F3
S315000011B01800019302F085FE5246B3680240019979
S315000011C038009847A823E35A202200212B8004A840
S315000011D002F034FE40F22C12290004A8FFF7DCFCD2
S315000011E080B114280ED0AC2340F2E831E05A01F069
S315000011F011FE43460133DBB29846AA23E35C43451E
S31500001200D4D81CE6A42304A8E15802F02CFE00283A
S31500001210E9D0484614E6C0460379012B04D140F6CE
S315000012207822C2F2000213707047C04640F6762359
S31500001230C2F200031A8810B501321A8040F67043D4
S31500001240C2F200039A7AF2B140F2E7319A8901328A
S3150000125092B29A818A4216D940F67421C2F20001EE
S315000012600A88013292B20A800021998144F69C33A1
S31500001270C0F2000399681868CC69D20704D5012228
S3150000128040F20F41A04710BD002240F20F41A04797
S31500001290F9E7C04670B500F0F9F844F6A833C0F295
S315000012A000031C689D68596820002B689847200039
S315000012B06B6840F6704498470023C2F2000400228F
S315000012C0636023600023A2722381A381FFF7F6FCEB
S315000012D038B144F6E8010020C0F20001FFF738FCFF
S315000012E0FEE744F614110020C0F20001FFF730FCBF
S315000012F0FFF762FD00287DD144F6481144F69C367E
S315000013000020C0F20001FFF723FC3E4DC0F20006AC
S3150000131040F67C2040F2F4120021C2F2000002F0F6
S315000013208DFD40F67C20C2F2000000F033F906285D
S31500001330EED880002B589F4640F67C20C2F2000073
S3150000134000F0F2F944F634210020C0F20001FFF764
S31500001350FFFBDDE7012340F67C20A3720023C2F2E7
S315000013600000A38100F0E0F944F608210020C0F255
S315000013700001FFF7EDFBCBE70023A372A381B3685F
S31500001380002240F20F41DB693068984740F67C2026
S31500001390C2F2000000F0C8F944F6DC110020C0F2E9
S315000013A00001FFF7D5FBB3E70023A372A381B3685F
S315000013B0012240F20F41DB693068984740F67C20F5
S315000013C0C2F2000000F0B0F944F6B0110020C0F2FD
S315000013D00001FFF7BDFB9BE740F67C20C2F2000050
S315000013E000F0A2F944F688110020C0F20001FFF7D0
S315000013F0AFFB8DE744F630110020C0F20001FFF785
S31500001400A7FB79E7804B000010B540F2E83182B0C7
S315000014100A2001F0FFFC6B46DC1D44F69C33C0F24B
S31500001420000318689B6822009B690521984723786A
S3150000143033B940F67043C2F200031A8901321A81A9
S3150000144002B010BD002300B583B001A8019301F0DE
S31500001450D7FCFFF71FFF03B000BDC04610B538B973
S315000014604CF2000390220121C4F27E03995410BD70
S315000014700228FCD144F6784142F68440C0F20001CD
S31500001480C2F2000000F0D6FFF1E7C04644F63C4346
S3150000149010B5C0F200030BCB1B68984710BDC046C1
S315000014A044F63C43F0B540F68044C646C0F200031D
S315000014B09F681E68BB68C2F2000400B50500984626
S315000014C00022002321003000C04740F2E8313220DC
S315000014D001F0A0FC0422210030007F680023B847F9
S315000014E063885BBA9BB2980802F046FB4FF6004150
S315000014F0C4F27F6101F00AFF0021C4F2253102F037
S3150000150017F80021C4F2202102F052F92860208841
S3150000151040BA80B202F030FB4FF60041C4F27F6160
S3150000152001F0F4FE0021C4F2C82102F001F868605F
S3150000153080BCB846F0BDC0467047C04670B544F69C
S315000015406021040040F68440C0F20001C2F20000AF
S3150000155002F089FCE8B1250009301E3503E0621E61
S315000015601370A54215D00023C35621000200013492
S3150000157001302C2BF3D10B700123D3562C2B06D024
S31500001580237000230130C35601342C2BF8D12C23B1
S31500001590237070BD30B583B06B46040040F68440BE
S315000015A09D1D40F6000340F600020021C2F2000035
S315000015B02B8002F043FC40F68440290040F22C12B6
S315000015C0C2F20000FFF7E8FA44F66C2140F68440C8
S315000015D0C0F20001C2F20000FFF7D6FA50B944F695
S315000015E07C2140F68440C0F20001C2F20000FFF701
S315000015F0CBFA98B344F6782140F68440C0F2000155
S31500001600C2F20000FFF7C0FA58B144F6802140F656
S315000016108440C0F20001C2F20000FFF7B5FA0028CC
S315000016203BD044F6802140F68440C0F20001C2F26D
S315000016300000FFF7A9FAA0B944F68C2140F68440D1
S31500001640C0F20001C2F20000FFF79EFA88B1200046
S31500001650FFF774FF23780420312B00D0072003B056
S3150000166030BD2000FFF76AFF2378312BF6D1032027
S31500001670F5E744F6982140F68440C0F20001C2F234
S315000016800000FFF781FA0028E8D02000FFF756FF98
S3150000169023780520312BE1D1E1E744F68C2140F691
S315000016A08440C0F20001C2F20000FFF76DFA002884
S315000016B0B7D144F6982140F68440C0F20001C2F248
S315000016C00000FFF761FA0028ABD12000FFF736FFD4
S315000016D00120C4E7F8B542F28444C2F200040600D1
S315000016E00D001700002140F60002200002F0A6FBC4
S315000016F044F6A4213A002000C0F2000102F07EFB6D
S315000017003100200002F0A2FB200002F0DAFBA44622
S315000017102900604402F0C4FB200002F0D2FB81B233
S315000017202000FFF723FAF8BDF0B541F2844440F6F5
S315000017307045C2F2000483B040F600020021C2F2F6
S3150000174000050700200002F079FB2800FFF7A8FE3D
S31500001750686801F0C3FD86B2286801F0BFFD40F25B
S31500001760B0012B8982B2C2F200010093200033003F
S3150000177002F044FB41F68446200002F0A2FB44F648
S31500001780AC21C2F2000602000500C0F200013000E2
S3150000179002F034FB300002F094FB310082B23800D4
S315000017A0FFF798FF40F2E831322001F033FB2100C9
S315000017B03800AAB2FFF78EFF40F2E831C82001F0E8
S315000017C029FB03B0F0BDC04610B5FFF73BFE002075
S315000017D010BDC04641618261002070477B2330B551
S315000017E0046AA5782B40A37083789B079B0FD21AB7
S315000017F002618022CB18C360A3781343A37003232E
S3150000180082781340022B03D00B78E370002030BDA2
S315000018104FF600620B881343E381F7E74162C26229
S31500001820836200207047C0460B2230B57B24036AD2
S315000018309D782A409A7000222C400325C2608A783F
S3150000184048785A701A782840AA4302431A70CA7810
S3150000185059359A74D8790A78A8432A400243DA712E
S3150000186000209C7030BDC04601235B4200204B60C7
S315000018700B607047030010B506208A0707D57B2248
S31500001880186A847822408270002200201A61C907F3
S3150000189002D5002200209A6110BDC04683690B6004
S315000018A00023836100207047F0B5C64600B50500E9
S315000018B0806A84B08C4690466C46D8B123000600F8
S315000018C086CE86C336681E60EB691B780360634666
S315000018D0836043460371EB6AC3606B6A9847AB6AE1
S315000018E023B123CC23C31A002368136004B080BC41
S315000018F0B846F0BD2000E7E70023026A10B50400F1
S3150000190043609370C3690520185601F02FFB0B2026
S31500001910E369185601F02AFB0720E369185601F01F
S3150000192025FB0920E369185601F020FBEFF310812F
S31500001930012383F31088E36946F6FC721C78802342
S315000019401B06E340C4F20402506803435360536825
S3150000195081F31088002010BD43F60002C0F2002279
S315000019609446F0B5C64600260B7800B5634406706B
S315000019705B0103624B69C16143628B698662C36224
S315000019804A780D0053425A41032183780B270132CE
S315000019908B4313438370AB7A04009846EF573800A5
S315000019A001F0E4FA380001F08BFA3800052722002E
S315000019B0414601F093FA2B79EF579846380001F02B
S315000019C0D5FA380001F07CFA380007272200414694
S315000019D001F084FAAB79EF579846380001F0C6FA61
S315000019E0380001F06DFA380009272200414601F05F
S315000019F075FA2B7AEF579846380001F0B7FA380097
S31500001A0001F05EFA22004146380001F067FAEFF372
S31500001A10108740F2010888F31088287846F6FC7390
S31500001A208446802062460006D040C4F2040359680A
S31500001A30814359605B6887F3108842462978236A98
S31500001A408A4040F20F219E701E715E729E72DE7297
S31500001A505E83114201D04022DA7406221A77697831
S31500001A60AA78E878EE692D780DB9374D9D82120176
S31500001A70C0000243032963D0484241410F20494236
S31500001A808143F231D2B21A7002229971317BFF275B
S31500001A9049000A4020215A737278B078D201400179
S31500001AA001403A400A43002135781972A91E0129DE
S31500001AB03ED903277168D2B2DA718A7848785A70AB
S31500001AC01A783840BA4302431A70CA7859379A745A
S31500001AD0D8790A78B8433A400243DA7100230520E0
S31500001AE0E36023616361A361E369185601F01CFAA0
S31500001AF00B20E369185601F017FA0720E369185618
S31500001B0001F012FA0920E369185601F00DFA0323D1
S31500001B1070222B401343226A00209370738923811D
S31500001B2044F65513C5F24333636080BCB846F0BD36
S31500001B305F70022D01D110210A43D2B2DA71CDE7CE
S31500001B403D310A43B2319DE700F8FFFF70B5EFF370
S31500001B500384103C64B2200001F0B2F942F68C53C3
S31500001B60A400C2F20003E058C3691B699BB1036974
S31500001B7003B170BD026A7F2391780B4004210B43A9
S31500001B8093700023C360436A002BF2D080220021A9
S31500001B90FFF78AFEEDE70369026A002BEBD0032507
S31500001BA08178C4680D40022D08D02578D5708A0743
S31500001BB0920F9B1AA4180361C460D9E74FF600661A
S31500001BC025883543D581F2E710B582B0EFF303845B
S31500001BD0103C64B2200001F073F942F68C53A40065
S31500001BE0C2F20003E4580323A2781340022B0DD05F
S31500001BF0236A5979A369C9B2019183B9636A1BB192
S31500001C0004222000FFF750FE02B010BD40F2FF1183
S31500001C10236A1B8A1940A3690191002BEED0920713
S31500001C20920F606901A902F043F9A37862699B07E4
S31500001C309B0FD2186261A269D31AA361002BE3D16C
S31500001C40636A002BE0D0012200212000FFF72CFE62
S31500001C50DAE7C04610B5EFF3038442F68C53103C26
S31500001C6064B2C2F20003A200D0587B23026A9178C4
S31500001C700B409370436A1BB102220021FFF714FE4A
S31500001C80200001F01DF910BD70B5EFF3038442F694
S31500001C908C53103C64B2C2F20003A200D058032356
S31500001CA082781340022B19D0036A5979C9B23822B7
S31500001CB01D792A40ED0602D51D7FED070BD5382686
S31500001CC01D79B5431D71436A0BB1FFF7EDFD200089
S31500001CD001F0F6F870BD40252A43F0E740F2FF1107
S31500001CE0036A1A8A1140E2E70023F0210269937021
S31500001CF0D172302203628354023A83542A33C25C7F
S31500001D000233C254C36943620020704741600272C5
S31500001D10002070474163C263836300207047C0465A
S31500001D204CF6BD52CAF6B6429446C36800206344D8
S31500001D305A4253410B7070470023F021026910B5D7
S31500001D4093709370D172302203628354023A8354A3
S31500001D50043A815C02328154C269C3604262EFF385
S31500001D601081013383F31088036846F6FC721878F5
S31500001D7080231B06C340C4F2040254682343536005
S31500001D80536881F31088002010BDC04643F6000258
S31500001D90C0F200229446F8B500260B780160634431
S31500001DA05B0103618B68040043600B7B0D000372CB
S31500001DB0CB6943630B6A8663C363EFF31080012329
S31500001DC083F310880F78802146F6FC730906F940E4
S31500001DD0C4F204035A688A435A605B6880F3108829
S31500001DE0F0222368596A23699E70DA728878ED3A80
S31500001DF002401A70FA2220209A714A785A700A789C
S31500001E0092000243D2B2DA714A790F201A72CA7866
S31500001E109A740A790121D2000A43D2B25A72232255
S31500001E209A725E73697B2856220001F0B1F8102081
S31500001E30697B2856220001F0ABF82D23A661E661E6
S31500001E4026626662E6540133E6540133E6540133F2
S31500001E50E65443F24323C5F249330020E360F8BD5C
S31500001E6070B52E240355037A8161C261012B2CD0F3
S31500001E702A23C35C00212D242C26012505558155D6
S31500001E8002622B22416283540432815407360232A5
S31500001E9081548155015D01B18554B4210269917067
S31500001EA08439445C1CB95123D372002070BD0024D0
S31500001EB04454012B15D02921415CD1702B22013BC2
S31500001EC083542C232A3AC254EFE729210024445490
S31500001ED00124416849002143282401552A214354FD
S31500001EE0C8E72821415CE8E730B52E240355816117
S31500001EF0017AC26101292CD02A23C15C00232D243A
S31500001F002C250355435502622B2243628154043229
S31500001F1083540735023283544355035D0BB10123C5
S31500001F208354B42203699A70843A845C1CB92132C2
S31500001F30DA72002030BD00248454012913D02922EE
S31500001F40825CDA702B2301220139C1540133C25459
S31500001F50EFE729230024C454436828345B00035563
S31500001F602A23C154CAE72822825CEAE7F0B50400B6
S31500001F70806B83B06D4670B12B000200C0CAC0C32F
S31500001F80E36B01710360636B9847A36B0BB103CDE1
S31500001F9003C303B0F0BD2800F2E7C04670B5EFF307
S31500001FA00380103840B200F08BFFEFF3038342F654
S31500001FB08C52103B5BB2C2F200029B009B5819691F
S31500001FC00A7BD207D40F1ABB2A202C329A5C185CE3
S31500001FD090420FD02D20185C08B1022A45D0282047
S31500001FE0185C0132C8702B20195C013919542C2158
S31500001FF05A5470BD1A6A72B32D20185CC0BB586A59
S315000020009C69013A245C01301A625862CC70F0E790
S315000020102D229A5C3AB9002201201A622F32985476
S315000020205423CB72E5E731229A5C002AF3D1487932
S315000020305A6A996988541A6A013A1A625A6A0132C6
S315000020405A622E229A5C6AB352211A69D1723022E0
S3150000205051399954CDE72E229A5C002AE0D05222BB
S31500002060CA720121223A9954C3E75223CB72C0E7C0
S3150000207031201D5C35B11C54012A17D08C72FF2407
S31500002080CC70B6E748795A6A996988541A6A596AC7
S31500002090013A013159621A621969012A06D0FF24F0
S315000020A0CC70A6E754221B69DA72A2E72023FF242C
S315000020B08B72F5E770B5EFF3038342F68C52082175
S315000020C0103B5BB2C2F200029B0098580369DA7AB1
S315000020D08A43DA722F22825C52BB2A22815C023248
S315000020E0825C914214D1026A5AB92D21445C0321C3
S315000020F0091B3024055DC9B2002D2BD0DA72FFF71B
S3150000210035FFEFF30380103840B200F0D9FE70BD02
S31500002110A2B9012924D02921415C0024DC72D9709E
S315000021202B21435C0132013B43542C23C254E8E784
S31500002130F0220739DA72FFF719FFE2E72D21445C36
S315000021400021002CE9D0022AE7D101242931415C83
S315000021502143E2E7F022DA729A78A2439A70CEE738
S315000021602731415CD9E7C046002303600020704751
S31500002170FF2010B540F600040B0A084019010918A3
S31500002180C4F2040489000B5900209B07DB0F13706F
S3150000219010BDC0460023C4F204039C46090A490147
S315000021A061444B68002013807047C0460020C4F28B
S315000021B0040084461800090A9043000413404901AC
S315000021C00343614400208B607047C046FF23012013
S315000021D00B4098404FF6FF73034002B91B040022E0
S315000021E0C4F204029446090A4901614400208B6046
S315000021F07047C0460020C4F2040084461800090A4D
S31500002200490110B561440C6810402043934398433C
S315000022100860002010BDC0460023C4F204039C469B
S31500002220090A490161444B6800201B0C1380704762
S315000022300020C4F2040084460B0A5B01634458681C
S31500002240FF231940FE3B8B40000C99B203405B1AFA
S3150000225059424B41002013707047C0460020C4F21B
S31500002260040084461800090A9043000413404901FB
S31500002270034361440020CB607047C0460020C4F28F
S3150000228004008446FF200B0A0840012181405B01BF
S31500002290634410B50804DC68012A04D08C43044367
S315000022A00020DC6010BD84430C43F9E7F0B54F46CF
S315000022B04646D6460388C0B506000027D3B1B823E4
S315000022C05B059A4680235B04994644F61C54FB0042
S315000022D098460025C0F20004736822884344998812
S315000022E091420CD001350234032DF5D133880137E4
S315000022F0BB42EAD8E0BCBA46B146A846F0BD524653
S3150000230044F200011B68C4F2040113404B450FD090
S315000023102B0020335B005A5CD209002AE2D07F22D0
S31500002320585C02405A54C820012100F073FDD9E7D9
S315000023302B0020335B005A5CD209002AD2D1585CAC
S31500002340803A02435A54C820012100F063FDC9E7D0
S31500002350F0B5DE4657464E464546E0B583B0040026
S31500002360FFF7A4FFEFF31082012383F3108842F6F0
S315000023708853C2F2000301931B6833B940F600513B
S31500002380C4F20401CB704033CB7001990B68013362
S315000023900B6082F31088238800934BB380235B0283
S315000023A09846234B40F60005002140F2FF099C4663
S315000023B06068C4F204054F4682880468130A3A40EE
S315000023C047461B013C420AD09F18BF00BA466646E4
S315000023D07F593740564677516746274077519B18B5
S315000023E09B005C510131009B89B208308B42E2D1DF
S315000023F0EFF31082012383F31088019B1B681BB146
S3150000240001990B68013B0B60019B1B6833B940F6D1
S315000024100051C4F20401CB708033CB7082F3108874
S3150000242003B0F0BCBB46B246A946A046F0BDC046C6
S31500002430FFFFFEFF45F2542310B5C5F24F030360BC
S315000024400800FFF785FF002010BDC04610B5080044
S31500002450FFF77EFF002010BDF0B5012687B001AB67
S3150000246003A80D0014009980019206804360FFF7CF
S315000024701DFFEFF3108186F3108842F68853C2F2EF
S3150000248000031A6832B940F60050C4F20400C27064
S315000024904032C2701A6801321A6081F31088FF2236
S315000024A0280A2A400001E1030BD540F600058118F1
S315000024B0C4F2040589004F59114E374026404F514A
S315000024C04E5140F600018018C4F2040180004450C9
S315000024D0EFF31082012181F31088196811B1196890
S315000024E0013919601B6833B940F60051C4F2040182
S315000024F0CB708033CB7082F31088002007B0F0BD1C
S31500002500FFFFFEFF8160C26000207047F8B546F20B
S315000025100003CE4640F20039474604000220C4F2CA
S3150000252000039C464B4680B508564D4682002071F6
S315000025306244D35846F200079C4600238E685351E6
S31500002540A660CE68C4F20007E6600E786671BB55D9
S315000025500B79CD781B012B434D79DBB2ED012B4373
S31500002560DBB2BB554D4663465351002803DB2200C0
S31500002570497800F0B3FC44F25533C0F24903002019
S315000025802360C0BCB946B046F8BDC04610B5007958
S3150000259040B200F0C9FC002010BDC04610B500795D
S315000025A040B200F0E3FC002010BDC04610B50400A8
S315000025B00420205600280ADB00F0D8FC042242F64C
S315000025C08C530021A256C2F200039200D150002380
S315000025D00020236010BDC04630B583B0EFF30384FE
S315000025E042F68C53103C64B2C2F20003A200D558E6
S315000025F046F200036A79C4F200039B5C9B079B0FBB
S31500002600032B0BD1AB6823B10192EA6868460092AE
S315000026109847200000F054FC03B030BD200000F0C5
S315000026204FFCAB68002BF7D06A7968460192EA68DE
S3150000263000929847F0E7C0468368027B190008318C
S315000026400AB10C3319000A78D207D20F0B789B0710
S31500002650DB0F9342FAD1F02300200B707047C0467F
S31500002660017B8268036939B11100013B0C311360AB
S31500002670F12300200B7070471100013B9BB208311B
S315000026801380F5E78268017B1300083301B1043338
S31500002690F02200201A707047062070470620704707
S315000026A030B58568047B2800083004B10430027810
S315000026B0D207D20F03789B07DB0F9342FAD1037838
S315000026C09B07DB0F0B711CB12B6800200B6030BD24
S315000026D02B889BB2F9E7C0464161C2618361002045
S315000026E07047C046836810B51900027B08310AB1ED
S315000026F00C3319000A78D207D20F0B789B07DB0F31
S315000027009342FAD1F4230B7000230B7143689B7C30
S315000027105BB21A00213203D100230360002010BDF2
S31500002720002B12DB1F215A094EF200140B401E39F2
S3150000273099402032CEF2000493001951BFF34F8F17
S31500002740BFF36F8F43689B7C5BB242F68C529B0053
S31500002750C2F200029850DFE730B58468057B21009D
S31500002760083105B104310A78D207D20F0B789B07DE
S31500002770DB0F9342FAD143681A78012A03D0F1237A
S3150000278000200B7030BD00691B7C421E3DB142F635
S315000027902C559B00C2F2000558512260EFE742F625
S315000027A02C550233DBB2C2F200059B0092B258519F
S315000027B02280E4E730B58468057B2100083105B145
S315000027C004310A78D207D20F0B789B07DB0F9342AE
S315000027D0FAD10369013B15B12360002030BD9BB2DD
S315000027E02380FAE770B58568067B2C00083406B1AD
S315000027F004342278D207D20F23789B07DB0F93424B
S31500002800FAD14368016142F62C501B7C4A1EC2F283
S31500002810000026B19B0019502A60002070BD0233CB
S31500002820DBB29B0092B219502A80F6E770B5856834
S31500002830067B2C00083406B104342278D207D20F66
S3150000284023789B07DB0F9A42FAD103698B604368B2
S31500002850DA691278502A34D142F62C521B7CC2F225
S31500002860000256B1013BDBB29B009B58F43D5BB9BD
S315000028704B60002300200B7070BD0133DBB29B0060
S315000028809B58002BF4D0F83D6A785206560F002A62
S315000028903ADB4EF20002C4F20102146A42F6A86262
S315000028A00720C2F20002250E12680540AA40240A3B
S315000028B02040C24016B102204640F240B2FBF3F37C
S315000028C0D6E763785B065D0F002B16DB4EF200033E
S315000028D0C4F20103186A42F6A8630722C2F2000393
S315000028E0040E1B681440A340000A0240D340002D8A
S315000028F0BED002226A40D340BAE748F20003A2786B
S315000029005207520FD340B3E748F20002A8784007B7
S31500002910400FC240D2E7C046F0B5C64600B5CB6907
S3150000292041600D00D97904008B1E5A42534103734E
S315000029302A7C1202022900D19DE044F2082144F2C9
S315000029400023C4F208018C46C4F20803D31862447B
S31500002950A360EFF31081012383F3108846F6FC7021
S31500002960267BC4F20400C068002E57D02E7C012EB0
S3150000297059D80327BE1BB340DB43034046F6FC7021
S31500002980C4F20400C360C36881F310880023137087
S3150000299013789B07D90F002BFADB91702B7AA1686D
S315000029A09C460B00267BEA69083306B10433177987
S315000029B01078B846D77807223A4000283AD16046C0
S315000029C0002848D140461871002098715A70624616
S315000029D09A706A68636822611B7C501E002E2FD095
S315000029E042F62C569B00C2F200069A51086012204D
S315000029F02856002803DB2200697C00F0C9FA6B69BF
S31500002A0000206361AB69E3610023A36144F2547360
S31500002A10C0F24103236080BCB846F0BD2E7C02366E
S31500002A20F6B2012EA5D9032E1ED81527BE1BB3401C
S31500002A30DB43A2E702435028C4D140F2000CC1E7B1
S31500002A4042F62C560233DBB2C2F200069B0080B27D
S31500002A509A510880CBE70220674647403801024377
S31500002A6040F2000CD2B2ADE7052E10D80527BE1BEA
S31500002A70B340DB4381E744F20C0144F20003C4F2A5
S31500002A8008018C46C4F20803D318624460E7102795
S31500002A90BE1BB340DB4370E7F0B5CE46474680B574
S31500002AA085B0EFF30384103C64B2200000F008FA0E
S31500002AB042F68C53A400C2F20003E458237BA568B7
S31500002AC05BB362682B7B12780C35DBB2012A2BD004
S31500002AD0984663699C46002B30D0A06901AB9946A5
S31500002AE000282ED0190007004CCF4CC143469B0648
S31500002AF001D500230371E3690360E047A36913B1BD
S31500002B004A4613CA13C32B78DBB20F2213402B702D
S31500002B1005B0C0BCB946B046F0BD62682B7A1278E3
S31500002B200835DBB2012AD3D1F4222A70E53A934361
S31500002B3098462B7063699C46002BCED14346DBB288
S31500002B40E3E71800D2E7C0464EF20003262240F221
S31500002B508451C4F20103985C1B6A8000C2F2000132
S31500002B6041585B015B0F42F6A862D940C2F20002EF
S31500002B70116070477047C0464EF2000340F2C542EE
S31500002B8010B5C4F201039A5CD20600D410BD40F21F
S31500002B9080429A5C4AB940F281429B5C9B0723B90A
S31500002BA040F2E830FFF7E6FFF0E74EF2000440F2AD
S31500002BB08043C4F20104E25C52B14EF200030022EB
S31500002BC040F28141C4F201035A5401395A54DDE7F7
S31500002BD00132E2540121C82000F01CF940F2804283
S31500002BE0A35C012BFCD1E8E770B54EF2000640F27B
S31500002BF0FE333D4AC4F20106F2524CF2000343F69C
S31500002C00C8720121C4F27E03995440F2845446F6F8
S31500002C100043C2F20004C0F2DC23236041F2002329
S31500002C20C0F27A03636048F20003A360236142F6B0
S31500002C3000530022C0F2311363612623E260F25C86
S31500002C40336A9200A2585B015B0F42F6A865DA4030
S31500002C50C2F200052A60FFF78FFFA5230622F25471
S31500002C60053BF35CCBB13623F35C1BB93632B35C60
S31500002C70DB07FCD54EF20002A021C4F20102535C30
S31500002C80DB06D80F002BFADB50544EF20002A021CF
S31500002C90C4F20102535CDB06FCD44EF200020021B2
S31500002CA03623C4F20102D1543C31535CDB07FCD518
S31500002CB001213123D1544FF6C473C4F27E03197037
S31500002CC040F2001300211362DA3BD154D15C136A3F
S31500002CD0890061585B015B0FD94040F2FE332960E1
S31500002CE00249D15270BDC04603A5FFFF00A5FFFFF4
S31500002CF04EF2000340F2C54270B5C4F201039B5C7C
S31500002D00DB0600D470BD44F2000428230025C4F27B
S31500002D100404E5540121C82000F07CF82423242271
S31500002D20E554A35C002BFCD10221A35C24200B43B9
S31500002D30A35444F20002C4F20402135C9B07D90FA9
S31500002D40002BFADB2223D15444F200022221C4F2E2
S31500002D500402535C002BFCD14021505C7F330340BE
S31500002D60535444F20002C4F20402535CDB09002B04
S31500002D70FBD14221505C7F330340535444F200029E
S31500002D80C4F20402535CDB09002BFBD14421505CE6
S31500002D907F330340535444F20002C4F20402535CEE
S31500002DA0DB09002BFBD1002000F076F94EF2000380
S31500002DB04C228021C4F201039954002000F042F90C
S31500002DC046F6FC73C4F204031A8AD2070BD4EFF357
S31500002DD01082012181F31088074919820749198257
S31500002DE01B8A82F3108846F2000340F2C0120321C8
S31500002DF0C4F20003995485E780A5FFFF01A5FFFFF4
S31500002E00A123DB04036000207047C0460138002878
S31500002E10FCD1704742F6A8624CF600234143C2F249
S31500002E20000270B51468C3F69A330D00B3FBF4F4D0
S31500002E30080040F2E8320023002100F021FA31B9FF
S31500002E40B0FBF4F0800808B1FFF7E0FF70BDA0000A
S31500002E50B5FBF0F040F2E8320023002100F010FA52
S31500002E600029F0D001204042FFF7D0FFEEE7C04630
S31500002E7046F2000340F2201270B500240126C4F287
S31500002E8000039D5A20329B5A1D402B00E3401E42F0
S31500002E900AD042F65452C2F200029446A30063449A
S31500002EA01B680BB1E0B2984701340D2CEDD146F208
S31500002EB0000340F23012C4F200039D5270BDC046BA
S31500002EC046F20003C0308000C4F20003C258024933
S31500002ED00A40C250C3587047FFFFFEFFF0B5C64612
S31500002EE090464EF20012FF240325CEF200029446CD
S31500002EF0220040F200370540ED008901AA400C404F
S31500002F00AC4083089B006344DE5900B596432643D4
S31500002F10DE5142F68C534246C2F2000380001A503C
S31500002F2080BCB846F0BDC046030046F2000210B5AC
S31500002F30C033C4F200029B0099580B4C21409950B3
S31500002F409B58BFF35F8F1F220123024093404EF22E
S31500002F500012CEF20002944640F280124009800030
S31500002F6060448350036010BDFFFFFEFF1F21012256
S31500002F7001408A404EF2001143092033CEF200018F
S31500002F809B005A50BFF34F8FBFF36F8F7047C046F9
S31500002F90F0B5C64690464EF20012FF240325CEF247
S31500002FA000029446220040F200370540ED008901F8
S31500002FB0AA400C40AC4083089B006344DE5900B530
S31500002FC096432643DE5142F68C5342468100C2F2B6
S31500002FD000035A50030046F20002C033C4F2000256
S31500002FE09B0099580C4C214099509B58BFF35F8F1A
S31500002FF01F220123024093404EF20012CEF200023D
S31500003000944640F280124009800060448350036079
S3150000301080BCB846F0BDC046FFFFFEFF46F200008A
S315000030200023C4F2000044F69442C0F200029A184B
S3150000303012781AB11900C03189000A500133202BC9
S31500003040F1D1704730B5EFF31081012383F3108877
S3150000305042F69C634000C2F200031A5A1AB11A5A89
S31500003060013A92B21A521B5A83B94EF2000244F642
S31500003070A05340F2FE34C4F20102C0F20003155B15
S31500003080185A044B2B4383439BB2135381F3108886
S3150000309030BDC04600A5FFFF70B5EFF310810123D8
S315000030A083F3108842F69C624000C2F20002135A73
S315000030B083B94EF2000444F6A05540F2FE36C4F23F
S315000030C00104C0F20005A35B2D5A2B434AF20055BA
S315000030D02B43A353135A01339BB2135281F3108827
S315000030E070BDC04642F6A462C2F200020300106838
S315000030F010B558B1032103338B4342F6F871C31858
S31500003100C2F200018B4207D8136010BD42F6F87078
S31500003110C2F200001060EDE700F0BAFE0C23036077
S3150000312001204042F1E7C04600BE704710B500F0EE
S3150000313003F8FEF749FBFEE7F0B54EF6005340F202
S315000031400005CEF20003C0F2000583B09D600020AA
S31500003150FEF784F9FFF748FD6B460027DC1D277054
S3150000316001202378FFF798FFEFF31081012686F3FD
S31500003170108846F6FC73C4F204039A683C48024081
S315000031809A609A6881F3108840F60001C4F204013F
S315000031900A68D207D20F22700A68D207D20F2270AD
S315000031A00A68D207D20F2270EFF3108186F31088D7
S315000031B080229868520502439A609B6881F31088C2
S315000031C00120FFF73FFF0120FEF748F940F60053C4
S315000031D0284AC4F200039F8027491A802A6841F2D0
S315000031E0000051189960DA6046F2000240F22011A0
S315000031F0C4F20002505242F6F47240F2A050C2F2FB
S315000032000002C2F200009E800021121A00F016FE93
S3150000321040F2000040F2845244F65C61C2F20000C3
S31500003220C2F20002121AC0F2000100F041FE40F2A2
S315000032307C5540F28053C2F20005C2F200035B1BCC
S315000032409E10002B05DD002408CD01349847A642C8
S31500003250FADCFFF779FCFFF74BFD0220FEF7FEF8DC
S31500003260FFF7DCFE002000F009F803B0F0BDC04611
S31500003270FFFFFFEF00A5FFFF00FCFFFF7047C04602
S31500003280F0B54FF6FF750400CE462C404746154074
S315000032900E002900994680B5130C0700000C614307
S315000032A04543584363430C0C5B19E4188C46A5420E
S315000032B003D980235B0298464044230C61461B18C1
S315000032C04FF6FF700840494656437943240489194E
S315000032D02018C918C0BCB946B046F0BD9E2110B52D
S315000032E0C905041C00F0B8FC18B9201C00F024FC29
S315000032F010BD9E21201CC90500F05AFA00F01CFCE6
S3150000330080231B069C466044F2E7C046F0B546465D
S315000033104F46D646C0B547004502C30F3F0E9846F6
S315000033200E1C6D0A002F56D0FF2F21D0802340F2AD
S31500003330000940F2000AED00DB041D437F3F7300E5
S3150000334074021B0E640AF60F03B3FF2B4AD08022C9
S315000033500020E400D20414437F3B4246FF1A4B464A
S3150000336072400F2B00D9AAE06E499B00CB589F46AE
S31500003370002D59D1730074021B0E40F20809FF2775
S3150000338040F2020A640AF60F002BDED174BB012359
S3150000339042464946724019430E2904D862488900BC
S315000033A041588F464246FF200024C0052043D207DD
S315000033B01043E0BCBA46B146A846F0BD5346022BC0
S315000033C0F0D0032B00D1A2E042462C00012B34D1D1
S315000033D000200024E9E7D5B940F20409002740F2AD
S315000033E0010AACE764B90223FF3FD1E7200000F0F1
S315000033F03DFC431F9C4076235B421B1A0020ACE732
S3150000340003234A461A4391460320FC33A5E72800C6
S3150000341000F02CFC7627431F7F429D4040F20009B6
S3150000342040F2000A3F1A8AE740F20C09FF2740F2F1
S31500003430030A84E703286CD0320038007F30002866
S3150000344025DD630704D00F232340042B00D004346A
S31500003450230103D53800354B80301C40FE28A2DC02
S31500003460A401640AC0B2A0E780240022FF20E4037E
S315000034709BE78023DB031D4201D01C424BD08024F6
S31500003480E4032C4364024246FF20640A8DE70123CD
S315000034901B1A1B2B9CDC21009E37D940BC400B001D
S315000034A0611E8C412343590704D00F21194004297A
S315000034B000D00433590126D50120002475E76D019B
S315000034C06001854213D21B230024013F01262900F7
S315000034D064006D00002901DBA84201D82D1A34438F
S315000034E0013B002BF3D16B1E9D412C43A5E71A230C
S315000034F001242D1AEAE7981E434258414042320001
S315000035000024C0B251E79B0100205C0A4DE7464605
S315000035102C008023DB031C4364023200FF20640A74
S3150000352043E7C046A84D0000E84D0000FFFFFFF747
S31500003530F0B54F464646D646C0B546004502360E5D
S315000035400F1C6D0AC40F002E00D1C4E0FF2E79D0E7
S31500003550802340F2000940F2000AED00DB041D431F
S315000035607F3E7B025B0A98467B001B0EFF0F002BFB
S3150000357078D0FF2B00D195E042468021D200C904C5
S315000035801143884600217F3BF6184B46721C0A2BD6
S3150000359074DC4B467C40022B00DCA6E04846012347
S315000035A0834040F23050184268D140F24020184221
S315000035B000D0ECE0B938FF38184200D0DAE04FF618
S315000035C0FF714746280C43460D4039400F001B0C3F
S315000035D06F4341435D4358436D183B0C5B19994259
S315000035E003D9802149028C4660444FF6FF751904C1
S315000035F03D4049198D016F1EBD411B0C890E1B18DC
S315000036000D439B011D431B0100D4C5E0012369083E
S315000036101D400D4310007F30002800DC93E06B074F
S3150000362004D00F232B40042B00D004352B0103D5E7
S31500003630803210005D4B1D40FE2853DCAB015B0A57
S31500003640C0B226E0002D00D077E07B025B0A9846E8
S315000036507B001B0E40F20809FF2640F2020AFF0F0C
S31500003660002B86D14346002B55D14A4601331A43D7
S3150000367091464B460121721C0A2B8ADD5346022BCA
S3150000368030D0032B00D17BE05346012BC2D1002062
S315000036900023C0051843E4072043E0BCBA46B14600
S315000036A0A846F0BD33004246FF33FAB3032249462B
S315000036B01143721C8946FF320A2973DD0F295DD139
S315000036C08023DB031D425BD042461A4258D13C00A0
S315000036D0FF201343DDE78DB940F20409002640F2CE
S315000036E0010A3EE7FF200023D3E7013B012B00D967
S315000036F065E70229F6D045468A46C5E7280000F068
S31500003700B5FA7626431F76429D4040F2000940F204
S31500003710000A361A25E7404600F0A8FA4246431F3B
S315000037209A40361A90460021763E2EE749460232E6
S31500003730114389461E00022127E740F20C09FF26A5
S3150000374040F2030A0DE701231B1A1B2B9FDC9E3256
S3150000375029009540D9406A1E95410D436B0704D058
S315000037600F232B40042B00D004356B0116D5012006
S3150000377000238EE73C0045468A467FE73C004546E7
S315000037808023DB032B435B02FF205B0A81E7802358
S315000037900024FF20DB037CE732003BE7AB0100207F
S315000037A05B0A76E71E0003217C40F7E6FFFFFFF782
S315000037B0F0B546464F46D64643025B0AC0B59C4620
S315000037C01F00DE004B025A0A904645004A002D0EA5
S315000037D0C40F120EC90F9B09FF2A25D001204140B4
S315000037E0A81A8C420FD0002800DC8AE192BB002B7D
S315000037F000D19CE0421E012800D14FE1FF2800D1F4
S315000038009BE010002CE0002800DC87E1002A00D1B4
S3150000381082E0FF2D00D190E08022D20413431B28C2
S3150000382000DCEAE001363FE02800FF388246002B44
S3150000383054D140F20109484641408C4200D1C4E0CF
S315000038405046002800D187E00C00002D4CD0FF2008
S3150000385000273AE0FF2D00D16FE08022D204134307
S3150000386001221B2807DC2021091A1A008B40C240BE
S31500003870591E8B411A43B61A73016AD5B601B709A8
S31500003880380000F0F3F905388740854200DD7EE018
S3150000389020223B00401B0130121A3E009340C640D6
S315000038A05A1E934100251E43730704D00F2333404D
S315000038B0042B00D0043673013AD5681CFE2DC6D001
S315000038C09B4BC0B233409B015F0AC0053843E407F7
S315000038D02043E0BCBA46B146A846F0BD8C4264D04F
S315000038E0D0B3002D00D0A3E0FF20F6B1471E01287B
S315000038F000D1E1E00C00FF2800D1CDE001211B2F13
S3150000390007DC2020C01B31008640F940701E86412E
S31500003910314315005E1AAFE74BB1421E012800D1B4
S31500003920A0E0FF2809D0100079E70C001E00050072
S31500003930F3089C46FF2D00D09BE06346002B00D188
S3150000394085E780276346FF031F437F02FF207F0A28
S31500003950BBE77307AAD1EBE7FE206A1C10421AD117
S31500003960002D77D1002E00D1AAE00020002BACD08C
S315000039708022F71AD204174200D1BBE001249B1B18
S315000039800C4013429FD06A4A013013409BE7684EB1
S315000039902D1A3E4088E7F71A7A0157D4002F00D037
S315000039A06EE70024002000278FE780B1002D73D139
S315000039B0FF20002EBAD0411E012853D0FF286BD01D
S315000039C01B296EDD15005E1C6EE7514659BBFE21B4
S315000039D06A1C114233D1002D50D1002E00D186E051
S315000039E00020002B00D170E7F318DF087F027F0A62
S315000039F05B0100D469E7012067E72021091A1A0054
S31500003A008B40C240591E8B411343F6187301A0D553
S31500003A100135FF2D00D11AE70123464A33407608C7
S31500003A2016401E4340E7002D00D010E7FF20C0E7F8
S31500003A300C00C44681E7FE216A1C0A42CDD0FF2A4B
S31500003A4000D104E7F618150076082DE701249F1B20
S31500003A500C4015E7E6BB002B45D180270024FF204C
S31500003A60FF0332E7F61802257301D5D4F3089C4606
S31500003A70012563465F027F0AE8B226E766B1002B9E
S31500003A8000D15EE78023DB039C4500D259E79845C9
S31500003A9000D356E7C44654E7C4464EE70125F61A56
S31500003AA0EAE630002025C840691A8E40711E8E4114
S31500003AB006431500F618A9E70C0001259E1BDBE658
S31500003AC0002B00D16DE70124474600200C40FCE6A0
S31500003AD0002B00D135E78023DB039C4500D230E77D
S31500003AE0984500D32DE70124C4460C4029E74746F4
S31500003AF00020EAE617B1BF017F0AE6E600240027A8
S31500003B00E3E6002800D127E7571B3800002D00D137
S31500003B10EBE68020C0040C000643EFE600288AD0BE
S31500003B20511B0DB9080044E78020C004064347E74F
S31500003B30FFFFFFFBFFFFFF7D41024200C30F490A63
S31500003B400020120E7E2A03DD9D2A02DD094A9818FE
S31500003B507047802000040143952A07DC9620821ACC
S31500003B60D1404842002BF3D10800F1E7963A914044
S31500003B70F7E7C046FFFFFF7F70B5040070B100F0A5
S31500003B8075F803009E20C01A96280CDC082B2DD051
S31500003B90083B9C406402640AC0B201E00020002495
S31500003BA0C005204370BD992814DC5A1F944022009A
S31500003BB010490A40650709D00F252C40042C05D072
S31500003BC00432540102D59F200A40C01A9201540AB9
S31500003BD0C0B2E5E71A0021001B3291400A00511ECF
S31500003BE08A410521C91ACC401443E0E764029620B5
S31500003BF0640AD5E7FFFFFFFB844608006146FFE73E
S31500003C001FB500F0BBF8002801D40021C8421FBD33
S31500003C1010B500F049F84042013010BD10B500F073
S31500003C20ADF8002801DB002010BD012010BDC04604
S31500003C3010B500F0A3F8002801DD002010BD01201A
S31500003C4010BDC04610B500F057F8002801DC002072
S31500003C5010BD012010BDC04610B500F04DF800287B
S31500003C6001DA002010BD012010BDC0461C21012331
S31500003C701B04984201D3000C10391B0A984201D349
S31500003C80000A08391B09984201D30009043902A227
S31500003C90105C40187047C04604030202010101018E
S31500003CA0000000000000000070B542004E024C000B
S31500003CB045026D0A120EC30F760A240EC90FFF2A9B
S31500003CC00FD0FF2C0BD00120A24209D1B54207D15B
S31500003CD08B420FD022B92800431E984100E00120F4
S31500003CE070BD0120FF2CFBD13543002DF8D14B4090
S31500003CF01800F5E70020F3E730B5420044024D0214
S31500003D00C30F4800640A120E6D0A000EC90FFF2A7F
S31500003D1012D0FF2807D0B2B938B90DB3002C2AD17A
S31500003D204800013830BD1DBB0AB9002CF8D08B42C3
S31500003D3005D158000138F5E7D4B9FF2813D0012082
S31500003D405B421843EEE70028F9D08B42F7D1824256
S31500003D50F5DCEEDBAC42F2D80020AC42E2D2E8E77A
S31500003D60002CDFD0EBE71DB98B42E8D10020D9E764
S31500003D7002204042D6E78B42ECD0E0E730B5420065
S31500003D8044024D02C30F4800640A120E6D0A000E6B
S31500003D90C90FFF2A12D0FF2806D0AAB930B915B329
S31500003DA044BB480001380EE065B90AB9002CF8D0CA
S31500003DB08B4215D001205B42184304E014B9FF285A
S31500003DC0F8D19DB1022030BD0028F3D08B42F1D14D
S31500003DD08242EFDC04DBAC42ECD80020AC42F2D2EB
S31500003DE058000138EFE7002CEDD0E3E700208B42C6
S31500003DF0E9D0DFE78B42EED0DCE7C0460EB400B573
S31500003E000B499CB01DAB029006900791049109489E
S31500003E10094904CB0591006802A9019300F0B4F9A1
S31500003E200022029B1A701CB008BC03B01847C0469B
S31500003E30FFFFFF7F2C0500200802FFFF030082180A
S31500003E40934200D1704719700133F9E7020010B5AB
S31500003E50137814000132002BFAD1CA5CE254013304
S31500003E60002AFAD110BD0A7830B562B930BD9A423F
S31500003E7008D10123CC5C002CF8D0C55CA54201D149
S31500003E800133F7E701300378002BF0D11800EDE796
S31500003E90014B18687047C0462C05002070477047D4
S31500003EA003000A7801311A700133002AF9D17047EC
S31500003EB0002310B59A4200D110BDCC5CC454013326
S31500003EC0F8E70023C25C0133002AFBD1581E704775
S31500003ED070B505000C0079B1043C2368002B00DAAC
S31500003EE0E418280000F0DEF81C4A13682BB963605A
S31500003EF01460280000F0DEF870BDA34208D92068DF
S31500003F0021188B42F3D119685B6809182160EEE726
S31500003F101A005B680BB1A342FAD911685018A04287
S31500003F200BD120680918501811608342E1D1186836
S31500003F305B68411811605360DBE7A04202D90C238D
S31500003F402B60D6E7206821188B4203D119685B687D
S31500003F500918216063605460CBE7C046F02F00204B
S31500003F6070B50F4E0D003168040011B900F08EFBDC
S31500003F7030602900200000F089FB431C03D1012595
S31500003F806D42280070BD0323C51C9D43A842F8D08E
S31500003F90291A200000F07AFB0130F2D1EFE7C04683
S31500003FA0EC2F0020F7B50322CB1C93430833050002
S31500003FB01F000C2B34D20C27B94233D8384E2800B8
S31500003FC000F070F833681C00002C2FD1390028004F
S31500003FD0FFF7C6FF0400431C5FD134680094009BC2
S31500003FE0002B4AD1002C52D023682800E3180099F0
S31500003FF0019300F04BFB019B834248D123682800C4
S31500004000FF1A3900FFF7ACFF013040D02368DB19F7
S31500004010236033685A68002A33D1009B336019E065
S31500004020002BC9DA0C232B600020FEBD2168C91BBA
S3150000403020D40B290AD9E2192760A34204D13260A1
S3150000404063681160536005E05A60F9E76268A3424D
S315000040500ED13260280000F02DF8200007220B3028
S31500004060231D9043C21A9842DFD01B1AA350DCE7E7
S315000040705A60EFE723006468A6E7009C6368009334
S31500004080ADE71A005B68A342FBD10023DAE70C23F5
S3150000409028002B6000F00EF8C6E70760DAE7C04696
S315000040A0F02F002010B50248FFF7F8FE10BDC046FD
S315000040B0E82F002010B50248FFF7F1FE10BDC046FC
S315000040C0E82F0020F0B58E6885B01F000C000B6845
S315000040D002900392BE4231D80C21625E40F28041CA
S315000040E00A4229D0032021695B1A0193636943437D
S315000040F00198DD0FED187B1C1B186D10AB4200D923
S315000041001D00520529D529000298FFF74BFF06002E
S3150000411000282DD0019A2169FFF7CAFEA289194B02
S315000041201A4080231343A381019B2661F61826605B
S315000041303E006561ED1AA560BE4200D93E00320020
S315000041400399206800F090FA0020A3689B1BA360E7
S3150000415023689B19236005B0F0BD2A00029800F081
S31500004160B0FA06000028DFD121690298FFF7B0FEF9
S315000041700C230120029A40421360A2893433134370
S31500004180A381E8E77FFBFFFFF0B5A1B0039004929F
S315000041901D008B890F001B060FD50B696BB94021DB
S315000041A0FFF700FF3860386128B90C23039A1360C3
S315000041B001204042CFE040237B61002308AC6361CD
S315000041C0203363761033A3760795049E33780BB1BC
S315000041D0252B46D1049BF51A9E420BD02B003900A5
S315000041E0049A0398FFF76EFF013000D1AEE06369D1
S315000041F05B1963613378002B00D1A7E0012200230D
S315000042005242626004A95432521801362360E360B8
S31500004210A3601370A36505223178544800F046FA6E
S31500004220751C00BB2268D30604D5532304A95B186A
S3150000423020211970130704D5532304A95B182B21D9
S31500004240197033782A2B17D03500002140F20A0C5A
S315000042500126E3682A78681C303A092A4ED989B9BA
S3150000426017E00136B2E7414B2268C01A01238340AA
S3150000427013432E002360CEE7079B191D1B68079189
S31500004280002B01DB0B9304E05B42E3600223134344
S3150000429023602B782E2B0CD16B782A2B34D1079BDD
S315000042A002351A1D1B680792002B01DA01235B42B7
S315000042B009932F4E03223000297800F0F7F930B128
S315000042C04023801B834022680135134323602978ED
S315000042D06B1C062227480493217600F0E7F9002894
S315000042E03BD0254B33BB0722079B07339343083349
S315000042F007936369059A9B18636166E761464B43BA
S31500004300050031009B18A5E7002340F20A0C1A00AD
S315000043100126013563602978681C3039092903D9DB
S31500004320002BC6D00992C4E763465A430500330002
S315000043305218F0E707AB00933A0021000F4B0398A1
S3150000434000E000BF0590059B0133D2D1BB890D98D3
S315000043505B0600D52CE721B0F0BD07AB00933A0011
S315000043602100064B039800F079F8EBE7244E000095
S315000043702A4E00002E4E000000000000C54000003E
S31500004380F7B5160001938A680B690C0000909342FA
S3150000439000DA130022003360433212780AB1013387
S315000043A0336023689B0602D5336802333360226884
S315000043B0062315001D401A4227D0230043331B78DD
S315000043C05A1E93412268920630D422000199009821
S315000043D0089D4332A847013025D0062223680025D0
S315000043E01340042B05D13368E568ED1AEB43DB1760
S315000043F01D40A3682269934201DD9B1AED18002631
S31500004400B54220D1002010E00135E36832689B1ADE
S31500004410AB42D2DD2200012301990098089F193290
S31500004420B8470130F0D101204042FEBD3020E118EE
S315000044304331087021005A1C45310978A2184332CD
S3150000444002331170C1E72200012301990098089FE9
S315000044501A32B8470130E6D00136D1E7F0B50E0082
S3150000446089B00492039005930C00097E0E9A433698
S31500004470782907D8622909D8002900D1B7E0582938
S3150000448000D1A0E025004235297022E008006338FB
S315000044901528F7D800F04AF916001F00F6FFF6FFB8
S315000044A0F6FFF6FF1F00F6FFF6FFF6FFF6FF9E008B
S315000044B034004300F6FFF6FFAF00F6FF3400F6FFC8
S315000044C0F6FF4700250013684235191D1B68116069
S315000044D02B7001239CE013682068191D050609D579
S315000044E01B681160002B02DA2D225B4232700A2211
S315000044F05B4832E01B6811604006F3D51BB2F1E75A
S315000045001068256808C82F0602D46D0600D59BB230
S315000045101060082252486F291BD00A2219E0202376
S3150000452021680B43236078214E48230045331970D8
S315000045301568216808CD0F0602D44F0600D59BB238
S315000045401560CA0702D520220A432260002B3CD000
S3150000455010222100002543310D706168A1600029F9
S3150000456008DB40F2040C674625681943BD43256005
S31500004570350061B13500B3FBF2FC61465143591A6F
S31500004580415C013D2970190063468A42F3D9082A25
S3150000459009D12368DB0706D5626823699A4202DCE3
S315000045A03023013D2B70761B2661059B210000936D
S315000045B00398049B07AAFFF7E3FE01302CD10120E4
S315000045C0404209B0F0BD2648AFE7202122688A4361
S315000045D02260BDE713682568181D616910601B68B5
S315000045E02F0601D5196002E06D06FBD51980002360
S315000045F035002361D9E71368191D11601D68002174
S315000046002800626800F052F808B1401B60606368D9
S31500004610236100233370C8E72A00236904990398AD
S31500004620059DA8470130CAD023689B0715D4079B70
S31500004630E0689842C5DA1800C3E72200012304990E
S315000046400398059E1932B0470130B8D00135E368AA
S31500004650079A9B1AAB42F0DCE9E70025F7E7C0466C
S31500004660354E0000464E000010B5884202D98B1820
S31500004670984208D300239A4207D0CC5CC454013335
S31500004680F9E78B5C8354013AFBD210BD002370B569
S31500004690054D040008002B60FEF724FD431C02D1E3
S315000046A02B6803B1236070BDE42F0020C9B28218C5
S315000046B0904201D10020704703788B42FBD0013035
S315000046C0F6E7F7B506000C00150029B91100FFF74B
S315000046D069FC04002000FEBD1AB9FFF7F9FB2C00A7
S315000046E0F8E700F01BF80700854202D84308AB4202
S315000046F0F0D329003000FFF755FC019008B9019C62
S31500004700E8E72A00BD4200D93A0021000198FFF7E8
S31500004710CFFB21003000FFF7DBFBF0E70B1F1B6828
S31500004720181F002B01DA0B58C018704703B47146E6
S31500004730490840004900095E49008E4403BC7047A1
S315000047404275696C7420776974682052656E65736A
S31500004750617320416476616E63656420466C65789A
S3150000476069626C6520536F6674776172652050616B
S31500004770636B6167652076657273696F6E20352E8F
S31500004780382E3000352E382E300000000000080587
S31500004790F8B5C046F8BC08BC9E467047F8B5C0469A
S315000047A0F8BC08BC9E4670475465726D696E616CB4
S315000047B0000000005254540053454747455200003C
S315000047C00D0A207472616E736D69742A2020256447
S315000047D0200D0A000D0A20726573706F6E73652ACC
S315000047E020202564200D0A0041545A0D0A000000BD
S315000047F04F4B00004154450D0A00000041542B5711
S31500004800464D4F44453D310D0A00000041542B579B
S315000048104643433D43480D0A0000000041542B57D0
S31500004820465341503D52656E657361735F576966C5
S31500004830692C332C312C31323334353637382C3120
S315000048402C43480D0A00000041542B524553544155
S3150000485052540D0A00000000444F4E45000000006F
S3150000486041542B4E5749503D312C3139322E313679
S31500004870382E31302E322C3235352E3235352E3219
S3150000488035352E302C3139322E3136382E31302E08
S31500004890310D0A0041542B4E574448533D310D0A01
S315000048A00000000041542B4E574448523D313932E6
S315000048B02E3136382E31302E332C3139322E3136D8
S315000048C0382E31302E31300D0A00000041542B5461
S315000048D05254533D38300D0A0000000041542B5409
S315000048E052534156450D0A005769666920496E695B
S315000048F07469616C697A65204572726F722C2070DA
S315000049006C656173652072657374617274200D0A3B
S31500004910000000005769666920496E697469616C18
S31500004920697A65205375636365737321200D0A00E8
S31500004930576966692073657474696E67204572727B
S315000049406F7221200D0A000057696669207365742D
S3150000495074696E67204F4B2C20706C6561736520FF
S31500004960636F6E6E6563742057692D4669206F729A
S31500004970206F70656E206874747020636C69656E54
S3150000498074200D0A00000000485454502047455436
S315000049902072656365697665642C20757064617440
S315000049A065205375636365737321200D0A0000004B
S315000049B048545450204C4544204F4E207265636540
S315000049C0697665642C20757064617465205375631F
S315000049D06365737321200D0A00000000485454508B
S315000049E0204C4544204F46462072656365697665CE
S315000049F0642C2075706461746520537563636573F8
S31500004A007321200D0A00000048545450204C4544A0
S31500004A1020424C494E4B2072656365697665642C6D
S31500004A2020757064617465205375636365737321C3
S31500004A30200D0A0048545450204F544845525320E4
S31500004A4072656365697665642C207570646174654A
S31500004A50205375636365737321200D0A00000000FF
S31500004A602B54524454533A302C0000002F696E6484
S31500004A7065782E68746D6C00474554002F00000061
S31500004A80626C696E6B3D4F4E00000000626C696E91
S31500004A906B3D4F4646000000626C696E6B3D424CB2
S31500004AA0494E4B001B533025642C0000485454508B
S31500004AB02F312E3120323030200D0A436F6E74654F
S31500004AC06E742D4C656E6774683A2025640D0A4332
S31500004AD06F6E74656E742D547970653A20746578BE
S31500004AE0742F68746D6C0D0A0D0A00FF46090000EC
S31500004AF05E0800005E0800005E0800005E08000018
S31500004B005E0800005E0800005E0800005E08000007
S31500004B105E0800005E0800002C0A0000CA090000BA
S31500004B205E0800005E0800005E0800005E080000E7
S31500004B305E0800005E0800005E0800005E080000D7
S31500004B405E0800005E0800005E080000AA0900007A
S31500004B505E0800005E080000820900005E08000092
S31500004B60640900005E0800005E08000046090000B7
S31500004B70303132333435363738394142434445468D
S31500004B8010130000D813000010130000A813000033
S31500004B90781300005413000038130000842C002002
S31500004BA0784C0000244D00008C2C0020B44B0000F3
S31500004BB0584D00000A022A000301000009140000F3
S31500004BC000000000000000009C2C0020D44B0000D8
S31500004BD0D84C00000002000002000201020202039B
S31500004BE00000000000000000191200000000000094
S31500004BF0F44B000000010000280500200F00FFFF15
S31500004C0000000000FFFF0000CC2C0020144C000028
S31500004C106C4D0000000000002000000000000000B5
S31500004C2010000000000233002D12000000000000FA
S31500004C30344C00004000000100000001EC2C002074
S31500004C40484C0000FC4C000009000000A086010052
S31500004C50440000000102DF0506000000000000001D
S31500004C60000000003915000000000000704C000034
S31500004C70010600EE0801FFFF02000000844C000060
S31500004C8000000000040000000B010000040000000A
S31500004C900404000012100F0F001C1E00000000008C
S31500004CA000000000000000000000000000000000FE
S31500004CB000000000000000000000000000000000EE
S31500004CC000000000000000000000000000000000DE
S31500004CD0000000000000000059190000D517000070
S31500004CE0DD1700002918000069180000751800007B
S31500004CF01D180000F91800009D1800008D1D000009
S31500004D00611E0000E91E0000E91C00000D1D0000E8
S31500004D10151D0000211D0000391D000002040304BA
S31500004D200404FFFF35240000692100004D24000023
S31500004D3059240000312200007D220000712100006C
S31500004D40CD210000F5210000192200005D2200009F
S31500004D5095210000AD2100000D2500008D250000E5
S31500004D609D25000005250000AD250000192900003D
S31500004D705927000039260000B527000061260000EB
S31500004D8085260000E5270000992600009D260000E4
S31500004D902D280000A1260000D9260000E5260000E7
S31500004DA00100020008001000BE340000A633000017
S31500004DB0D033000034340000D033000068340000E3
S31500004DC0D033000034340000A6330000A6330000C0
S31500004DD06834000034340000BC330000BC330000EB
S31500004DE0BC33000072340000A6330000A633000076
S31500004DF0D0330000F6340000D033000068340000E1
S31500004E00D0330000F6340000A6330000A6330000BD
S31500004E1068340000F6340000BC330000BC330000E8
S31500004E20BC330000232D302B2000686C4C006566D7
S31500004E3067454647003031323334353637383941E5
S31500004E4042434445460030313233343536373839FB
S31100004E5061626364656600FF00000000FC
S31500004E5CE8470000F047000040000A00F40100009B
S31500004E6CF4470000F047000020000500C8000000D1
S31500004E7CFC470000F047000020000500C8000000B9
S31500004E8C0C480000F047000020000500C800000098
S31500004E9C1C480000F047000080000500C800000018
S31500004EAC484800005848000080000500E803000050
S31500004EBC60480000F047000040000500E8030000D1
S31500004ECC94480000F047000040000500C8000000B0
S31500004EDCA4480000F047000040000500C800000090
S31500004EECCC480000F047000040000500C800000058
S31500004EFCDC480000F047000020000500C800000058
S31500004F0C3C68746D6C3E3C686561643E3C746974C7
S31500004F1C6C653E2048545450205365727665723C3D
S31500004F2C2F7469746C653E3C2F686561643E3C6207
S31500004F3C6F6479206267636F6C6F723D2223303029
S31500004F4C3830464622203E3C666F6E7420636F6C8A
S31500004F5C6F723D22476F6C64223E3C62723E0D0AB4
S31500004F6C3C62723E0D0A3C62723E0D0A3C48312090
S31500004F7C414C49474E3D2263656E746572223E3C38
S31500004F8C6D65746120687474702D65717569763DF4
S31500004F9C22726566726573682220636F6E74656E25
S31500004FAC743D2233223E202052656E657361732058
S31500004FBC456C656374726F6E696373203C2F483160
S31500004FCC3E0D0A3C483120414C49474E3D22636513
S31500004FDC6E746572223E202057692D466920444125
S31500004FEC3136787878204170706C69636174696FBA
S31500004FFC6E2044656D6F203C2F48313E0D0A3C7483
S3150000500C61626C6520414C49474E3D2263656E7466
S3150000501C6572222077696474683D22313030223EF5
S3150000502C0D0A3C74723E3C483120414C49474E3D7A
S3150000503C2263656E746572223E203C74643E205475
S3150000504C656D7065726174757265203C2F74643E73
S3150000505C3C74643E3C696E70757420747970653D61
S3150000506C746578742076616C75653D2225303264E2
S3150000507C2220726561646F6E6C793D227265616483
S3150000508C6F6E6C7922207374796C653D2274657829
S3150000509C742D616C69676E3A63656E746572223E37
S315000050AC3C2F74643E0D0A3C74643E2043203C2F16
S315000050BC74643E3C2F48313E0D0A3C2F74723E3CC4
S315000050CC74723E3C483120414C49474E3D22636543
S315000050DC6E746572223E203C74643E2048756D6980
S315000050EC64697479203C2F74643E3C74643E3C695C
S315000050FC6E70757420747970653D7465787420765D
S3150000510C616C75653D222532642220726561646F7F
S3150000511C6E6C793D22726561646F6E6C79222073B8
S3150000512C74796C653D22746578742D616C69676E53
S3150000513C3A63656E746572223E3C2F74643E0D0AAA
S3150000514C3C74643E2026233337203C2F74643E3C4B
S3150000515C2F48313E0D0A3C2F74723E3C74723E3C15
S3150000516C483120414C49474E3D2263656E74657249
S3150000517C223E203C74643E20427574746F6E20503F
S3150000518C757368656420436F756E74203C2F746468
S3150000519C3E3C74643E3C696E70757420747970651F
S315000051AC3D746578742076616C75653D2225326494
S315000051BC2220726561646F6E6C793D227265616442
S315000051CC6F6E6C7922207374796C653D22746578E8
S315000051DC742D616C69676E3A63656E746572223EF6
S315000051EC3C2F74643E0D0A3C2F48313E0D0A3C2F71
S315000051FC74723E3C2F7461626C653E0D0A3C6272A1
S3150000520C3E0D0A3C666F6E7420636F6C6F723D22A6
S3150000521C4F72616E6765223E3C666F726D20414C23
S3150000522C49474E3D2263656E74657222206D657426
S3150000523C686F643D22504F53542220616374696F2A
S3150000524C6E3D22696E6465782E68746D6C223E0D17
S3150000525C0A3C483220414C49474E3D2263656E74E8
S3150000526C6572223E20204C45442020434F4E54521A
S3150000527C4F4C203C62723E3C696E7075742074799A
S3150000528C70653D7375626D6974206E616D653D2246
S3150000529C626C696E6B222076616C75653D224F4E91
S315000052AC223E200920203C696E707574207479703A
S315000052BC653D7375626D6974206E616D653D226224
S315000052CC6C696E6B222076616C75653D224F464685
S315000052DC223E203C696E70757420747970653D733E
S315000052EC75626D6974206E616D653D22626C696EC6
S315000052FC6B222076616C75653D22424C494E4B22E1
S3150000530C3E200D0A200D0A3C2F48323E0D0A3C2F3A
S3150000531C666F726D3E0D0A0D0A3C483120414C49B0
S3150000532C474E3D2263656E746572223E2020506F97
S3150000533C77657265642042792052656E6573617378
S3150000534C2041524D204D435520536572696573209B
S3150000535C3C2F48313E0D0A3C62723E3C62723E0D59
S3150000536C0A3C2F666F6E743E3C2F626F64793E3C2E
S3150000537C2F68746D6C3E000044000AD8300500207E
S3150000538C00000000AC2E0020142F00207C2F0020E3
S3150000539C00000000000000000000000000000000FB
S315000053AC00000000000000000000000000000000EB
S315000053BC00000000000000000000000000000000DB
S315000053CC000000000000000000000000BD0400000A
S309000053DC8D04000036
S31501010018FFFFFFFFFFFFFFFFFFFFFFFFFFFFFFFFE0
S31101010028FFFFFFFFFFFFFFFFFFFFFFFFD0
S7050000312D9C
