S01A000052656E657361735F52413241325F44656D6F2E73726563BE
S31500000000D83200200D320000512F000009320000C6
S3150000001009320000093200000932000009320000EE
S31500000020000000000000000000000000093200008F
S315000000300932000000000000093200000932000009
S31500000040A51C00000000000000000000651D000067
S3150000005000000000312000004521000000000000E3
S3150000006000000000251C0000311D000000000000FB
S31500000070000000000000000000000000000000007A
S31500000080000000000000000000000000000000006A
S31500000090000000000000000000000000000000005A
S315000000A0000000000000000000000000000000004A
S315000000B0000000000000000000000000000000003A
S315000000C0000000000000000000000000000000002A
S315000000D0000000000000000000000000000000001A
S315000000E00000000000000000A9260000000000003B
S315000000F000000000000000000000000000000000FA
S31500000100000000000000000000000000752B000049
S3150000011000000000000000000000000000000000D9
S3150000012000000000000000000000000000000000C9
S3150000013000000000000000000000000000000000B9
S3150000014000000000000000000000000000000000A9
S31500000400FFFFFFFFDFCEFFFFFCFF0F00FFFF0F0028
S31500000410FCFF0F00FFFF0F00FCFF0F00FFFF0F00A8
S31500000420FCFF0F20FFFF0F20FCFF7F40FFFF7F40F8
S31500000430FCFF0D40FFFF0D40FFFFFFFFFFFFFFFF2B
S31500000440FFFFFFFFFFFFFFFFFFFFFFFFFFFFFFFFB6
S31500000450FFFFFFFFFFFFFFFFFFFFFFFFFFFFFFFFA6
S31500000460FFFFFFFFFFFFFFFFFFFFFFFFFFFFFFFF96
S31500000470FFFFFFFFFFFFFFFFFFFFFFFFFFFFFFFF86
S31500000480FFFFFFFFFFFFFFFFFFFFFFFFFFFFFFFF76
S31500000490FFFFFFFFFFFFFFFFFFFFFFFFFFFFFFFF66
S315000004A0FFFFFFFFFFFFFFFFFFFFFFFFFFFFFFFF56
S315000004B0FFFFFFFFFFFFFFFFFFFFFFFFFFFFFFFF46
S315000004C0FFFFFFFFFFFFFFFFFFFFFFFFFFFFFFFF36
S315000004D0FFFFFFFFFFFFFFFFFFFFFFFFFFFFFFFF26
S315000004E0FFFFFFFFFFFFFFFFFFFFFFFFFFFFFFFF16
S315000004F0FFFFFFFFFFFFFFFFFFFFFFFFFFFFFFFF06
S3150000050010B540F2B054C2F20004237863B940F249
S315000005100003C0F200032BB145F2B400C0F20000A4
S3150000052000E000BF0123237010BDC04640F2000367
S31500000530C0F2000310B54BB140F2B45145F2B4001D
S31500000540C2F20001C0F2000000E000BF10BDC046CC
S31500000550F8B58368C568CE4699465B1B47469846FC
S315000005604368040080B50E0017005819904509D954
S3150000057003F09CFCBFF35F8FED19E5600CBC904661
S315000005809946F8BD424603F091FC4B463100ED1901
S31500000590ED1A2A006068414403F088FCBFF35F8FC0
S315000005A0E560EBE7F8B54746CE46884680B51600C7
S315000005B0070040F20009C56884681CE0013B5B1B2C
S315000005C0641BB44200D934009C4200D91C007B68ED
S315000005D022004146581903F069FC2D19A144A04494
S315000005E0361BBC68631B5A1E93415B421D40BFF31A
S315000005F05F8FFD6036B13B699D42DFD3013B1B191E
S315000006005B1BDDE748460CBC90469946F8BDC046E4
S3150000061010B542F610440323C2F20004236144F2EB
S31500000620CC72636140F2DC53C0F20002C2F20003F6
S31500000630A261E36140F2004323620023A362636286
S31500000640E362226640F2CC52C2F20002626644F2D3
S31500000650D8711022E01DA266C0F200010C3A236791
S31500000660E366636703F022FCBFF35F8F44F2DC733B
S31500000670C0F200031A6822609B88A380BFF35F8FD5
S315000006802023A371BFF35F8F10BDC046431C70B516
S3150000069004005800C01842F61043C2F200039C46FC
S315000006A063001B19DB006344DC6AC000150060446C
S315000006B0012C05D0022C1ED084B10024200070BD70
S315000006C09A6A5C6AA2421FD9013A121B2C00954213
S315000006D000D914002200FFF73BFFEFE79A6A5E6A33
S315000006E0B2420CD9013A921B9542E7D82A00FFF78D
S315000006F02FFF2C00E2E7FFF755FF0400DEE71B6A39
S31500000700D218013A921BEFE71B6AD218013A121B64
S31500000710DCE7C046F8B542F61043C2F200031B7888
S3150000072004000D00160063B1EFF31087012181F379
S315000007301088320029002000FFF7A8FF87F31088F1
S31500000740F8BDFFF765FFEFE710B504008368626840
S31500000750581C904207D82268D154E3686268013376
S31500000760E3600300A0609A4200D010BD21682069B2
S31500000770FFF7D0FFA368984203D001235B42E360F2
S31500000780F3E70023A360F0E7F8B557464E46454623
S31500000790DE46E0B51E000A9B0F00814615009A460C
S315000007A00B99974200D26FE03B000122B3FBF5F3B1
S315000007B001329D42FAD99046B24200D2B046012398
S315000007C01A000A4093460B4240D15346002B3DD0B7
S315000007D020248B0751D4D04538D201235B429C4656
S315000007E021004846E244FFF7AFFF4B46DB68002B8B
S315000007F026DB5346002BEED10124012E03D9013E00
S315000008006C43012EFBD8B7FBF4F39D42F8D944F6AE
S315000008106806C0F2000606E0B4FBF5F3AC420DD361
S315000008201C00B7FBF3F322005A43F1564846BF1AA1
S31500000830FFF78AFF4B46DB68002BEDDA5B46C3B950
S315000008403CBC90469946A246AB46F8BD4B46DB6893
S31500000850002BD1DAF4E7D045F2D201235B429C4665
S3150000086020214846E244FFF76FFF4B46DB68002B2A
S31500000870E6DB5346002BEED1E2E774427441634255
S3150000088010241C402034A6E7012294E7F0B5574611
S31500000890DE464E464546E0B59DB00CAB0793402379
S315000008A00893002383460C00914640F2010AB94F93
S315000008B009930B900A9305E007A8FFF745FF0A98EE
S315000008C0002861DB002161560134002963D0252907
S315000008D0F2D122000023D356002602250820140058
S315000008E021392D2B0DD02D2B0FDC232B12D02B2BAA
S315000008F000D059E10E4301320023D35614002D2BAC
S31500000900F1D1534601321E43F6E7302B05D12E4373
S315000009100132F1E706430132EEE71A00303AD2B26D
S315000009200025092A0FD81900AB005B195B005B187C
S31500000930002101346156303B0A00303AD2B21D0024
S31500000940092AF1D90B002E2B00D1D4E0002340F266
S315000009500008E356042102E000230134E3561A009E
S315000009608A43682AF8D0252B06D0583BDBB2202BC9
S3150000097006D89B00FB589F46252107A8FFF7E4FEF3
S315000009800A98013400289DDA1DB03CBC9046994671
S31500000990A246AB46F0BD0A980028F5DD099A002A62
S315000009A000D0C7E08018EFE74B4649461B6807A80A
S315000009B01A1D0A6019680A22434601960095FFF738
S315000009C0E3FE01340A98DDE74B4649461B681A1DCB
S315000009D00A601D6805E007A8FFF7B6FE0A9800281A
S315000009E0CFDB0021695601350029F4D10A98C8E702
S315000009F04B4649461B6807A81A1D0A60196800235A
S31500000A000193083310220093FFF7BEFE01340A98C3
S31500000A10B8E74B4649461B681A1D1B680A60DA1779
S31500000A2003939B1853400122092B06DD0A20190067
S31500000A30013293FBF0F36329F9DC434604939045B6
S31500000A4000D27FE0002D51D0039B002B00DA7DE021
S31500000A5073077BD4B30702D54346002B46D05346D3
S31500000A60334243D1002D41D00596049EAE423CD27E
S31500000A7007A82021FFF768FE0A98013D002800DA42
S31500000A807FE7002DF2D1059E039B002B60DB7307E9
S31500000A9069D403233340022B6AD007A843460A22AF
S31500000AA0039901960095FFF76FFE01340A9869E7EE
S31500000AB04B4649461B6807A81A1D0A60002159566D
S31500000AC0FFF742FE01340A985CE74B4649461B682D
S31500000AD007A81A1D0A601968102243460196009558
S31500000AE0FFF752FE01340A984CE7059E0A98002843
S31500000AF0CADA013446E70123E356611C1A00303A8C
S31500000B00D2B20C0040F20008092A00D922E71900E7
S31500000B10404683001B185B005B18002101346156B8
S31500000B20303B0A00303AD2B21800092AF1D90B003C
S31500000B3080460FE758460CA9FFF7ECFD0A98099A7C
S31500000B40801821E70492002DD0D07DE7013D81E792
S31500000B505B422D2107A80393FFF7F6FD0A980028AC
S31500000B6097DA01340EE72B2107A8FFF7EDFDF5E72D
S31500000B704346002B91D1ADB1049BAB420CD207A8E2
S31500000B803021FFF7E1FD0A98013D0028F3DA013430
S31500000B90F8E6C046E44700000A98002800DB7CE738
S31500000BA00134EFE6002578E70025CFE60EB400B560
S31500000BB082B003AB02CB01AA0193FFF767FE02B036
S31500000BC008BC03B01847C04610B503F0BDF9431E74
S31500000BD09841C0B210BDC046F0B557464E46454690
S31500000BE0DE46E0B50B8840F6E01785B0019300239A
S31500000BF0C2F200073B8044F6B053C0F200039046B1
S31500000C009A681B6840F6DE1506009246994600244F
S31500000C1040F2000BC2F2000502ABD91D5346012279
S31500000C205B68484698472B7853B15B462B7002ABFE
S31500000C30DB7901343370019BA4B20136A3420AD991
S31500000C403B884345E8D3142005B03CBC9046994602
S31500000C50A246AB46F0BD0020F6E7C046F0B5CE464C
S31500000C60474680B58DB002AB9D1D00231C22002196
S31500000C7005A82B80049303F022F944F6B053C0F282
S31500000C8000039A6840F20004904600264FF6FF796A
S31500000C901B68C2F2000401932769380003F04DF97E
S31500000CA04A464346024039009B6801989847238B81
S31500000CB02022002104A82B8003F001F940F2F4124F
S31500000CC0290004A8FFF788FF68B114280BD040F26A
S31500000CD0E831A08B02F00EF90136A37EF6B2B342DC
S31500000CE0DAD8012006E0616904A803F02DF900288E
S31500000CF0EDD000200DB00CBC90469946F0BDC04624
S31500000D00F0B5C64644F67C5300B5C0F200031A6837
S31500000D109C685B6894B019001000019323680092E8
S31500000D20984763680098984744F6B053C0F20003AA
S31500000D301A689E685B681000190001933368009278
S31500000D409847002302AAD38000213C2240F20004E7
S31500000D5005A80493002503F0B2F84FF6FF77C2F218
S31500000D60000423681800984603F0E7F8020041469D
S31500000D70B3683A4000989847238902AAD380002195
S31500000D80402204A803F09BF802AB6422991D04A834
S31500000D90FFF722FF68B114280BD040F2E831A08992
S31500000DA002F0A8F80135A37AEDB2AB42D9D80120FA
S31500000DB007E0616804A803F0C7F80028EDD0FFF744
S31500000DC04DFF14B004BC9046F0BDC046F0B5454694
S31500000DD057464E46DE46E0B5A3B06B469D1D002342
S31500000DE01C22002103A82B80029303F068F844F626
S31500000DF0B05340F2000440F200084FF6FF7A40F28A
S31500000E002A09C0F200039F681E68C2F20004236A22
S31500000E1018009B4603F091F8524659460240BB68BB
S31500000E2030009847238D2022002102A82B8003F052
S31500000E3046F840F2F412290002A8FFF7CDFEC0B131
S31500000E40142816D040F2E831A08D02F053F843463C
S31500000E500133DBB298464B46E35C4345D7D840F2B4
S31500000E600108404623B03CBC90469946A246AB4694
S31500000E70F0BD616A02A803F067F80028E2D00023FB
S31500000E801C22002103A82B80029340F2000803F0E5
S31500000E9016F84FF6FF7940F23A0A236B18009B4684
S31500000EA003F04BF84A4659460240BB683000984763
S31500000EB0238F2022002102A82B8003F000F840F2A5
S31500000EC0F412290002A8FFF787FE78B114280DD086
S31500000ED040F2E831A08F02F00DF843460133DBB251
S31500000EE098465346E35C4345D7D8B8E7616B02A8FA
S31500000EF003F02AF80028EBD000237C22002103A867
S31500000F002B80029340F2000802F0D9FF4FF6FF7BD8
S31500000F1040F2480A236C1800994603F00EF85A4628
S31500000F2049460240BB68300098475346E35A802240
S31500000F30002102A82B8002F0C2FF40F6B832290039
S31500000F4002A8FFF749FE80B114280ED04C2340F2C8
S31500000F50E831E05A01F0CEFF43460133DBB2984652
S31500000F604A23E35C4345D5D879E7616C02A802F0D1
S31500000F70EBFF0028EAD000237C22002103A82B8067
S31500000F80029340F2000802F09AFF4FF6FF7B40F210
S31500000F90580A236D1800994602F0CFFF5A46494673
S31500000FA00240BB68300098475346E35A802200212E
S31500000FB002A82B8002F083FF41F64072290002A8A6
S31500000FC0FFF70AFE002842D1616D02A802F0BCFFBD
S31500000FD000283ED0FFF742FE8046002800D040E7BA
S31500000FE043463C22002103A82B80029340F20009CD
S31500000FF002F065FF4FF6FF7B236E18009A4602F05B
S315000010009CFF5A4651460240BB6830009847682309
S31500001010E35A4022002102A82B8002F050FF40F63E
S31500001020B832290002A8FFF7D7FD08B314281FD04D
S315000010306C2340F2E831E05A01F05CFF4B46013385
S31500001040DBB299466A23E35C4B45D5D807E71428FB
S31500001050BAD05C2340F2E831E05A01F04BFF434638
S315000010600133DBB298465A23E35C434591D8F6E652
S31500001070616E02A802F068FF0028D9D000233C2246
S31500001080002103A82B80029340F2000902F017FF0B
S315000010904FF6FF7B236F18009A4602F04EFF5A4622
S315000010A051460240BB68300098477823E35A4022F5
S315000010B0002102A82B8002F002FF40F2F412290060
S315000010C002A8FFF789FD80B114280ED07C2340F2D8
S315000010D0E831E05A01F00EFF4B460133DBB2994688
S315000010E07A23E35C4B45D5D8B9E6616F02A802F0D6
S315000010F02BFF0028EAD000233C22002103A82B80E6
S31500001100029340F2000902F0DAFE40F2800B5B46E1
S31500001110E35818009A4602F010FF4FF6FF72514648
S315000011200240BB68300098478823E35A40220021DA
S3150000113002A82B8002F0C3FE40F2D072290002A85A
S31500001140FFF74AFD80B114280ED08C2340F2E83117
S31500001150E05A01F0CFFE4B460133DBB299468A23B3
S31500001160E35C4B45D3D87AE6842302A8E15802F023
S31500001170EBFE0028E9D000233C22002103A82B80A7
S31500001180029340F2000902F09AFE40F2900B5B4691
S31500001190E35818009A4602F0D0FE4FF6FF72514609
S315000011A00240BB68300098479823E35A402200214A
S315000011B002A82B8002F083FE40F2F412290002A856
S315000011C0FFF70AFD80B114280ED09C2340F2E831C7
S315000011D0E05A01F08FFE4B460133DBB299469A2363
S315000011E0E35C4B45D3D83AE6942302A8E15802F0D3
S315000011F0ABFE0028E9D000231C22002103A82B8087
S31500001200029340F2000A02F05AFE40F2A00B5B463F
S31500001210E3581800994602F090FE4FF6FF724946D1
S315000012200240BB6830009847A823E35A20220021D9
S3150000123002A82B8002F043FE40F22C12290002A8DD
S31500001240FFF7CAFC80B114280ED0AC2340F2E83177
S31500001250E05A01F04FFE53460133DBB29A46AA2309
S31500001260E35C5345D3D8FAE5A42302A8E15802F07B
S315000012706BFE002800D0F4E5E7E7C04644F6B0531D
S3150000128010B50400C0F2000318689B680A009B684A
S315000012902100984710BDC0460379012B04D140F6C2
S315000012A0DE12C2F2000213707047C04640F6E01329
S315000012B0C2F200031A8800B501321A8042F6B8431A
S315000012C0C2F200039A7A83B002B340F2E7319A89F8
S315000012D0013292B29A818A4218D940F6DC11C2F2E2
S315000012E000010A88013292B20A8000219981D3074F
S315000012F00ED544F63453C0F200031A689B68019277
S3150000130040F20F410122DB690198984703B000BD06
S3150000131044F63453C0F200031A689B68019240F207
S315000013200F410022DB6901989847EFE770B582B05C
S3150000133000F030F944F61453C0F200031A689C68B2
S315000013405B68100019000193236800929847636850
S31500001350009842F6B84498470023C2F200040022DF
S31500001360636023600023A2722381A381FFF7C8FC78
S3150000137038B144F678110020C0F20001FFF716FCE0
S31500001380FEE744F6A4110020C0F20001FFF70EFCB0
S31500001390FFF71CFD002800D081E044F6D81144F682
S315000013A034560020C0F20001FFF700FC404DC0F2A9
S315000013B0000640F6E41040F2F4120021C2F20000EA
S315000013C002F07DFD40F6E410C2F2000000F066F97E
S315000013D00628EED880002B589F4640F6E410C2F24D
S315000013E0000000F025FA44F6C4210020C0F20001F6
S315000013F0FFF7DCFBDDE7012340F6E410A3720023D0
S31500001400C2F20000A38100F013FA44F698210020EE
S31500001410C0F20001FFF7CAFBCBE70023A372A3814A
S31500001420336800220093B36840F20F41DB690098ED
S31500001430984740F6E410C2F2000000F0F9F944F6CD
S315000014406C210020C0F20001FFF7B0FBB1E70023DA
S31500001450A372A381336801220093B36840F20F415F
S31500001460DB690098984740F6E410C2F2000000F0ED
S31500001470DFF944F640210020C0F20001FFF796FB99
S3150000148097E740F6E410C2F2000000F0D1F944F606
S3150000149018210020C0F20001FFF788FB89E744F617
S315000014A0C0110020C0F20001FFF780FB75E7C046BF
S315000014B0F04A000010B540F2E83184B00A2001F08D
S315000014C019FD02ABDC1D44F63453C0F200031A6862
S315000014D09B6801929B692200052101989847237811
S315000014E033B942F6B843C2F200031A8901321A81AF
S315000014F004B010BD10B544F60C34002382B0C0F21F
S31500001500000401A8019301F0EBFC21000020FFF785
S315000015104DFB44F654310020C0F20001FFF746FBB4
S3150000152044F6B03244F6B431C0F20002C0F2000113
S315000015300020FFF73BFB44F6F8310020C0F2000123
S31500001540FFF734FB21000020FFF730FB44F644414F
S315000015500020C0F20001FFF729FBFFF7E7FE02B00B
S3150000156010BDC04610B538B94CF2000390220121D7
S31500001570C4F27E03995410BD0228FCD144F6F05102
S3150000158042F6C840C0F20001C2F2000000F0B8FF07
S31500001590F1E7C04644F6405310B5C0F200030BCB4A
S315000015A01B68984710BDC04644F64053F0B540F658
S315000015B0D834C646C0F200031E689F68C2F2000413
S315000015C000B58046BD680023002221003000A847F0
S315000015D040F2E831322001F08DFC04222100300077
S315000015E07F680023B847A378E0781B02C0188008FC
S315000015F002F012FB4FF60041C4F27F6101F0F6FEE5
S315000016000021C4F2253101F0FDFF0021C4F22021A2
S3150000161002F018F943461860237860781B02C01858
S3150000162002F0FAFA4FF60041C4F27F6101F0DEFEE5
S315000016300021C4F2C82101F0E5FF4346586004BC0E
S315000016409046F0BD7047C04610B544F68841040088
S3150000165041F2DC30C0F20001C2F2000002F074FC7C
S31500001660D0B1220009301E3202E00130944213D07C
S315000016700023C356237001342C2BF6D10123C35605
S31500001680421C2C2B06D0237000230132D356013482
S315000016902C2BF8D12C23237010BDC04630B583B057
S315000016A06B46040041F2DC309D1D40F6000340F617
S315000016B000020021C2F200002B8002F000FC41F281
S315000016C0DC30290040F22C12C2F20000FFF784FA47
S315000016D044F6944141F2DC30C0F20001C2F200004F
S315000016E0FFF772FA50B944F6A44141F2DC30C0F279
S315000016F00001C2F20000FFF767FA98B344F6A04172
S3150000170041F2DC30C0F20001C2F20000FFF75CFAE1
S3150000171058B144F6A84141F2DC30C0F20001C2F2F1
S315000017200000FFF751FA00283BD044F6A84141F2E9
S31500001730DC30C0F20001C2F20000FFF745FAA0B9A2
S3150000174044F6B44141F2DC30C0F20001C2F20000BE
S31500001750FFF73AFA88B12000FFF776FF23780420D6
S31500001760312B00D0072003B030BD2000FFF76CFFFF
S3150000177023780320312BF5D1F5E744F6C04141F239
S31500001780DC30C0F20001C2F20000FFF71DFA0028AB
S31500001790E8D02000FFF758FF2378312BE2D105204F
S315000017A0E1E744F6B44141F2DC30C0F20001C2F296
S315000017B00000FFF709FA0028B7D144F6C04141F20C
S315000017C0DC30C0F20001C2F20000FFF7FDF900288C
S315000017D0ABD12000FFF738FF0120C4E7F8B540F68B
S315000017E0DC34C2F2000406000D001700002140F6AA
S315000017F00002200002F063FB44F6CC413A002000D0
S31500001800C0F2000102F064FB3100200002F080FB10
S31500001810200002F092FBA4462900604402F085FBFA
S31500001820200002F08AFB81B22000FFF727FDF8BDF9
S31500001830F0B542F2DC3442F6B845C2F2000483B099
S3150000184040F600020021C2F200050700200002F067
S3150000185036FB2800FFF7A8FE686801F0AFFD86B2E8
S31500001860286801F0ABFD40F2B0012B8982B2C2F2CA
S31500001870000100932000330002F02AFB41F6DC361B
S31500001880200002F05AFB44F6D441C2F200060200E0
S315000018900500C0F20001300002F01AFB300002F031
S315000018A04CFB310082B23800FFF798FF40F2E83176
S315000018B0322001F01FFB21003800AAB2FFF78EFF8D
S315000018C040F2E831C82001F015FB03B0F0BDC04678
S315000018D010B5FFF70FFE002010BDC04641618261C2
S315000018E0002070477B2330B5046AA5782B40A3708F
S315000018F083789B079B0FD21A02618022CB18C360A4
S31500001900A3781343A370032382781340022B03D0DA
S315000019100B78E370002030BD4FF600620B8813434E
S31500001920E381F7E74162C262836200207047C046E6
S315000019300B2230B57B24036A9D782A409A700022D8
S315000019402C400325C2608A7848785A701A78284055
S31500001950AA4302431A70CA7859359A74D8790A7814
S31500001960A8432A400243DA7100209C7030BDC0466D
S3150000197001235B4200204B600B607047030010B5EB
S3150000198006208A0707D57B22186A8478224082704F
S31500001990002200201A61CA0702D5002200209A619F
S315000019A010BDC04683690B60002383610020704729
S315000019B0F0B5C64600B50500806A84B08C469046F0
S315000019C06C46D8B12300060086CE86C336681E60F4
S315000019D0EB691B7803606346836043460371EB6AD9
S315000019E0C3606B6A9847AB6A23B107CC07C31A007A
S315000019F02368136004B004BC9046F0BD2000E7E7FE
S31500001A000023026A10B5040043609370C369052081
S31500001A10185601F01BFB0B20E369185601F016FB64
S31500001A200720E369185601F011FB0920E3691856EF
S31500001A3001F00CFBEFF31081012383F31088E369B7
S31500001A4046F6FC721C7880231B06E340C4F20402AF
S31500001A50506803435360536881F31088002010BD1B
S31500001A6070B514000D000600100001F0EFFA20001A
S31500001A7001F096FA32002900200001F09FFA70BDAD
S31500001A8043F60002C0F200229446F8B50B780D002A
S31500001A9063445B010362002303704A69C1614262C9
S31500001AA08A690121C2620322836283780400934318
S31500001AB00B4383706B7823B98378934302221343D5
S31500001AC083700B222000AA56A97AFFF7C9FF0522C8
S31500001AD02000AA562979FFF7C3FF07222000AA563D
S31500001AE0A979FFF7BDFF09222000AA56297AFFF738
S31500001AF0B7FFEFF31086012181F31088802046F6A8
S31500001B00FC732F780006F840C4F204035A68824337
S31500001B105A605B6886F310880022236A40F20F2021
S31500001B209A701A715A729A72DA725A832A789140A6
S31500001B30084201D04021D974062119770AB9384ADA
S31500001B409A82AA78E9781201C9000A4369780329BA
S31500001B5062D0481E8141102049420140E231D2B292
S31500001B601A700222ED699971297BFF2749000A4004
S31500001B7020215A736A78A878D201400101403A4080
S31500001B800A4300212E781972B11E01293CD9032778
S31500001B906968D2B2DA718A7848785A701A78384009
S31500001BA0BA4302431A70CA7859379A74D8790A78B0
S31500001BB0B8433A400243DA7100230520E36023610B
S31500001BC06361A361E369185601F01EFA0B20E3690D
S31500001BD0185601F019FA0720E369185601F014FAAD
S31500001BE00920E369185601F00FFA032370223340E7
S31500001BF01343226A002093706B89238144F65513A0
S31500001C00C5F243336360F8BD5F70022E01D1102127
S31500001C100A43D2B2DA71CFE73D310A43B2319EE7C9
S31500001C2000F8FFFF70B5EFF30384103C64B22000A8
S31500001C3001F0B6F942F6A853A400C2F20003E05838
S31500001C40C3691B6913B1036913B170BD036983B915
S31500001C507F23026A91780B4004210B439370002383
S31500001C60C360436A002BF0D080220021FFF7A0FE5C
S31500001C70EBE703218278114002290AD0C168056A80
S31500001C800C78EC709207920F9B1A8A180361C26057
S31500001C90DAE74FF60065C1680C882C43056AEC81CB
S31500001CA0F0E7C04610B582B0EFF30384103C64B28F
S31500001CB0200001F075F942F6A853A400C2F2000311
S31500001CC0E4580323A2781340022B0DD0236A5979D6
S31500001CD0A369C9B2019183B9636A1BB104222000CA
S31500001CE0FFF766FE02B010BD40F2FF11236A1B8AA1
S31500001CF01940A3690191002BEED09207920F6069FB
S31500001D0001A902F0D3F8A37862699B079B0FD2184A
S31500001D106261A269D31AA361002BE3D1636A002B27
S31500001D20E0D0012200212000FFF742FEDAE7C0469C
S31500001D3010B5EFF3038442F6A853103C64B2C2F226
S31500001D400003A200D0587B23026A91780B4093705F
S31500001D50436A1BB102220021FFF72AFE200001F090
S31500001D601FF910BD70B5EFF3038442F6A853103C7B
S31500001D7064B2C2F20003A200D05803238278134053
S31500001D80022B19D0036A5979C9B238221D792A4023
S31500001D90ED0602D51D7FED070BD538261D79B54317
S31500001DA01D71436A0BB1FFF703FE200001F0F8F83E
S31500001DB070BD40252A43F0E740F2FF11036A1A8AF4
S31500001DC01140E2E70023F02102699370D1723022BC
S31500001DD003628354023A83542A33C25C0233C254E8
S31500001DE0C369436200207047416002720020704759
S31500001DF04163C263836300207047C0464CF6BD5200
S31500001E00CAF6B6429446C36863445A425341002018
S31500001E100B7070470023F021026910B59370937020
S31500001E20D172302203628354023A8354043A815CAD
S31500001E3002328154C269C3604262EFF310810133FA
S31500001E4083F31088036846F6FC72187880231B0615
S31500001E50C340C4F20402546823435360536881F3B9
S31500001E601088002010BDC04600232C228354C2696E
S31500001E702B2102622A2210B533244362825C42542B
S31500001E80043143540231435403552D33C35C0BB123
S31500001E9001234354B421036999708439445C14B90D
S31500001EA05122DA7210BD00244454012A09D0292196
S31500001EB0415CD9702B23013AC25401220133C2542A
S31500001EC0F0E72821415CF4E710B52E240355037A88
S31500001ED08161C261012B0AD129220021815401218D
S31500001EE0426852000A43282142542A2283542D2351
S31500001EF00122C254FFF7B8FF002010BD10B52E24F2
S31500001F000355037A8161C261012B08D12922002180
S31500001F10815442682831520042542A2283542D2388
S31500001F200022C254FFF7A0FF002010BD43F60002B6
S31500001F30C0F200229446F8B500260B78016063448F
S31500001F405B0103618B68040043600B7B0D00037229
S31500001F50CB6943630B6A8663C363EFF31080012387
S31500001F6083F310880F78802146F6FC730906F94042
S31500001F70C4F204035A688A435A605B6880F3108887
S31500001F80F0222368596A23699E70DA728878ED3ADE
S31500001F9002401A70FA2220209A714A785A700A78FA
S31500001FA092000243D2B2DA714A790F201A72CA78C5
S31500001FB09A740A790121D2000A43D2B25A722322B4
S31500001FC09A725E73697B2856220001F051F8102040
S31500001FD0697B2856220001F04BF82D23A661E661A5
S31500001FE026626662E6540133E6540133E654013351
S31500001FF0E65443F24323C5F249330020E360F8BDBB
S31500002000F0B50400806B83B06D4670B12B00020002
S31500002010C0CAC0C3E36B01710360636B9847A36BCF
S315000020200BB106CD06C303B0F0BD2800F2E7C046EB
S3150000203070B5EFF30380103840B200F0B1FFEFF354
S31500002040038342F6A852103B5BB2C2F200029B0029
S315000020509B5819690A7BD207D40F02BB2A202C325F
S315000020609A5C185C90420FD02D20185C08B1022AA9
S3150000207045D02820185C0132C8702B20195C013924
S3150000208019542C215A5470BD1A6A5ABB2E229A5CD6
S315000020906AB15222CA720121223A9954F3E72D22DB
S315000020A09A5C3AB9002201201A622F3298545423BE
S315000020B0CB72E8E731229A5C002AF3D14A79586A52
S315000020C099690A541A6A013A1A625A6A01325A62BC
S315000020D02E229A5CB2B152221969CA720121223AA1
S315000020E09954D0E72D20185C80B131201D5CB5B124
S315000020F01C54012A21D98C72FF24CC70C3E75223C9
S31500002100CB72C0E754221B69DA72BCE7586A9C6935
S31500002110013A245C01301A625862CC70B3E74A79FE
S31500002120586A9969FF240A541A6A596A013A0131B0
S3150000213059621A621969012ADFD12023FF248B72A2
S31500002140CC70A0E770B5EFF3038342F6A8520821DE
S31500002150103B5BB2C2F200029B0098580369DA7A20
S315000021608A43DA722F22825C52BB2A22815C0232B7
S31500002170825C914214D1026A5AB92D21415C4C42CB
S3150000218061413024055D0231002D2BD0DA72FFF754
S3150000219037FFEFF30380103840B200F001FF70BD47
S315000021A0A2B9012924D02921415C0024DC72D9700E
S315000021B02B21435C0132013B43542C23C254E8E7F4
S315000021C0F0220739DA72FFF71BFFE2E72D21445CA4
S315000021D00021002CE9D0022AE7D101242931415CF3
S315000021E02143E2E7F022DA729A78A2439A70CEE7A8
S315000021F02731415CD9E7C0460023036000207047C1
S315000022000B00FF20034040F60000090A0901C91827
S31500002210C4F2040089000B589B07DB0F00201370E3
S315000022207047C0460023C4F204039C46090A4901CC
S3150000223061444B68002013807047C0460020C4F2FA
S31500002240040084461800090A90430004134049011B
S315000022500343614400208B607047C046FF20012382
S315000022600840834052B91B040022C4F2040294467B
S31500002270090A4901614400208B6070474FF6FF72DE
S315000022801340F1E70020C4F2040084461800090A4E
S31500002290490110B561440C681040204393439843AC
S315000022A00860002010BDC0460023C4F204039C460B
S315000022B0090A490161444B6800201B0C13807047D2
S315000022C00020C4F20400844610B50B0A5B01634487
S315000022D05C68FF231940FE3B8B40240C99B22340D7
S315000022E05B1A59424B410020137010BD0020C4F206
S315000022F0040084461800090A90430004134049016B
S31500002300034361440020CB607047C0460023C4F2FB
S3150000231004039C46FF23080A400119406044FE3B23
S315000023208B40C168012A05D099431B040B43C36047
S31500002330002070471A0491430B43F8E7B822F8B51A
S315000023404546DE4657464E4603885205E0B5824668
S31500002350884600259346DBB380235B0499464346B3
S3150000236044F2000740F202421B68EE009B1999886E
S315000023700024C4F2040791420ED00134032C22D06B
S3150000238044F608736200C0F20003D25A43461B6843
S315000023909B1999889142F0D15A461B6813404B45C8
S315000023A01CD0230020335B00DA5DD209002AE4D07A
S315000023B07F22D95DC8200A40DA550121013400F098
S315000023C099FD032CDCD153461B8801359D42C3D3AE
S315000023D03CBC90469946A246AB46F8BD2300203346
S315000023E05B00DA5DD209002AC7D1D95D803A0A437B
S315000023F0C8200121DA5500F07DFDBEE7F0B5DE46C6
S3150000240057464E464546E0B5011D83B00400FFF72A
S3150000241095FFEFF31082012383F3108842F6A4534D
S31500002420C2F2000301931B6833B940F60051C4F2AF
S315000024300401CB704033CB7001990B6801330B60FC
S3150000244082F3108823889A46C3B3802340F600059A
S315000024505B029946294B002240F2FF089C466168C0
S31500002460C4F204050BE04446330A1B0126409B19BF
S3150000247001329B0092B25851083152451ED04B464C
S3150000248008688E881842EED04446330A1B0126405F
S315000024909C19A700644600977F599B1927403C006A
S315000024A0009F01327C51674607403C00009F9B001D
S315000024B092B27C51083158515245E0D1EFF3108267
S315000024C0012383F31088019B1B681BB101990B68DC
S315000024D0013B0B60019B1B6833B940F60051C4F207
S315000024E00401CB708033CB7082F3108803B03CBC00
S315000024F090469946A246AB46F0BDC046FFFFFEFF9A
S3150000250045F2542310B5C5F24F0303600800FFF7E8
S3150000251075FF002010BDC04610B50800FFF76EFF1E
S31500002520002010BDF0B5012487B001AB03A8998047
S315000025300D0004A91600019204804360FFF7FEFE19
S31500002540EFF3108184F3108842F6A453C2F200031D
S315000025501A6832B940F60050C4F20400C270403224
S31500002560C2701A6801321A6081F31088FF202C0AA3
S3150000257005402001F2030CD540F600012001421966
S31500002580C4F2040192005758114C2740344057506A
S31500002590545040F600024019C4F2040280008650EE
S315000025A0EFF31082012181F31088196811B11968BF
S315000025B0013919601B6833B940F60051C4F20401B1
S315000025C0CB708033CB7082F31088002007B0F0BD4B
S315000025D0FFFFFEFF8160C26000207047F8B546F23B
S315000025E00003CE4640F20039474604000220C4F2FA
S315000025F000039C464B4680B508564D468200207126
S315000026006244D35846F200079C4600238E68535115
S31500002610A660CE68C4F20007E6600E786671BB5508
S315000026200B79CD781B012B434D79DBB2ED012B43A2
S31500002630DBB2BB554D4663465351002803DB2200EF
S31500002640497800F0BBFC44F25533C0F24903002040
S3150000265023600CBC90469946F8BDC04610B500797B
S3150000266040B200F0D1FC002010BDC04610B5007984
S3150000267040B200F0EBFC002010BDC04610B50400CF
S315000026800420205600280ADB00F0E0FC042242F673
S31500002690A8530021A256C2F200039200D150002393
S315000026A00020236010BDC04630B583B0EFF303842D
S315000026B042F6A853103C64B2C2F20003A200D558F9
S315000026C046F200036A79C4F200039B5C9B079B0FEA
S315000026D0032B0BD1AB6823B10192EA6868460092DE
S315000026E09847200000F05CFC03B030BD200000F0ED
S315000026F057FCAB68002BF7D06A7968460192EA6806
S3150000270000929847F0E7C04630B58468057B210003
S31500002710083105B104310A78D207D20F0B789B072E
S31500002720DB0F9A42FAD143681A78012A03D0F123C3
S3150000273000200B7030BD026942F6DC301B7CC2F211
S31500002740000025B19B001A50013A2260EFE70233E0
S31500002750DBB29B001A50013A92B22280E7E7C046EC
S315000027608368027B190008310AB10C3319000A7814
S31500002770D207D20F0B789B07DB0F9A42FAD1F023D0
S3150000278000200B707047C04630B58468057B210079
S31500002790083105B104310A78D207D20F0B789B07AE
S315000027A0DB0F9A42FAD10369013B15B12360002081
S315000027B030BD9BB22380FAE78168037B0A003BB1F8
S315000027C003690C32013B0B60F12300201370704744
S315000027D003690832013B9BB20B80F5E7037B2BB103
S315000027E083680C33F02200201A7070478368083320
S315000027F0F8E7C04670B58568067B2C00083406B13C
S3150000280004342278D207D20F23789B07DB0F9A4233
S31500002810FAD101615EB142F6DC334268C2F20003CE
S31500002820127C9200D15001392960002070BD42F619
S31500002830DC324368C2F200021B7C0233DBB29B002F
S315000028409950013989B22980EFE7C04606207047C2
S315000028500620704730B58468057B2000083005B136
S3150000286004300278D207D20F03789B07DB0F9A4217
S31500002870FAD103789B07DB0F0B711DB1236800208B
S315000028800B6030BD23889BB2F9E7C0464161C26147
S31500002890836100207047C0468368027B190010B52B
S315000028A008310AB10C3319000A78D207D20F0B7817
S315000028B09B07DB0F9A42FAD1F4230B7000230B71AE
S315000028C043689B7C5BB21A0021321BD0002B13DBC2
S315000028D01F215A090B401E39994013004EF200146D
S315000028E02033CEF200049B001951BFF34F8FBFF384
S315000028F06F8F43689B7C5BB242F6A8529B00C2F284
S315000029000002985000230360002010BD020010B59D
S31500002910083201B1043253785B06590F002B15DBE0
S315000029204EF2000342F6C060C4F201031A6A07239E
S31500002930C2F20000140E00681C40A040120A1340A8
S31500002940D84011B102235940C84010BD48F20000DA
S3150000295093785B075B0FD840F7E7C04670B5040075
S3150000296080680D000600217B083601B104363278F6
S31500002970D207D20F33789B07DB0F9A42FAD123692D
S31500002980AB606368DA691278502A28D11B7C69B972
S3150000299042F6DC360133DBB2C2F200069B00F35886
S315000029A073B96B60002300202B7070BD42F6DC36D5
S315000029B0013BDBB2C2F200069B00F358002BF0D0BD
S315000029C00138FF38FFF7A2FF237B63B163681B7CE6
S315000029D0013BDBB29B00F358B0FBF3F3E1E7FFF7F3
S315000029E095FF6860DEE763681B7C0133DBB2F1E7C5
S315000029F0F0B5C64600B5CB694160DA790D00931E85
S31500002A0059424B4104000373022A00D091E044F27C
S31500002A100C0144F20003C4F208018C462A7CC4F27D
S31500002A2008031202D3186244A360EFF31080012357
S31500002A3083F3108846F6FC71C4F20401CE68217B4C
S31500002A40002957D0297C012959D80327791A8B40A8
S31500002A50DB4346F6FC713340C4F20401CB60CB681D
S31500002A6080F310880023137013789B07D90F002B6F
S31500002A70FADB237B91709C46A16860460B002F7A97
S31500002A80EA69083300B1043316791078B046072690
S31500002A90D2783240002839D1002F58D140461871DB
S31500002AA0002098715A7062469F706B682361002AF5
S31500002AB031D042F6DC326068C2F20002007C80004F
S31500002AC08350013B0B6012202856002803DB2200AE
S31500002AD0697C00F0CDFA6B6900206361AB69E36144
S31500002AE00023A36144F25473C0F24103236004BC83
S31500002AF09046F0BD297C0231C9B20129A5D9032926
S31500002B002CD81527791A8B40DB43A2E702435028BD
S31500002B10C4D10027C2E742F6DC306268C2F2000088
S31500002B20127C0232D2B292001350013B9BB20B8050
S31500002B30C9E744F2082144F20023C4F208018C4696
S31500002B402A7CC4F208031202D31862446CE70230EE
S31500002B5047403F013A43D2B200279FE7052904D8F0
S31500002B600527791A8B40DB4373E71027791A8B40C8
S31500002B70DB436EE7F0B5CE46474680B585B0EFF34A
S31500002B800384103C64B2200000F00AFA42F6A8530F
S31500002B90A400C2F20003E458237BA5685BB3626815
S31500002BA02B7B12780C35DBB2012A2BD09846636951
S31500002BB09C46002B30D0A06901AB994600282ED048
S31500002BC0190007004CCF4CC143469B0601D5002394
S31500002BD00371E3690360E047A36913B14C4607CC70
S31500002BE007C32A78D2B20F2313402B7005B00CBC52
S31500002BF090469946F0BD62682B7A12780835DBB2AA
S31500002C00012AD3D1F4222A70E53A934398462B70D1
S31500002C1063699C46002BCED14346DAB2E3E718003F
S31500002C20D2E7C0464EF20003A022C4F201039A5C2A
S31500002C30824217D036229A5C1AB93C215A5CD207D6
S31500002C40FCD54EF20002A021C4F20102535CDB0661
S31500002C50FCD450544EF20002A021C4F20102535C8F
S31500002C60DB06FCD47047C0464EF20003262240F233
S31500002C709851C4F20103985C1B6A8000C2F20001FD
S31500002C8041585B015B0F42F6C062D940C2F20002B6
S31500002C90116070477047C0464EF2000340F2C542CD
S31500002CA010B5C4F201039A5CD20600D410BD40F2FE
S31500002CB080429A5C4AB940F281429B5C9B0723B9E9
S31500002CC040F2E830FFF7E6FFF0E74EF2000440F28C
S31500002CD08043C4F20104E25C52B14EF200030022CA
S31500002CE040F28141C4F201035A5401395A54DDE7D6
S31500002CF00132E2540121C82000F0FCF840F2804283
S31500002D00A35C012BFCD1E8E7F8B54EF2000440F2D3
S31500002D10FE332D4AC4F20104E2524CF200030121B3
S31500002D2043F6C872C4F27E03995440F2985546F6AB
S31500002D300043C2F20005C0F2DC232B6041F20023FF
S31500002D40C0F27A036B6048F20003AB602B6142F677
S31500002D5000530027C0F231136B612623EF60E25C5B
S31500002D60236A9200AA585B015B0F42F6C066DA40FE
S31500002D70C2F200063260FFF78FFFA523062200206D
S31500002D80E254FFF74FFF36233C21E754635CDB0731
S31500002D90FCD501213123E1544FF6C473C4F27E03FE
S31500002DA0197040F2001300212362DA3BE154E15C22
S31500002DB0236A890069585B015B0FD94040F2FE33F4
S31500002DC031600249E152F8BD03A5FFFF00A5FFFFF0
S31500002DD04EF2000340F2C54270B5C4F201039B5C9B
S31500002DE0DB0600D470BD44F2000428230025C4F29B
S31500002DF004040121E554C82000F07CF82423242192
S31500002E00E554635C002BFCD10220635C44F20002B3
S31500002E10034324206354C4F20402135C9B07D90FB6
S31500002E20002BFADB2223D15444F200022221C4F201
S31500002E300402535C002BFCD14021505C7F330340DD
S31500002E40535444F20002C4F20402535CDB09002B23
S31500002E50FBD14221505C7F330340535444F20002BD
S31500002E60C4F20402535CDB09002BFBD14421505C05
S31500002E707F330340535444F20002C4F20402535C0D
S31500002E80DB09002BFBD1002000F076F94EF200039F
S31500002E904C228021C4F201039954002000F042F92B
S31500002EA046F6FC73C4F204031A8AD2070BD4EFF376
S31500002EB01082012181F31088074919820749198276
S31500002EC01B8A82F3108846F2000340F2C0120321E7
S31500002ED0C4F20003995485E780A5FFFF01A5FFFF13
S31500002EE0A123DB04036000207047C0460138002898
S31500002EF0FCD1704742F6C0624CF600234143C2F251
S31500002F00000270B51468C3F69A330D00B3FBF4F4EF
S31500002F10080040F2E8320023002100F021FA31B91E
S31500002F20B0FBF4F0800808B1FFF7E0FF70BDA40025
S31500002F30B5FBF4F040F2E8320023002100F010FA6D
S31500002F400029F0D001204042FFF7D0FFEEE7C0464F
S31500002F5046F2000340F2201270B500240126C4F2A6
S31500002F6000039D5A20329B5A1D402B00E340E0B2DD
S31500002F701E4209D042F67052C2F200029446A300E5
S31500002F8063441B6803B1984701340D2CEDD146F21A
S31500002F90000340F23012C4F200039D5270BDC046D9
S31500002FA046F20003C0308000C4F20003C258024952
S31500002FB00A40C250C3587047FFFFFEFFF0B5C64631
S31500002FC090464EF20012FF240325CEF200029446EC
S31500002FD0220040F200370540ED008901AA400C406E
S31500002FE0AC4083089B006344DE5900B596433443E6
S31500002FF0DC5142F6A8534246C2F2000380001A5042
S3150000300004BC9046F0BDC046030046F2000210B56F
S31500003010C033C4F200029B0099580B4C21409950D2
S315000030209B58BFF35F8F1F220123024093404EF24D
S315000030300012CEF20002944640F28012400980004F
S3150000304060448350036010BDFFFFFEFF1F2243094B
S315000030504EF2001110401E3A82402033CEF200019B
S315000030609B005A50BFF34F8FBFF36F8F7047C04618
S31500003070F0B5C64690464EF20012FF240325CEF266
S3150000308000029446220040F200370540ED00890117
S31500003090AA400C40AC4083089B006344DE5900B54F
S315000030A096433443DC5142F6A85342468100C2F2AD
S315000030B000035A50030046F20002C033C4F2000275
S315000030C09B0099580C4C214099509B58BFF35F8F39
S315000030D01F220123024093404EF20012CEF200025C
S315000030E0944640F280124009800060448350036099
S315000030F004BC9046F0BDC046FFFFFEFF46F200004E
S315000031000023C4F2000044F64C62C0F200029A1892
S3150000311012781AB11900C03189000A500133202BE8
S31500003120F1D1704770B5EFF31081012383F3108856
S3150000313042F6B8634000C2F200031A5A1AB11A5A8C
S31500003140013A92B21A521B5A83B94EF2000240F269
S31500003150FE3544F65874C4F20102565B054BC0F2C4
S315000031600004205A334383439BB2535381F31088A0
S3150000317070BDC04600A5FFFF70B5EFF310810123B7
S3150000318083F3108842F6B8624000C2F20002135A76
S3150000319083B94EF2000444F6587540F2FE36C4F286
S315000031A00104C0F20005A35B2D5A2B434AF20055D9
S315000031B02B43A353135A01339BB2135281F3108846
S315000031C070BDC04642F60442C2F200020300106817
S315000031D010B558B1032103338B4342F6D861C318A7
S315000031E0C2F200018B4207D8136010BD42F6D860C8
S315000031F0C2F200001060EDE700F052FE0C230360FF
S3150000320001204042F1E7C04600BE704710B500F00D
S3150000321003F8FEF75DFBFEE7F0B54EF6005340F20D
S315000032200005CEF20003C0F2000583B09D600020C9
S31500003230FEF798F9FFF768FD6B460027DC1D27703F
S3150000324001202378FFF798FFEFF31081012686F31C
S31500003250108846F6FC73C4F204039A683C480240A0
S315000032609A609A6881F3108840F60001C4F204015E
S315000032700A68D207D20F22700A68D207D20F2270CC
S315000032800A68D207D20F2270EFF3108186F31088F6
S3150000329080229868520502439A609B6881F31088E1
S315000032A00120FFF73FFF0120FEF75CF940F60053CF
S315000032B0284AC4F200039F8027491A802A6841F2EF
S315000032C0000051189960DA6046F2000240F22011BF
S315000032D0C4F20002505242F6D46240F2B050C2F23A
S315000032E00002C2F200009E800021121A00F0E7FDE3
S315000032F040F2000040F2985245F2B801C2F20000D6
S31500003300C2F20002121AC0F2000100F0CFFD40F234
S31500003310905540F29453C2F20005C2F200035B1BC3
S315000033209E10002B05DD002408CD01349847A642E7
S31500003330FADCFFF799FCFFF74BFD0220FEF712F9C6
S31500003340FFF7DCFE002000F009F803B0F0BDC04630
S31500003350FFFFFFEF00A5FFFF00FCFFFF7047C04621
S31500003360F0B5CE4647464FF6FF7580B507002800F4
S3150000337015400E002900140C384099463B0C414379
S315000033805D436043634340190C0C24189C46A542D8
S3150000339003D980235B029846C4444B464FF6FF7020
S315000033A07B437243250C65442404084059192018B0
S315000033B089180CBC90469946F0BDC0469E2110B5B2
S315000033C0C905041C00F094FC18B9201C00F004FC8C
S315000033D010BD9E21201CC90500F034FA00F0FCFB4C
S315000033E080231B069C466044F2E7C046F0B54F4674
S315000033F04646D646C0B5470045023F0E0C1C6D0A30
S31500003400C60F002F66D0FF2F6BD0EA00802540F252
S31500003410000940F2000AED0415437F3F6002610097
S31500003420430A090E9846E40F002948D0FF2910D018
S315000034308022D800D2040243904600207F394A46B3
S3150000344033007F1A02436C4992008A586340DBB20C
S315000034509746002B6BD10220FF3F32E040F2000876
S315000034602600454682465346022B00D17DE0032BBB
S3150000347000D192E0012B17D038007F3000285DDDA7
S315000034806B0704D00F232B40042B00D004352B01EF
S3150000349003D53800594B80301D40FE2865DCAD0150
S315000034A06D0AC0B202E01E0000200025C0052843B8
S315000034B0F60730431CBC90469946A246F0BD53BB66
S315000034C001204A4633004E49024392008A5863401F
S315000034D0DBB2974695B940F20409002740F2010A8B
S315000034E09CE72DB940F20809FF2740F2020A95E74A
S315000034F040F20C09FF2740F2030A8FE7280000F08C
S3150000350001FC7627431F7F429D4040F2000940F2AE
S31500003510000A3F1A82E7180000F0F4FB4246431FF8
S3150000352076219A404942091A9046002087E7FF21F2
S31500003530032084E71E00FF200025B7E701231B1A9E
S315000035401B2BB1DC9E372900BD40D9406A1E954130
S315000035500D436B0704D00F232B40042B00D00435FA
S315000035606B0144D501200025A0E7FF2000259DE73B
S3150000357080250026FF20ED0398E740F20008802012
S31500003580C003054209D04346034206D145460543DA
S315000035906D022600FF206D0A88E78020C0030543E0
S315000035A06D02FF206D0A81E741466A0148018242A9
S315000035B019D21B210025013F012614006D0052007F
S315000035C0002C01DB904201D8121A3543013900293B
S315000035D0F3D1501E824138007F301E00154300286B
S315000035E000DD4DE7AAE71A210125121AE4E7AD012D
S315000035F000206D0A5AE7C046604F0000FFFFFFF744
S31500003600A04F0000F8B557464E464546DE46E0B5A3
S31500003610450044022D0E0F1C640AC60F002D49D02A
S31500003620FF2D4FD0802040F2000A40F2000BE4004C
S31500003630C00404437F3D7802430A99467A00FB0F93
S31500003640120E98464B46002A44D0FF2A11D0D800C5
S315000036508023DB040343994600207F3AAD18474692
S3150000366053467740691C0F2B3FD8744A9B00D358AA
S315000036709F46FF35002B00D07BE0524602231A43BB
S3150000368092460220EBE747464C4683465B46022BB2
S3150000369028D0032B00D1C9E0012B51D100200024F2
S315000036A0C005FF07204338433CBC90469946A246D6
S315000036B0AB46F8BD002C73D140F2040A002540F257
S315000036C0010BB8E7002C65D140F2080AFF2540F24D
S315000036D0020BB0E7002B52D1524601331A439246F1
S315000036E00120BCE7FF200024DAE74B464FF6FF70C7
S315000036F0260C044018401A0C0300704363435443DD
S315000037009C4624181B0C1B195643984203D9802249
S3150000371052029046464460464FF6FF741A0404402F
S3150000372012199401601E84411B0C920E9B191443BE
S315000037309B011C431B0173D50120630804401C43F5
S3150000374008007F3000283DDD630704D00F232340A7
S31500003750042B00D00434230103D580310800384BF4
S315000037601C40FE28BEDCA401640AC0B298E73700FC
S315000037708CE7524603231A43924603206FE74846D6
S3150000378000F0C0FA4A46431F9A402D1A914600207F
S31500003790763D64E740F20C0AFF2540F2030B4AE748
S315000037A0200000F0AFFA7625431F6D429C4040F2A0
S315000037B0000A40F2000B2D1A3DE780240027FF2067
S315000037C0E4036DE701231B1A1B2B00DD66E79E3120
S315000037D020008C40D840631E9C410443630704D0FC
S315000037E00F232340042B00D0043463011AD5012093
S315000037F0002455E78020C003044209D04B4603420B
S3150000380006D14C46044364024746FF20640A47E754
S315000038108020C003044364023700FF20640A3FE7A8
S3150000382029008DE7A4010020640A39E78020C0033F
S3150000383004436402FF20640A32E7C046E04F0000FA
S31500003840FFFFFFF7F0B54646D6464F4643025B0AF2
S31500003850DA0094464A02C0B54400560A051CB04632
S31500003860240E4E0092091F0020009246ED0F360EE0
S31500003870C90FFF2E00D181E040F201094A465140AE
S315000038808D4251D0A21B9146002A00DC7DE0002E1D
S3150000389000D198E0FF2C00D18BE080235246DB0458
S315000038A01A4392464A4601231B2A08DC5346202126
S315000038B0D340891A52468A40511E8A4113436246B2
S315000038C0D31A5A0100D4F5E09B019E09300000F09E
S315000038D019FA05388640844200DDF9E03200041BFF
S315000038E020200134E240041BA64033005E1EB34193
S315000038F0002413435A0704D00F221A40042A00D08A
S3150000390004335A0100D4D8E0621CFE2C00D1DCE05E
S315000039109B015F0AD0B2C0053843ED0728431CBCA3
S3150000392090469946A246F0BDA21B9146002A64DD48
S31500003930002E00D19CE0FF2C3BD080235246DB04B6
S315000039401A4392464A4601231B2A08DC5346202185
S31500003950D340891A52468A40511E8A411343634412
S315000039605A0100D4A6E00134FF2C00D1ADE00122BB
S3150000397097491A405B080B401343BBE792B38D424D
S3150000398037D0FF2252429146A1444A46002A53D0DC
S31500003990301B002C00D09FE06346002B00D1E1E0F5
S315000039A00138002800D1F9E0FF2E00D09CE00D0080
S315000039B04346002B00D188E08027FF031F437F0288
S315000039C0FF207F0AA7E75246002A77D001225242FB
S315000039D09046C1444A46002A00D1CAE0FF2C00D0D6
S315000039E060E7E6E740F201094A465140A94200D0A5
S315000039F048E7FF2252429146A1444A46002A44D053
S31500003A00311B002C00D18DE0FF2E00D193E08023E6
S31500003A106246DB041A43944601231B2909DC202055
S31500003A2063466246CB40411A8A401100481E8141D6
S31500003A300B433400534493E740F2FE094A46661CA2
S31500003A40324263D1002C00D081E06346002B00D1C6
S31500003A50A9E05346002B00D15DE7634652469B1A08
S31500003A605A0100D4A7E0634652460D00D31A41E737
S31500003A7052461AB3012252429046C1444A46002A8F
S31500003A8074D0FF2C00D05DE793E7FE260134264272
S31500003A9053D1002871D16346002B00D191E05346E3
S31500003AA0002B00D137E7634400245A0102D5494A66
S31500003AB0013413405A0700D01EE7DB08FF2C00D163
S31500003AC077E75B025F0AE0B225E7FF20002722E7DF
S31500003AD0404B241A33400DE7FF2E00D167E78023C1
S31500003AE06246DB041A43944601231B2809DC202482
S31500003AF063466246C340201A82401000441EA0411D
S31500003B00034352460D003400D31ADAE663465246A2
S31500003B109E1A730117D4002E00D0D7E60025002088
S31500003B200027F8E66346002B42D0013900294AD027
S31500003B30FF2E00D070E743463BE7FF2CC5D0524628
S31500003B4062445308B6E763460D00D61ABEE66246DF
S31500003B50B2B95346002B00D029E780270025FF2065
S31500003B60FF03D8E60D0043463400A7E753466344F7
S31500003B70F6E6634652469B1AA3E66246002ADAD068
S31500003B805246002A00D114E78022D203134200D104
S31500003B900FE74046104200D00BE708E752460D00FB
S31500003BA03400D31A8DE6534643B10D004746B2E6BC
S31500003BB04346340082E7002B00D07BE70025002730
S31500003BC0A9E64746A7E6534634006344C8E6C0461E
S31500003BD0FFFFFF7DFFFFFFFB41024200C30F490AC3
S31500003BE00020120E7E2A03D99D2A02D9094A981866
S31500003BF07047802000040143952A07DC9620821A2C
S31500003C00D1404842002BF3D10800F1E7963A9140A3
S31500003C10F7E7C046FFFFFF7F70B5050070B100F003
S31500003C2071F89E2304001B1A962B0CDC082801DD74
S31500003C30083CA5406D026D0AD8B201E000200025BF
S31500003C40C005284370BD992B09DD020029001B32EF
S31500003C5091404A1E91410522121AD5400D43052C6A
S31500003C6001DD621F95402900084E31406A0709D0E0
S31500003C700F202840042805D004314A0102D59F238D
S31500003C8031401B1B89014D0AD8B2D9E7FFFFFFFB64
S31500003C908446081C6146FFE71FB500F0BFF8002800
S31500003CA001D40021C8421FBD10B500F049F84042BA
S31500003CB0013010BD10B500F0B1F8002801DB00207E
S31500003CC010BD012010BDC04610B500F0A7F80028B1
S31500003CD001DD002010BD012010BDC04610B500F06A
S31500003CE057F8002801DC002010BD012010BDC04699
S31500003CF010B500F04DF8002801DA002010BD0120B3
S31500003D0010BDC0461C2101231B04984201D3000CA0
S31500003D1010391B0A984201D3000A08391B09984238
S31500003D2001D30009043902A2105C40187047C0464E
S31500003D30040302020101010100000000000000006E
S31500003D4070B542004E024C0045026D0A120EC30FBA
S31500003D50760A240EC90FFF2A0FD0FF2C11D001209E
S31500003D60A24200D070BDB542FCD18B420DD0002AD4
S31500003D70F8D12800451EA841F4E70120002DF1D115
S31500003D80EBE70120002EEDD1E9E70020EAE7C04687
S31500003D90F0B5420046024D024C00C30F760A120EE1
S31500003DA06D0A240EC80FFF2A0ED0FF2C0FD0D2B9F1
S31500003DB07142714104B9DDB181B983421CD002213F
S31500003DC0581E08400138F0BD2EBBFF2C0BD115BB89
S31500003DD0002AF2D1714271410029EED00028F2D1B9
S31500003DE001204042EFE7002CE7D1002DE5D1E6E7C0
S31500003DF00020002EE7D0E2E7A24205DCEEDBAE4271
S31500003E0002D8EBD30020DEE741424141484202217D
S31500003E1008400138D7E702204042D4E7F0B5420017
S31500003E2046024D024C00C30F760A120E6D0A240E8E
S31500003E30C80FFF2A09D0FF2C0AD0E2B9714271419E
S31500003E4054B94DB9002086B109E06EB9FF2C12D1E4
S31500003E5055B912B97142714141B9834210D002215C
S31500003E60581E0840013800E00220F0BD0028FCD1B1
S31500003E7001204042F9E7002CEFD1002DEDD1EEE70D
S31500003E80A24205DCF2DBAE4202D8EFD30020ECE71B
S31500003E90414241414842022108400138E5E7C04617
S31500003EA0014B18687047C0462C050020002310B54A
S31500003EB09A4200D110BDCC5CC4540133F8E703002C
S31500003EC08218934200D1704719700133F9E7FFFF5A
S31500003ED00EB400B50B499CB01DAB0290069007913D
S31500003EE004910948094904CB0591006802A9019388
S31500003EF000F0A2F80023029A13701CB008BC03B0AD
S31500003F001847C046FFFFFF7F2C0500200802FFFF71
S31500003F10020010B5137814000132002BFAD1CA5CE6
S31500003F20E2540133002AFAD110BD03000A780131A8
S31500003F301A700133002AF9D170470023C25C01339D
S31500003F40002AFBD1581E70470A7830B562B930BDD9
S31500003F509A4208D10123CC5C002CF8D0C55CA5425E
S31500003F6001D10133F7E701300378002BF0D11800B7
S31500003F70EDE7FFFFF0B58E6885B007000C000392F1
S31500003F8001939E423CD840F280438A891A4234D03B
S31500003F900325096923685B1A0293636902985D43E6
S31500003FA0EB0F5D19019B6D1001331B18AB4200D955
S31500003FB01D00530532D52900380000F01DFB060010
S31500003FC048B90C233B6040230120A2894042134399
S31500003FD0A38105B0F0BD029A2169FFF767FFA389A7
S31500003FE0144A1A4080231343A381029B2661F618C4
S31500003FF026606561019EED1AA560019B9E4200D96F
S31500004000019E32000399206800F099FAA368002007
S315000040109B1BA36023689E192660DAE72A003800F6
S3150000402000F046FB06000028DFD13800216900F0C9
S3150000403099FAC6E77FFBFFFFF0B5A1B003901D001C
S315000040408B890F0016001B060FD50B696BB9402133
S3150000405000F0D2FA3860386128B90C23039A013887
S31500004060136021B0F0BD40237B61002308AC63617F
S31500004070203363761033A376079535002B780BB182
S31500004080252B47D1AB1B0593B5420CD03200390026
S315000040900398FFF76FFF431C00D1B0E06269059BF0
S315000040A09446634463612B78002B00D1A7E001227C
S315000040B000235242626004A9543252186E1C2360D7
S315000040C0E360A3601370A36505223178544800F0BD
S315000040D02BFA751C00BB2268D30604D5532304A90A
S315000040E05B1820211970130704D5532304A95B1804
S315000040F02B21197033782A2B17D03500002140F276
S315000041000A0C0126E3682A78681C303A092A4BD93A
S3150000411089B917E00135B1E7414B2268C01A01237E
S31500004120834013432E002360CEE7079B191D1B68AF
S315000041300791002B01DB0B9304E05B42E360022353
S31500004140134323602B782E2B0AD16B782A2B34D17C
S31500004150079B02351A1D1B680792002B2ADB099361
S31500004160304E03223000297800F0DEF930B14023CA
S31500004170801B834022680135134323602978062279
S3150000418029486E1C217600F0CFF900283FD0274B36
S315000041904BBB0722079B0733934308330793636997
S315000041A0049A9B18636168E761464B43050031003A
S315000041B09B18A8E701235B42D1E7002340F20A0CD3
S315000041C01A000126013563602978681C30390929EF
S315000041D003D9002BC4D00992C2E763465A430500AF
S315000041E033005218F0E707AB00933A002100104B5A
S315000041F0039800E000BF0490049B0133CFD1BB8934
S315000042000D985B0600D42CE70120404229E707AB56
S3150000421000933A002100064B039800F079F8EAE78C
S3150000422020500000265000002A5000000000000028
S31500004230753F0000F7B5150001938A680B690C00FD
S315000042400090934200DA130022002B60433212786A
S315000042500AB101332B6023689B0602D52B68023313
S315000042602B602268062317001F401A4227D023001E
S3150000427043331B785A1E93412268920630D422009B
S3150000428001990098089E4332B047431C25D0062367
S3150000429020682A68E16800250340042B03D18D1AA3
S315000042A0EB43DB171D40A3682269934201DD9B1A8D
S315000042B0ED180027BD4220D1002010E00137E36849
S315000042C02A689B1ABB42D2DD22000123019900987D
S315000042D0089E1932B047431CF0D101204042FEBD72
S315000042E03020E1184331087021005A1C4531097805
S315000042F0A218433202331170C1E72200012301994B
S315000043000098089E1A32B047431CE6D00137D1E721
S31500004310F0B50E0089B00492039005930C00097E57
S315000043200E9A4336782907D8622909D8002900D180
S31500004330BCE0582900D184E025004235297022E0EE
S31500004340080063381528F7D800F002FA16001F0097
S31500004350F6FFF6FFF6FFF6FF1F00F6FFF6FFF6FF85
S31500004360F6FFA30034009200F6FFF6FFB400F6FF56
S315000043703400F6FFF6FF9600250013684235191D36
S315000043801B6811602B700123A1E013682068191DBA
S31500004390050609D51B681160002B02DA2D225B4247
S315000043A032700A225E4914E01B6811604006F3D59C
S315000043B01BB2F1E713682568181D10601B682F06ED
S315000043C03BD56F2962D00A2255492000002543308B
S315000043D005706068A060002803DB04252768AF43EA
S315000043E027600BB9350060B13500B3FBF2FC6046BF
S315000043F05043181A085C013D287018006346824233
S31500004400F3D9082A09D12368DB0706D56368226930
S31500004410934202DC3023013D2B70761B2661059BFF
S31500004420210000930398049B07AAFFF703FF431C90
S3150000443051D10120404209B0F0BD6D06C1D59BB2F5
S31500004440BFE723004533197035491068256808C849
S3150000445010602F0616D5EA0702D5202215432560DF
S315000044601022002BB1D12020256885432560ACE7BA
S31500004470202321680B4323602300782145331970DC
S315000044802849E2E76F06E6D59BB2E4E7082224490D
S315000044909BE713682568181D616910601B682F0665
S315000044A001D5196002E06D06FBD5198000233500A1
S315000044B02361B4E71368191D11601D6800212800E7
S315000044C0626800F031F808B1401B606063682361E0
S315000044D000233370A3E72A00236904990398059DF6
S315000044E0A847431CA5D023689B0716D4079BE06802
S315000044F09842A0DA18009EE7220001230499039847
S31500004500059E1932B047431C00D192E70135E36896
S31500004510079A9B1AAB42EFDCE8E70025F7E7C046AF
S315000045203150000042500000C9B28218904201D1B9
S315000045300020704703788B42FBD00130F6E710B5B8
S31500004540884202D98B18984203D3002307E08B5C7C
S315000045508354013AFBD210BDCC5CC45401339A4259
S31500004560FAD1F8E770B5050081B10C1F2368002B5E
S3150000457000DAE418280000F0D1F81E4A136811008A
S315000045802BB963601460280000F0D0F870BDA34218
S315000045900AD92268A018834203D118685B6882187A
S315000045A0226063600C60EEE71A005B680BB1A34201
S315000045B0FAD911685018A0420BD120680918501872
S315000045C011608342DFD118685B684118116053603F
S315000045D0D9E7A04202D90C232B60D4E721686018E2
S315000045E0834203D118685B68411821606360546098
S315000045F0C9E7C046082C0020F8B50323CD1C9D430F
S31500004600083506000C2D1DD20C25A9421CD83000F9
S3150000461000F084F824490A681400CCB9234F3B689B
S3150000462023B92100300000F069F838602900300015
S3150000463000F064F8431C2BD10C233000336000F0EB
S3150000464075F803E0002DE0DA0C2333600020F8BD96
S3150000465023685B1B19D40B2B03D92360E418256050
S3150000466003E06368A2420ED10B60300000F05EF8F2
S31500004670200007220B30231D9043C21A9842E6D031
S315000046801B1AA350E3E75360EFE722006468C4E710
S315000046900323C41C9C43A042E1D0211A300000F041
S315000046A02DF8431CDBD1C7E7082C00200C2C00207A
S315000046B0F8B507000D00160029B91100FFF79CFF99
S315000046C004002000F8BD1AB9FFF74CFF3400F8E7E4
S315000046D000F034F82C00B042F3D231003800FFF776
S315000046E08BFF04000028ECD029003200FFF7DEFB28
S315000046F029003800FFF736FFE3E7FFFF002370B518
S31500004700054D040008002B60FEF75CFD431C02D13A
S315000047102B6803B1236070BDC42E002010B502487B
S3150000472000F014F810BDC046CC2E002010B502488B
S3150000473000F00DF810BDC046CC2E00200B1F1B68E4
S31500004740181F002B01DA0B58C018704770477047C6
S3150000475003B47146490840004900095E49008E4489
S3150000476003BC70474275696C74207769746820527F
S31500004770656E6573617320416476616E636564205E
S31500004780466C657869626C6520536F6674776172F2
S3150000479065205061636B6167652076657273696F2A
S315000047A06E20352E382E3000352E382E3000000083
S315000047B000000805F8B5C046F8BC08BC9E46704720
S315000047C0F8B5C046F8BC08BC9E4670475465726D85
S315000047D0696E616C0000000052545400534547470F
S315000047E0455200FFCA0A0000800900008009000047
S315000047F0800900008009000080090000800900008F
S31500004800800900008009000080090000800900007E
S31500004810B00A0000120A00008009000080090000AA
S31500004820800900008009000080090000800900005E
S31500004830800900008009000080090000800900004E
S3150000484080090000F00900008009000080090000CE
S31500004850C809000080090000A809000080090000BE
S3150000486080090000CA0A0000303132333435363749
S31500004870383941424344454641545A0D0000000030
S315000048804F4B00004154450D0000000041542B578A
S31500004890464D4F44453D310D0A00000041542B570B
S315000048A04643433D43480D0A0000000041542B5740
S315000048B0465341503D52656E657361735F57696635
S315000048C0692C332C312C31323334353637382C3190
S315000048D02C43480D0A00000041542B5245535441C5
S315000048E052540D0A00000000444F4E4500000000DF
S315000048F041542B4E5749503D312C3139322E3136E9
S31500004900382E31302E322C3235352E3235352E3288
S3150000491035352E302C3139322E3136382E31302E77
S31500004920310D0A0041542B4E574448533D310D0A70
S315000049300000000041542B4E574448523D31393255
S315000049402E3136382E31302E332C3139322E313647
S31500004950382E31302E31300D0A00000041542B54D0
S315000049605254533D38300D0A0000000041542B5478
S3150000497052534156450D0A005769666920496E69CA
S315000049807469616C697A65204572726F722C207049
S315000049906C656173652072657374617274200D0AAB
S315000049A0000000005769666920496E697469616C88
S315000049B0697A65205375636365737321200D0A0058
S315000049C0576966692073657474696E6720457272EB
S315000049D06F7221200D0A000057696669207365749D
S315000049E074696E67204F4B2C20706C65617365206F
S315000049F0636F6E6E6563742057692D4669206F720A
S31500004A00206F70656E206874747020636C69656EC3
S31500004A1074200D0A000000004854545020474554A5
S31500004A202072656365697665642C207570646174AF
S31500004A3065205375636365737321200D0A000000BA
S31500004A4048545450204C4544204F4E2072656365AF
S31500004A50697665642C20757064617465205375638E
S31500004A606365737321200D0A0000000048545450FA
S31500004A70204C4544204F464620726563656976653D
S31500004A80642C207570646174652053756363657367
S31500004A907321200D0A00000048545450204C454410
S31500004AA020424C494E4B2072656365697665642CDD
S31500004AB02075706461746520537563636573732133
S31500004AC0200D0A0048545450204F54484552532054
S31500004AD072656365697665642C20757064617465BA
S31500004AE0205375636365737321200D0A00FFFFFF72
S31500004AF0B213000082140000B21300004E1400002E
S31500004B001A140000F6130000DA1300000D0A2A2A10
S31500004B102A2A2A2A2A2A2A2A2A2A2A2A2A2A2A2AEF
S31500004B202A2A2A2A2A2A2A2A2A2A2A2A2A2A2A2ADF
S31500004B302A2A2A2A2A2A2A2A2A2A2A2A2A2A2A2ACF
S31500004B402A2A2A2A2A2A2A2A2A2A2A2A2A2A2A2ABF
S31500004B50000000000D0A2A20202052656E65736150
S31500004B607320465350204578616D706C65205072F5
S31500004B706F6A65637420666F722052656E65736135
S31500004B8073205769666920444131363230302044FB
S31500004B90656D6F204D6F64756C6520202020202088
S31500004BA020202020202020202020202A0000000075
S31500004BB0312E30000D0A2A2020204578616D706C58
S31500004BC0652050726F6A6563742056657273696FEB
S31500004BD06E20257320202020202020202020202029
S31500004BE020202020202020202020202020202020BF
S31500004BF020202020202000002A0D0A2A20202046DE
S31500004C006C657820536F66747761726520506163B6
S31500004C106B2056657273696F6E202025642E25649D
S31500004C202E25642020202020202020202020202027
S31500004C302020202020202020202020202020202A64
S31500004C40000000000D0A526566657220746F2071BF
S31500004C507569636B20737461727420677569646526
S31500004C6020666F72206D6F72652064657461696C71
S31500004C7073206F6E204578616D706C652050726F81
S31500004C806A6563740D0A00FF2B54524454533A303C
S31500004C902C00FFFF2F696E6465782E68746D6C00BA
S31500004CA0474554002F000000626C696E6B3D4F4E05
S31500004CB000000000626C696E6B3D4F4646000000C6
S31500004CC0626C696E6B3D424C494E4B001B5330255E
S31500004CD0642C00FF485454502F312E31203230308E
S31500004CE0200D0A436F6E74656E742D4C656E677485
S31500004CF0683A2025640D0A436F6E74656E742D54F0
S31500004D007970653A20746578742F68746D6C0D0A35
S31500004D100D0A00FFD02C0020204D0000104F00008F
S31500004D200A022A0003010000B5140000000000007A
S31500004D3000000000C82C0020F04D0000D44E0000FA
S31500004D40302D00204C4D0000B44E00000000000045
S31500004D50A0860100440000000102DF0506000000F5
S31500004D6000000000000000004516000000000000E2
S31500004D70744D0000010600EE0801FFFF102D002013
S31500004D80884D0000244F00000000000020000000B5
S31500004D90000000001000000000023300AD12000009
S31500004DA000000000A84D00004000000100000001C6
S31500004DB0E02C0020BC4D0000904E000003020000D5
S31500004DC002000209020A02030000000000000000BF
S31500004DD09912000000000000DC4D000000010000F8
S31500004DE0280500200F00FFFF00000000FFFF000065
S31500004DF00A000000FC4D0000000000000400000056
S31500004E000B010000040000000F0100000400000078
S31500004E100303000004000000040300000400000077
S31500004E200B030000040000000C0300000400000057
S31500004E300D0300000400000000040000050000004F
S31500004E400304000004000000040400001F00001A10
S31500004E5000100F00001D1C000000000000000000F4
S31500004E60000000000000000000000000000000003C
S31500004E70000000000000000000000000000000002C
S31500004E80000000000000000000000000000000001C
S31500004E90811A0000DD180000E51800003119000035
S31500004EA0711900007D19000025190000011A000083
S31500004EB0A51900002D1F0000C91E0000FD1E0000E0
S31500004EC0C51D0000E91D0000F11D0000FD1D0000CC
S31500004ED0151E000001250000F9210000192500001B
S31500004EE025250000C12200000D230000012200003C
S31500004EF05D22000085220000A9220000ED220000AC
S31500004F00252200003D220000020403040404FFFFE2
S31500004F10DD2500005D2600006D260000D525000079
S31500004F207D260000F1290000092700006127000006
S31500004F3089270000B9270000DD270000F5270000BB
S31500004F404D280000512800005D290000552800006A
S31500004F508D280000992800000100020008001000BA
S31500004F60A835000034350000A63400006034000087
S31500004F70A634000070350000A6340000603400003E
S31500004F803435000034350000703500006034000010
S31500004F906634000066340000663400007E3500008A
S31500004FA03435000034350000A63400005C340000BF
S31500004FB0A634000070350000A63400005C34000002
S31500004FC03435000034350000703500005C340000D4
S31500004FD06634000066340000663400007A3500004E
S31500004FE0EA36000088360000883600008636000063
S31500004FF08C3600008C360000BA370000863600007A
S315000050008C360000BA3700008C3600008636000069
S315000050106E3700006E3700006E370000F437000070
S31500005020232D302B2000686C4C006566674546478B
S31500005030003031323334353637383941424344450E
S31500005040460030313233343536373839616263647D
S31500005050656600FF00000000000000000000000080
S31500005060000000000000000000000000000000003A
S31500005070000000000000000000000000000000002A
S31500005080000000000000000000000000000000001A
S31500005090000000000000000000000000000000000A
S315000050A000000000000000000000000000000000FA
S30D000050B00000000000000000F2
S315000050B8784800008048000040000A00F40100001B
S315000050C8844800008048000020000500C800000051
S315000050D88C4800008048000020000500C800000039
S315000050E89C4800008048000020000500C800000019
S315000050F8AC4800008048000080000500C800000099
S31500005108D8480000E848000080000500E8030000D1
S31500005118F04800008048000040000500E803000051
S31500005128244900008048000040000500C80000002F
S31500005138344900008048000040000500C80000000F
S315000051485C4900008048000040000500C8000000D7
S315000051586C4900008048000020000500C8000000D7
S315000051683C68746D6C3E3C686561643E3C74697469
S315000051786C653E2048545450205365727665723CDF
S315000051882F7469746C653E3C2F686561643E3C62A9
S315000051986F6479206267636F6C6F723D22233030CB
S315000051A83830464622203E3C666F6E7420636F6C2C
S315000051B86F723D22476F6C64223E3C62723E0D0A56
S315000051C83C62723E0D0A3C62723E0D0A3C48312032
S315000051D8414C49474E3D2263656E746572223E3CDA
S315000051E86D65746120687474702D65717569763D96
S315000051F822726566726573682220636F6E74656EC7
S31500005208743D2233223E202052656E6573617320F9
S31500005218456C656374726F6E696373203C2F483101
S315000052283E0D0A3C483120414C49474E3D226365B4
S315000052386E746572223E202057692D4669204441C6
S315000052483136787878204170706C69636174696F5B
S315000052586E2044656D6F203C2F48313E0D0A3C7424
S3150000526861626C6520414C49474E3D2263656E7408
S315000052786572222077696474683D22313030223E97
S315000052880D0A3C74723E3C483120414C49474E3D1C
S315000052982263656E746572223E203C74643E205417
S315000052A8656D7065726174757265203C2F74643E15
S315000052B83C74643E3C696E70757420747970653D03
S315000052C8746578742076616C75653D222530326484
S315000052D82220726561646F6E6C793D227265616425
S315000052E86F6E6C7922207374796C653D22746578CB
S315000052F8742D616C69676E3A63656E746572223ED9
S315000053083C2F74643E0D0A3C74643E2043203C2FB7
S3150000531874643E3C2F48313E0D0A3C2F74723E3C65
S3150000532874723E3C483120414C49474E3D226365E4
S315000053386E746572223E203C74643E2048756D6921
S3150000534864697479203C2F74643E3C74643E3C69FD
S315000053586E70757420747970653D746578742076FE
S31500005368616C75653D222532642220726561646F21
S315000053786E6C793D22726561646F6E6C792220735A
S3150000538874796C653D22746578742D616C69676EF5
S315000053983A63656E746572223E3C2F74643E0D0A4C
S315000053A83C74643E2026233337203C2F74643E3CED
S315000053B82F48313E0D0A3C2F74723E3C74723E3CB7
S315000053C8483120414C49474E3D2263656E746572EB
S315000053D8223E203C74643E20427574746F6E2050E1
S315000053E8757368656420436F756E74203C2F74640A
S315000053F83E3C74643E3C696E7075742074797065C1
S315000054083D746578742076616C75653D2225326435
S315000054182220726561646F6E6C793D2272656164E3
S315000054286F6E6C7922207374796C653D2274657889
S31500005438742D616C69676E3A63656E746572223E97
S315000054483C2F74643E0D0A3C2F48313E0D0A3C2F12
S3150000545874723E3C2F7461626C653E0D0A3C627242
S315000054683E0D0A3C666F6E7420636F6C6F723D2248
S315000054784F72616E6765223E3C666F726D20414CC5
S3150000548849474E3D2263656E74657222206D6574C8
S31500005498686F643D22504F53542220616374696FCC
S315000054A86E3D22696E6465782E68746D6C223E0DB9
S315000054B80A3C483220414C49474E3D2263656E748A
S315000054C86572223E20204C45442020434F4E5452BC
S315000054D84F4C203C62723E3C696E7075742074793C
S315000054E870653D7375626D6974206E616D653D22E8
S315000054F8626C696E6B222076616C75653D224F4E33
S31500005508223E200920203C696E70757420747970DB
S31500005518653D7375626D6974206E616D653D2262C5
S315000055286C696E6B222076616C75653D224F464626
S31500005538223E203C696E70757420747970653D73DF
S3150000554875626D6974206E616D653D22626C696E67
S315000055586B222076616C75653D22424C494E4B2282
S315000055683E200D0A200D0A3C2F48323E0D0A3C2FDC
S31500005578666F726D3E0D0A0D0A3C483120414C4952
S31500005588474E3D2263656E746572223E2020506F39
S3150000559877657265642042792052656E657361731A
S315000055A82041524D204D435520536572696573203D
S315000055B83C2F48313E0D0A3C62723E3C62723E0DFB
S315000055C80A3C2F666F6E743E3C2F626F64793E3CD0
S315000055D82F68746D6C3E000044000AD83005002020
S315000055E80000000074500000945000005450000061
S315000055F8000000000000000000000000000000009D
S31500005608000000000000000000000000000000008C
S31500005618000000000000000000000000000000007C
S31500005628000000000000000000000000000000006C
S31500005638000000000000000000000000000000005C
S30D000056482D050000010500001C
S31501010018FFFFFFFFFFFFFFFFFFFFFFFFFFFFFFFFE0
S31101010028FFFFFFFFFFFFFFFFFFFFFFFFD0
S7050000320DBB
