S027000052656E657361735F576966695F444131363230305F5241364D345F44656D6F2E73726563D4
S3150000000040330020DD2B0000052A0000D92B00001C
S31500000010D92B0000D92B0000D92B0000D92B0000CA
S31500000020000000000000000000000000D92B0000C6
S31500000030D92B000000000000D92B0000D92B0000AE
S31500000040211900009D180000AD190000E9190000F3
S31500000050C9270000511D0000851E00002524000050
S31500000060000000000000000000000000000000008A
S31500000070000000000000000000000000000000007A
S31500000080000000000000000000000000000000006A
S31500000090000000000000000000000000000000005A
S315000000A0000000000000000000000000000000004A
S315000000B0000000000000000000000000000000003A
S315000000C0000000000000000000000000000000002A
S315000000D0000000000000000000000000000000001A
S315000000E0000000000000000000000000000000000A
S315000000F000000000000000000000000000000000FA
S3150000010000000000000000000000000000000000E9
S3150000011000000000000000000000000000000000D9
S3150000012000000000000000000000000000000000C9
S3150000013000000000000000000000000000000000B9
S3150000014000000000000000000000000000000000A9
S315000001500000000000000000000000000000000099
S315000001600000000000000000000000000000000089
S315000001700000000000000000000000000000000079
S315000001800000000000000000000000000000000069
S315000001900000000000000000000000000000000059
S315000001A00000000000000000000000000000000049
S315000001B00000000000000000000000000000000039
S315000001C010B5054C237833B9044B13B1044800E04D
S315000001D000BF0123237010BDB00500200000000001
S315000001E00840000008B5034B1BB10349034800E073
S315000001F000BF08BD00000000B40500200840000054
S315000002002DE9F843D0E90295A9EB05089045044687
S31500000210164609D94068284402F04EFDBFF35F8FA9
S315000002203544E560BDE8F8830F46406842462844F9
S315000002303544A5EB090502F03FFD2A46606807EB49
S31500000240080102F039FDBFF35F8FE560BDE8F88372
S315000002502DE9F843064617464FF000088946D0E9CF
S31500000260021433690D1B9C4203F1FF3224BF03F1D4
S31500000270FF325218BD4228BF3D46121B954228BF89
S315000002801546706849462A46204402F015FDB168B5
S315000002902C44A14208BF0024A8447F1BA944BFF3F5
S315000002A05F8FF460002FDCD14046BDE8F88300BFC5
S315000002B070B4032400224FF4806610251248134BB5
S315000002C000681C6112495C61C3F80700114C1248B2
S315000002D09961DC611E629A625A62DA621966586630
S315000002E09D661A67DA665A67BFF35F8F0B4A92E814
S315000002F0030018609980BFF35F8F20229A71BFF3C5
S315000003005F8F70BC704700BF243600004C2C002065
S3150000031018360000DC050020CC0500202836000039
S3150000032070B5204D00EB400305EBC303DC6A0130DA
S3150000033000EB4000012C05EBC0000E46154605D02B
S31500000340022C20D08CB10024204670BD9A6A5C6ACB
S31500000350A24221D9013A141BAC4228BF2C46314691
S315000003602246FFF74DFF204670BD9A6A596A8A42B7
S315000003700DD9013A521A9542E6D831462A46FFF778
S315000003803FFF2C46E0E7BDE87040FFF761BF1B6A00
S315000003901344013B5A1AEEE71B6A1344013B1C1B2C
S315000003A0DAE700BF4C2C002030B50C4B0C461B780E
S315000003B083B063B1EFF311854FF0200181F311880B
S315000003C02146FFF7ADFF85F3118803B030BDCDE9B7
S315000003D00002FFF76DFFDDE90002EBE74C2C002081
S315000003E0D0E9012310B50446581C904207D822686C
S315000003F0D1540346E16862680131C4E902019A42B8
S3150000040000D010BD21682069FFF7CEFFA36898428F
S3150000041015BF4FF0FF330023E360A36010BD00BF9C
S315000004202DE9F84F1546DDE90A92A9420F468346A3
S315000004301E4660D30B464FF00108B3FBF5F39D4211
S3150000044008F10108F9D9B04538BFB04612F0010AE3
S3150000045002D1B9F1000F35D1DBF80C30002B2FDBC0
S31500000460012402E0013E05FB04F4012EFAD8B7FB95
S31500000470F4F39D42F7D9214E06E0AC42B4FBF5F306
S315000004800CD31C46B7FBF3F3F156584604FB13771F
S31500000490FFF7A6FFDBF80C30002BEEDABAF1000FFF
S315000004A00ED0B9F1000F0BD0C84509F1FF3907D2BC
S315000004B020215846FFF794FFDBF80C30002BF0DACA
S315000004C0BDE8F88F930711D420240CE02146584646
S315000004D0FFF786FFDBF80C3009F1FF39002BEFDB65
S315000004E0B9F1000FBCD0C845F0D3B5E7002E0CBF5C
S315000004F030242024F7E74FF00108A4E73036000047
S315000005002DE9F04F0023804640209BB00DF1280ACC
S315000005100D461646CDE90603DFF8C892CDF82480CD
S315000005200893CDF814A005E005A8FFF759FF089831
S31500000530002867DB15F9011B002966D02529F3D1B0
S3150000054029464FF0000B0D4611F9010BA0F12303CC
S315000005500D2B08D8DFE803F048070707070707074A
S3150000056045074B070742A0F13003DBB2092B4FF0DA
S3150000057000040BD804EB840400EB440415F9010FC6
S31500000580303CA0F13003DBB2092BF3D92E2800F062
S31500000590D880002395F9001001E015F9011F21F01C
S315000005A004006828F9D0252924D05839C8B2202853
S315000005B023D8202921D8DFE801F0B32020202020ED
S315000005C02020202020A95D2020202020202020205F
S315000005D020204F20203F20332020B3004BF0020B79
S315000005E0B1E74BF0040BAEE74BF0080BABE74BF073
S315000005F0010BA8E705A8FFF7F3FE0898002805F108
S31500000600010597DA1BB0BDE8F08F08980028F9DDE0
S31500000610079A002A40F0AD8010441BB0BDE8F08F69
S3150000062030680A2201680430306005A8CDE9004B25
S31500000630FFF7F6FE0898E1E733681A1D32601C687A
S3150000064005E005A8FFF7CCFE08980028D6DB14F9CC
S31500000650011B0029F5D1D0E7002008233268116874
S3150000066004323260CDE90030102205A8FFF7D8FE2B
S315000006700898C3E73068012702680430002A03920D
S31500000680B8BF5242092A1146306008DD0846A9FB68
S315000006900121632807F101074FEAD101F6DC9F42E9
S315000006A038BF1F46002C47D0039A002A69DB1BF08F
S315000006B0040F66D11BF0020F01D0002B3CD01BF0BB
S315000006C0010F39D1002C37D0A74235D2202105A8F9
S315000006D00293FFF785FE0899013C002908468DDB49
S315000006E0029B002CF0D1039A002A4CDB1BF0040F6E
S315000006F057D10BF0030002285AD005A80A22CDE9EB
S31500000700004B0399FFF78CFE089877E7336805A836
S315000007101A1D93F900103260FFF762FE08986DE724
S315000007203068102201680430306005A8CDE9004B1E
S31500000730FFF776FE089861E7089900290846D2DA9D
S315000007405CE795F901100135A1F13003DBB2092B05
S315000007504FF000033FF623AF03EB830301EB4303A4
S3150000076015F9011F303BA1F13000C0B20928F3D9B9
S3150000077015E751464046FFF717FEDDE9072010440E
S315000007804BE7013C96E702932D21534205A80393BC
S31500000790FFF726FE029B089900290846FFF62EAFB2
S315000007A0A7E72B2105A80293FFF71AFE029BF2E7A3
S315000007B0002BA2D19CB1A7420CD2302105A80293EE
S315000007C0FFF70EFE0899013C00290846FFF616AF12
S315000007D0029BEFE700290846FFF610AF8DE70024DD
S315000007E08BE700BFCDCCCCCC0EB400B582B003AB4A
S315000007F053F8041B01AA0193FFF782FE02B05DF8CD
S3150000080004EB03B0704700BF08B502F0AAFA00383F
S3150000081018BF012008BD00BF00232DE9F04F9B46FD
S3150000082005469A461646164A164FD2F80890D2F84A
S3150000083000800A8885B0144C01923B800122D9F8C9
S31500000840043040460DF10F01984723780BF1010261
S3150000085053B19DF80F3084F800A005F8013B019BC9
S315000008601FFA82FB5B4506D93B88B342E6D31420C8
S3150000087005B0BDE8F08F002005B0BDE8F08F00BFE1
S315000008805C3B0000E0090020DE0900200023F0B5F3
S315000008901D468DB01F4ACDE90433CDE90633CDE9B7
S315000008A00833CDE90A33976816681B4CADF80E304D
S315000008B0216901350846019102F04BFA019982B28D
S315000008C0BB6830469847238B2022002104A8ADF848
S315000008D00E3002F0FEF94FF4FA720DF10E0104A883
S315000008E0FFF79AFF60B114280AD04FF47A71A08BF3
S315000008F002F05AF8A27EEBB29A42D9D8012006E05D
S31500000900616904A802F02DFA0028EED000200DB08F
S31500000910F0BD00BF5C3B000000000020F0B50024E5
S31500000920264B95B01E689F6859683A6830469047CE
S315000009307B6830469847224B25469F681E68596853
S315000009403A683046904721463C2205A8ADF80E404D
S31500000950049402F0BEF91B4C21680135084601914A
S3150000096002F0F7F9019982B2BB68304698472389AD
S315000009704022002104A8ADF80E3002F0AAF9642244
S315000009800DF10E0104A8FFF747FF60B114280AD045
S315000009904FF47A71A08902F007F8A27AEBB29A4274
S315000009A0DAD8012007E0616804A802F0DAF9002825
S315000009B0EED0FFF76BFF15B0F0BD00BF283B00007F
S315000009C05C3B00000000002000232DE9F0411D469D
S315000009D0A4B0B14ACDE90433CDE90633CDE90833F5
S315000009E0CDE90A3397681668AC4CADF80E30216A2B
S315000009F001350846019102F0ACF9019982B2BB6853
S31500000A0030469847238D2022002104A8ADF80E30E9
S31500000A1002F05FF94FF4FA720DF10E0104A8FFF728
S31500000A20FBFE80B114280ED04FF47A71A08D01F030
S31500000A30BBFF94F82A20EBB29A42D8D80125284663
S31500000A4024B0BDE8F081616A04A802F08AF90028A2
S31500000A50EAD00025CDE90455CDE90655CDE908557E
S31500000A60CDE90A55ADF80E50216B013508460191C6
S31500000A7002F06FF9019982B2BB6830469847238F1E
S31500000A802022002104A8ADF80E3002F022F94FF41E
S31500000A90FA720DF10E0104A8FFF7BEFE60B114282C
S31500000AA00AD04FF47A71A08F01F07EFF94F83A20B5
S31500000AB0EBB29A42D8D8C1E7616B04A802F051F9AB
S31500000AC00028EED000217C2205A80D46ADF80E10B8
S31500000AD0049102F0FEF8216C01350846019102F0FE
S31500000AE038F9019982B2BB6830469847B4F8483065
S31500000AF08022002104A8ADF80E3002F0EAF840F694
S31500000B00B8320DF10E0104A8FFF786FE68B114286D
S31500000B100BD04FF47A71B4F84C0001F045FF94F80D
S31500000B204A20EBB29A42D6D888E7616C04A802F054
S31500000B3018F90028EDD000217C2205A80D46ADF855
S31500000B400E10049102F0C5F8216D01350846019199
S31500000B5002F0FFF8019982B2BB6830469847B4F8B4
S31500000B6058308022002104A8ADF80E3002F0B1F80A
S31500000B704FF4FA520DF10E0104A8FFF74DFE0028BE
S31500000B8040D1616D04A802F0ECF800283CD0FFF7D4
S31500000B907DFE054600287FF452AF3C22294605A873
S31500000BA0ADF80E500495A84602F093F8216E08F1B0
S31500000BB001080846019102F0CCF8019982B2BB689F
S31500000BC030469847B4F868304022002104A8ADF8B2
S31500000BD00E3002F07EF840F6B8320DF10E0104A890
S31500000BE0FFF71AFEE0B114281AD04FF47A71B4F860
S31500000BF06C0001F0D9FE94F86A205FFA88F39A42F5
S31500000C00D4D81BE71428BCD04FF47A71B4F85C0032
S31500000C1001F0CAFE94F85A20EBB29A4294D80DE736
S31500000C20616E04A802F09DF80028DED000213C2267
S31500000C3005A88846ADF80E10049102F04AF8216F17
S31500000C4008F101080846019102F083F8019982B281
S31500000C50BB6830469847B4F878304022002104A893
S31500000C60ADF80E3002F035F84FF4FA720DF10E01C0
S31500000C7004A8FFF7D1FD98B1142811D04FF47A716A
S31500000C80B4F87C0001F090FE94F87A205FFA88F3BD
S31500000C909A42D4D8D2E600BF5C3B00000000002098
S31500000CA0616F04A802F05DF80028E7D000213C221D
S31500000CB005A88846ADF80E10049102F00AF8D4F89B
S31500000CC0801008F101080846019102F042F80199E6
S31500000CD082B2BB6830469847B4F88830402200217B
S31500000CE004A8ADF80E3001F0F4FF4FF4FA620DF1EE
S31500000CF00E0104A8FFF790FD70B114280CD04FF434
S31500000D007A71B4F88C0001F04FFE94F88A205FFAED
S31500000D1088F39A42D3D891E6D4F8841004A802F056
S31500000D2020F80028EBD000213C2205A88846ADF823
S31500000D300E10049101F0CDFFD4F8901008F10108CF
S31500000D400846019102F005F8019982B2BB68304667
S31500000D509847B4F898304022002104A8ADF80E3028
S31500000D6001F0B7FF4FF4FA720DF10E0104A8FFF778
S31500000D7053FD70B114280CD04FF47A71B4F89C006E
S31500000D8001F012FE94F89A205FFA88F39A42D3D8BB
S31500000D9054E6D4F8941004A801F0E3FF0028EBD041
S31500000DA000239846CDE90433CDE90633CDE908336F
S31500000DB0CDE90A33ADF80E30D4F8A01008F10108D9
S31500000DC00846019101F0C5FF019982B2BB68304621
S31500000DD09847B4F8A8302022002104A8ADF80E30B8
S31500000DE001F077FF4FF496720DF10E0104A8FFF79C
S31500000DF013FD70B114280CD04FF47A71B4F8AC001E
S31500000E0001F0D2FD94F8AA205FFA88F39A42D3D86B
S31500000E1014E6D4F8A41004A801F0A3FF00287FF478
S31500000E200EAEE9E7054B10B49C680A46A468014675
S31500000E30186823465DF8044B184700BF5C3B00006A
S31500000E400379012B04BF014A13707047DE090020A5
S31500000E501049114A0B88907A01330B80C0B19389EF
S31500000E6001339BB2B3F57A7F938111D300210B4BEB
S31500000E7091811A88013292B21A80094B12F001024E
S31500000E809968186818BF01220B6A40F20F4118478B
S31500000E90704700BFE0090020F42C0020DC09002088
S31500000EA0C03A00002DE9F84300F00AF9464B002647
S31500000EB09D681C682A685968204690476B682046DA
S31500000EC098470023414D6B602B602E81AE72AE8138
S31500000ED0FFF724FD20B130463D49FFF785FCFEE7CC
S31500000EE03C490446FFF780FCFFF76EFD002865D1FC
S31500000EF000203949FFF778FC384F394CDFF8F49079
S31500000F00DFF8F4804FF4FA720021204601F0E1FE8A
S31500000F10204600F053F901380528F3D801A353F809
S31500000F2020F000BFAD0F0000050F0000890F000084
S31500000F30650F00004D0F00003D0F0000204600F039
S31500000F40D9F949460020FFF74FFCDBE701230026CD
S31500000F502046AB72AE8100F0CDF941463046FFF730
S31500000F6043FCCFE70026BB68324640F20F411B6ABE
S31500000F703868AE72AE819847204600F0BBF930461D
S31500000F801849FFF731FCBDE70026BB68012240F295
S31500000F900F411B6A3868AE72AE819847204600F052
S31500000FA0A9F930461049FFF71FFCABE7204600F0D1
S31500000FB0A1F90E490020FFF717FCA3E720460C49CC
S31500000FC0FFF712FC94E700BFCC3A0000F42C002097
S31500000FD0403700006C370000A0370000C03A000020
S31500000FE0E40900203438000008380000E03700002B
S31500000FF0883700008C3800006038000000B54FF4D8
S315000010007A7183B00A2001F0CFFC094B0DF107027B
S3150000101099681868CB69052198479DF807301BB970
S31500001020044A13890133138103B05DF804FB00BF42
S31500001030C03A0000F42C002030B5002485B0144DD1
S3150000104003A8039401F0A2FC29462046FFF7CCFB37
S3150000105020461049FFF7C8FB20460F4A0F49FFF705
S31500001060C3FB9DF80D309DF80F20009320469DF898
S315000010700E300B49FFF7B8FB29462046FFF7B4FBB5
S3150000108008492046FFF7B0FBFFF70CFF05B030BD5F
S31500001090B8380000003900005C39000060390000F3
S315000010A0A4390000F0390000022800D07047024938
S315000010B0024801F0B5B800BF983B0000042D00209F
S315000010C0024BD3E90112186812681047EC3A000087
S315000010D02DE9F041002305461E4A1F4C9768166805
S315000010E0A8461A462146BD683046A8474FF47A718D
S315000010F0322001F059FC00230422304621467F6845
S31500001100B847A278E378DFED156A03EB02239B0864
S3150000111007EE903AF8EEE77ADFED115A87EEA67AF7
S315000011209FED106A67EE257A77EEC67AC8ED007AEB
S31500001130637822789FED0C6A03EB022307EE903A60
S31500001140F8EEE77A87EEA67A67EE067AC8ED017AB8
S31500001150BDE8F081EC3A0000D80B002000FC7F4689
S3150000116000002543000020420000C842704700BF2F
S3150000117010B510490446104801F0F3FDC8B1093016
S3150000118004F11E0101E08C4213D0024610F9013B26
S315000011902C2B04F8013BF6D192F9013002462C2B98
S315000011A005D004F8013B12F9013F2C2BF9D12C2371
S315000011B0237010BD343A0000DC1300204FF40062A7
S315000011C010B5002182B004462E48ADF8062001F085
S315000011D080FD0DF106014FF496722A48FFF71CFBBD
S315000011E029492848FFF710FB20B928492548FFF769
S315000011F00BFBC8B126492348FFF706FB20B125495A
S315000012002048FFF701FB48B322491E48FFF7FCFAC6
S3150000121068B921491B48FFF7F7FA88B12046FFF75E
S31500001220A7FF2378312B2AD0072002B010BD204615
S31500001230FFF79EFF2378312BF6D1032002B010BDB5
S3150000124016491048FFF7E0FA0028EDD02046FFF7D0
S315000012508FFF2378312BE7D10520E6E70E490948B1
S31500001260FFF7D2FA0028CFD10C490648FFF7CCFA8F
S315000012700028C9D12046FFF77BFF0120D5E70420CF
S31500001280D3E700BFDC130020403A0000503A0000CC
S315000012904C3A0000543A0000603A00006C3A0000F4
S315000012A0F8B517460646114C0D4620464FF4006227
S315000012B0002101F00EFD3A4620460D4901F012FDCF
S315000012C03146204601F02EFD204601F042FD29461A
S315000012D0204401F036FD204601F03BFD0146204644
S315000012E0BDE8F84089B2FFF79DBD00BFDC0B0020CA
S315000012F0783A0000F0B5224C224E83B005464FF4F2
S3150000130000620021204601F0E4FC3046FFF7E0FED3
S3150000131096ED017AD6ED007ABCEEC77AFCEEE77A56
S31500001320328917EE103A009217EE902A9BB21649B0
S3150000133092B2204601F0D6FC204601F00AFD134F7A
S31500001340024606461249384601F0CCFC384601F002
S3150000135000FD394682B22846FFF7A2FF4FF47A71A4
S31500001360322001F021FB28462146B2B2FFF798FF52
S315000013704FF47A71C82003B0BDE8F04001F014BB09
S31500001380DC230020F42C0020B0000020DC1B002011
S31500001390803A000008B5FFF74FFE002008BD00BFE9
S315000013A030B4D0E907310024012244608C7093F9EF
S315000013B0053026495D0903F01F03203502FA03F3C1
S315000013C041F82530BFF34F8FBFF36F8FC36993F991
S315000013D00B305D0903F01F03203502FA03F341F8D1
S315000013E02530BFF34F8FBFF36F8FC36993F9073073
S315000013F05D0903F01F03203502FA03F341F8253097
S31500001400BFF34F8FBFF36F8FC36993F909305D093F
S3150000141003F01F03203502FA03F341F82530BFF32A
S315000014204F8FBFF36F8FEFF3108182F310884FF069
S315000014300043C069064A05781068EB400343136011
S31500001440136881F31088204630BC704700E100E045
S3150000145004400840C0E905120020704770B4046AD1
S315000014608378A57803F0030305F07B05A5708578DE
S31500001470A67805F00305D21A46F080060B44022D25
S31500001480C0E90332A67004D00B780020E37070BC6C
S3150000149070470B88002043F47E43E38170BC70479D
S315000014A0C0E90A3241620020704700BF30B4002410
S315000014B0036A4D789A7802F00B029A70C4608A78B3
S315000014C020465A701C780A7865F301041C70C978A6
S315000014D002F05C029974D97930BC01F0A3010A4389
S315000014E0DA719A7842F070029A7070474FF0FF33C3
S315000014F00020C1E9003370478B0710D530B40024B3
S31500001500056AC907AA78234602F07B02AA7004611D
S3150000151002D5002213468261184630BC7047CA07BE
S315000015204FF0060302D50022134682611846704723
S31500001530F0B5846A05460F46944685B0BCB194E87A
S315000015400F006E4686E80F00EB6920461A7884F88D
S3150000155004C0EB6A2260C4E902736B6A9847AC6AFE
S315000015601CB196E80F0084E80F0005B0F0BD6E468A
S315000015703446E9E72DE9F043002401250B7882780B
S3150000158003F5800303F58C5304701B0265F3010217
S315000015904D6903628B69C161C0E90A434562827085
S315000015A04B78022B03D1D2B263F30102827001247D
S315000015B091F90B50B44B6A0905F01F07203204FA63
S315000015C007F78E7A43F82270BFF34F8FBFF36F8F02
S315000015D0AE4A05F1C00C52F82CE0AD4F360103EBD4
S315000015E00508F6B26FF3104E42F82CE088F8006357
S315000015F047F8250091F905500E794FEA551C05F07C
S315000016001F0E0CF1200C04FA0EFE43F82CE0BFF37B
S315000016104F8FBFF36F8F05F1C00C52F82CE03601E7
S3150000162003EB0508F6B26FF3104E42F82CE088F88B
S31500001630006347F8250091F907508E794FEA551C4B
S3150000164005F01F0E0CF1200C04FA0EFE43F82CE0F8
S31500001650BFF34F8FBFF36F8F05F1C00C52F82CE02C
S31500001660360103EB0508F6B26FF3104E42F82CE094
S3150000167088F8006347F8250091F909500E7A4FEA79
S31500001680551C05F01F0E0CF1200C04FA0EFE43F853
S315000016902CE0BFF34F8FBFF36F8F05F1C00C52F8EC
S315000016A02CE03601F6B22B446FF3104E42F82CE0D4
S315000016B083F8006347F82500EFF3108584F310885C
S315000016C04FF00044734B0E781A68F44022EA040285
S315000016D01A601B6885F31088002240F2F934036A09
S315000016E09A701A715A729A72DA725A830A7824FABE
S315000016F002F2D20740F1B680402506244FF4784224
S31500001700DD741C779A82CA784C788D78D200012CC9
S3150000171042EA051200F0B380022C14BFF226E2263C
S315000017200024CD69D2B21A709E712A7B520002F053
S3150000173002025A736A78A9781C7295F800C0D20121
S315000017404901ACF10204D2B201F02001012C42EAB7
S31500001750010240F28A806968D2B2DA718A784E78DC
S315000017605A701C780A7866F301041C70C97802F076
S315000017705C029974D97901F0A3010A43DA71002257
S315000017800127C0E90322C0E90522D0F81CE03F4C3E
S315000017909EF905600CF0030C06F1C008710954F8B7
S315000017A02890890001F1604106F01F0607FA06F647
S315000017B062F3104901F5614144F82890C1F880614F
S315000017C00E609EF90B604CF0700C06F1C0087109B2
S315000017D054F82890890001F1604106F01F0607FAC7
S315000017E006F662F3104901F5614144F82890C1F804
S315000017F080610E609EF9076006F1C008710954F811
S315000018002890890001F1604106F01F0607FA06F6E6
S3150000181062F3104901F5614144F82890C1F88061EE
S315000018200E609EF90960DFF870E006F1C00854F812
S315000018302890710962F3104944F8289089006C8950
S3150000184006F01F0601F16041B74001F56141C1F89C
S3150000185080710F6083F802C00481C0F804E010466E
S31500001860BDE8F08306221A774DE7FF21BCF1020F8F
S3150000187008BF42F01002D2B25970DA717FE7F22641
S3150000188042F040024CE700BF00E100E0006000408B
S31500001890AC2D0020044008405549435330B4EFF3C3
S315000018A00383103B5BB21C4A03F1C00152F82100CE
S315000018B01A4C6FF3104042F8210054F82300C36914
S315000018C01B691BB103691BB130BC7047036963B95F
S315000018D030BC0021026A937803F07F0343F00403CF
S315000018E093708022C160FFF723BE827802F0030165
S315000018F00229C16809D0046A0D78E57002F0030276
S315000019009B1A0A44C0E90323DDE70C88056A44F400
S315000019107E44EC81F2E700BF00600040AC2D002061
S3150000192010B582B0EFF30383103B1E4A5BB203F19E
S31500001930C00152F821001C4C6FF3104042F8210000
S3150000194054F82340A27802F00303022B236A0CBF4B
S31500001950198A5979A3690CBFC1F30801C9B201916B
S3150000196033B92046042202B0BDE81040FFF7E0BDBF
S3150000197002F0030201A9606901F09EF9D4E905218C
S31500001980A37803F003031A44C91AC4E9052109B16F
S3150000199002B010BD2046012202B0BDE81040FFF79C
S315000019A0C7BD00BF00600040AC2D002038B5EFF386
S315000019B003840B4B103C64B253F824000222056AE0
S315000019C00021AB78C03403F07B03AB70FFF7B0FDAA
S315000019D0044B53F824206FF3104243F8242038BDFB
S315000019E0AC2D00200060004038B5EFF30384154BA2
S315000019F0103C64B253F82400837803F00303022BEF
S31500001A00036A0CBF198A59791D790CBFC1F3080105
S31500001A10C9B205F03802ED0604D51D7FED0758BFA3
S31500001A2042F040021D79C03405F0C7051D71FFF76D
S31500001A307FFD054B53F824206FF3104243F8242012
S31500001A4038BD00BFAC2D002000600040034610B436
S31500001A500020F0241A69D9699070D47293F82A206C
S31500001A60186283F82C205DF8044B83F83000596225
S31500001A70704700BF4160027200207047C0E90E3215
S31500001A8041630020704700BFC368044A00209B1AC8
S31500001A90B3FA83F35B090B70704700BF43324953B7
S31500001AA030B40023F0240269C16993709370D47234
S31500001AB090F82A20036280F83030C36080F82C202A
S31500001AC04162EFF31084012282F310884FF0004246
S31500001AD00068064905780868EA4002430A600A6811
S31500001AE084F31088184630BC704700BF0440084095
S31500001AF0034600202DE9F0430A788C6802F580023F
S31500001B00C3E9001402F58C5212021A610A7B1A729A
S31500001B10D1E907425C63C3E90E02EFF310870125A2
S31500001B2085F310884FF00046424A91F800C01468C9
S31500001B3026FA0CF624EA06041460126887F3108865
S31500001B404FF0F00C4FF0FA0E23261C681A69676AEC
S31500001B50907082F80BC097F802C03C780CF0030C2A
S31500001B6082F800C0A40082F806E097F801C044F0AD
S31500001B702004E4B282F801C0D4717C79DFF8C0C0D9
S31500001B801472FC78DFF8BCE094743C792A4FE400C8
S31500001B902C43E4B25472967250734E7B91F90F2027
S31500001BA036010CEB0204F6B284F8006302F1C008B9
S31500001BB04EF82230540957F82890A40004F16044E6
S31500001BC002F01F0205FA02F204F5614460F31049BF
S31500001BD047F82890C4F88021226091F91010174C1C
S31500001BE08C448CF800634A0901F1C0064EF8213096
S31500001BF057F826C0920001F01F0102F1604205FA73
S31500001C0001F102F5614260F3104C47F826C0C2F8B4
S31500001C108011116083F82D00C3E9080083F82E00B7
S31500001C20986183F82F00D86183F83000DC60BDE846
S31500001C30F08300BF0440084000600040433249532F
S31500001C4000E100E0AC2D0020002380F82F3080F862
S31500001C50313080F8333010B490F82A20C46990F8F7
S31500001C602D10046280F82C30436280F82B2011B1CD
S31500001C70012380F83130B4210369997090F830104F
S31500001C8021B951225DF8044BDA727047002180F8C1
S31500001C9030100121012A0CBF90F8284090F8294005
S31500001CA0013ADC705DF8044B80F82B2080F82C108C
S31500001CB0704700BF10B5047AC0E90612012C80F8FF
S31500001CC02E300AD10022436880F82A405B0043F098
S31500001CD0010380F8283080F82920012380F82D3070
S31500001CE0FFF7B2FF002010BD10B5047AC0E9061256
S31500001CF0012C80F82E3008D10022436880F82A4053
S31500001D005B0080F8283080F82920002480F82D40D8
S31500001D10FFF79AFF204610BD30B5836B04460A468E
S31500001D2083B093B193E803006D4685E80300E16B49
S31500001D301A7118461960636B9847A36B1BB195E837
S31500001D40030083E8030003B030BD6D462B46EEE783
S31500001D5030B4EFF30383103B484A5BB2C03352F80A
S31500001D6023106FF3104142F82310EFF30383444A24
S31500001D70103B5BB252F823301A69117BC1F30004A1
S31500001D80C90722D493F82C1093F82A00884211D060
S31500001D9093F82D0008B1022948D093F828000131A4
S31500001DA0D07093F82B2083F82C10013A83F82B205F
S31500001DB030BC7047196A59BB93F82E10C9B352202C
S31500001DC00121D07283F83010F2E793F82D10B1B1EB
S31500001DD093F8311099B9507999695A6A885493F8E9
S31500001DE02E00D3E9081201390132C3E9081218B3EB
S31500001DF0522001221969C87283F83020D8E70024DE
S31500001E00012054211C6283F82F0030BCD172704728
S31500001E1093F82D00A0B193F83100D0B1012983F8D1
S31500001E20314026D9FF209472D070C1E75223D37275
S31500001E30BEE75423D372BBE754221B69DA72B7E7B5
S31500001E40586A9D69441C285C0139C3E90814D0709E
S31500001E50AEE7507999695A6A8854D3E9081201396C
S31500001E6001320129C3E908121A6902D0FF20D07095
S31500001E709EE72023FF209372D07099E70060004010
S31500001E80AC2D002038B5EFF303832F4A103B5BB22D
S31500001E9052F823000269D37A6FF3C303D37290F822
S31500001EA02F307BBB90F82A1003F0FF0490F82C30FB
S31500001EB099421AD1036A5BB990F82D1090F8304018
S31500001EC0002914BF02210321A4B3D372FFF724FF14
S31500001ED0EFF30383103B1D4A5BB2C03352F8231065
S31500001EE06FF3104142F8231038BD8BB190F82D5096
S31500001EF005F0FF012DB3022B10D190F8294044F0D4
S31500001F0001040BE0F0230121D372FFF705FFDFE7A1
S31500001F1001290CBF90F8284090F829400021D17281
S31500001F20D47090F82B200133013A80F82C3080F8D9
S31500001F302B20CDE7F023D372937803F0CF03937071
S31500001F40C4E70C46EAE700BFAC2D00200060004065
S31500001F500022034610461A60704700BF0B0A054868
S31500001F601B0153FA81F150F821300020C3F34003DE
S31500001F701370704700080840090A490101F18041C1
S31500001F8001F500214B68002013807047090A4901BA
S31500001F9023EA020001F18041134043EA004301F5C0
S31500001FA0002100208B6070470123C8B283404AB9E4
S31500001FB01A040B0A5B0103F1804303F5002300209A
S31500001FC09A6070479AB2F4E7090A490101F1804123
S31500001FD001F5002110B40C6802EA0300204380B228
S31500001FE062EA030303405DF8044B00200B60704770
S31500001FF0090A490101F1804101F500214B680020E1
S31500002000C3F30F431380704701200B0A5B0103F1F2
S31500002010804303F500235B68C9B200FA01F101EAC7
S31500002020134389B2591AB1FA81F149090020117096
S31500002030704700BF090A490123EA020001F1804105
S31500002040134043EA004301F500210020CB607047AE
S31500002050012A11D04FF480300B0A5B0103F1804353
S3150000206003F50023CAB2D96800FA02F20A43120C39
S3150000207012040020DA6070470B0A5B0103F180430B
S3150000208003F50023D868C9B28A40024392B2002001
S31500002090DA607047014B00201A707047000D084047
S315000020A0F8B500284CD000240B6840F202460433F1
S315000020B0254640F2034740F2044C03EBC0010FE013
S315000020C0BA422FD153F8042C02F0B852B2F1807FF5
S315000020D014BF44F0020445F0020508338B4210D0C9
S315000020E01A88B242ECD153F8042C083302F0B852E5
S315000020F0B2F1807F14BF44F0010445F001058B4224
S31500002100EED1E443E4B2012000F01CFD0E4A0120AA
S3150000211092F8BB341D432C4082F8BB44BDE8F8401E
S3150000212000F0E0BC6245D8D153F8042C02F0B85256
S31500002130B2F1807F0CBF45F0040544F00404CCE7FF
S315000021400546FF24DFE700BF00E001400146F8B581
S31500002150044631F8040BFFF7A3FFEFF310820123C7
S3150000216083F31088DFF8B4C0DCF800301BB94020D8
S315000021702849CB70C870DCF800300133CCF8003049
S3150000218082F3108827886FB36368013FBFB203F1FB
S315000021900801214C01EBC70708E0D2B21B0113442A
S315000021A08F4244F823000B461CD0083118689A88E1
S315000021B010F4803F4FEA1223EFD0130AD2B202EB9B
S315000021C0031554F825E01B01134420F480366FF301
S315000021D0104E8F4244F825E044F8256044F8230069
S315000021E00B46E2D1EFF31082012383F31088DCF86B
S315000021F0003023B1DCF80030013BCCF80030DCF8CD
S3150000220000301BB980200349CB70C87082F3108858
S31500002210F8BD00BF000D084000080840A82D0020AA
S3150000222008B50346034A08461A60FFF78FFF0020E9
S3150000223008BD00BF54524F5008B50846FFF786FF49
S31500002240002008BDF0B501260C4685B002AB30462D
S3150000225001A91546ADF80C400292ADF80060019355
S31500002260FFF71EFFEFF3108286F310881D490B68F7
S315000022701BB940261C48C370C6700B6801330B603F
S3150000228082F31088EA034FEA14231AD41B01E4B23E
S31500002290164A234442F82350EFF31082012383F3B6
S315000022A010880B6813B10B68013B0B600B681BB9F8
S315000022B080200D49CB70C87082F31088002005B0CD
S315000022C0F0BD0A4AE4B204EB031052F8207025F47C
S315000022D080366FF3104742F820701B0142F82060E9
S315000022E0D6E700BFA82D0020000D084000080840D2
S315000022F003460020F0B591F90240184EA20002F103
S3150000230080421C7102F5C042D1E902C5D2F80073C1
S31500002310C2F80003C3E902C50D78002C5D71705543
S3150000232091F804E0C87891F805C040EA0E1040EA3A
S31500002330CC10C0B27055C2F800730BDB4A7808485F
S3150000234004F160411201D2B201F5614181F8002326
S3150000235040F82430034A00201A60F0BD00600040B7
S31500002360AC2D002055434900012130B490F90420DA
S315000023700C4802F1C00450F8245053099B006FF337
S31500002380104503F1604302F01F0240F8245003F5A4
S31500002390614301FA02F2002030BCC3F880211A60C2
S315000023A0704700BF00600040012190F904300748E3
S315000023B05A0903F01F03203201FA03F340F82230D2
S315000023C0BFF34F8FBFF36F8F0020704700E100E02F
S315000023D0C0E902120020704790F90430002B19DB87
S315000023E0012210B40D4903F01F045B09A2402033FB
S315000023F041F82320BFF34F8FBFF36F8F002190F971
S315000024000420074B5DF8044B43F8221000230360B9
S3150000241018467047002303601846704700E100E045
S31500002420AC2D002010B582B0EFF30384164B103CA0
S3150000243064B253F82420154950790B5C03F003036A
S31500002440032B0FD0C03451F824306FF3104341F8FA
S315000024502430936823B1D268CDE9002068469847B6
S3150000246002B010BD936823B1D268CDE9002068465A
S315000024709847064BC03453F824206FF3104243F8B4
S31500002480242002B010BD00BFAC2D0020006000402B
S31500002490F0B40B7C416003F5800303F568631B020F
S315000024A08360EFF31085012383F310880A7C032AE7
S315000024B06CD8C2F10304A340DB433B4A14682340B3
S315000024C013600C7C394A384B032C88BF13461B68B3
S315000024D085F31088002382681372137AC3F34004CD
S315000024E09B07FAD4CD699472EB782E782F7903F096
S315000024F007030D7A002E42D1002D4ED100264C68DE
S315000025001773476896735372631E95729BB2C460C5
S315000025103D7C138091F91230254AB34242F825409A
S3150000252022DB01244A7C03F160451201214FD2B21D
S3150000253005F5614585F800231F4D47F823005A0924
S3150000254003F1C00755F827C0920002F1604203F07C
S315000025501F0302F5614204FA03F366F3104C45F8D3
S3150000256027C0C2F8803113600023D1E90541134A20
S31500002570C0E90443F0BC8161026018467047502EE2
S3150000258006BF254643F050033343B7E7C2F11304B1
S31500002590064AA340DB43146891E785F0020543EA47
S315000025A00513DBB23546A9E70C4008401040084049
S315000025B0DC2B0020AC2D0020006000405447410079
S315000025C08268117A01F00101137AC3F3400399423C
S315000025D0FAD1F12300201372704700BF8268117A86
S315000025E001F00101137AC3F340039942FAD1F023B3
S315000025F000201372704700BF8268117A01F0010152
S31500002600137AC3F340039942FAD1C3680020013B11
S315000026109BB21380704700BFF121D0E90223013B32
S315000026209BB2138000201172704700BFF0228368AE
S3150000263000201A72704700BF10B48268147A04F042
S315000026400104137AC3F340039C42FAD14368C16084
S315000026501C7C05484B1E9BB240F8241013800020BA
S315000026605DF8044B704700BFDC2B00200620704746
S3150000267030B48268147A04F00104137AC3F3400379
S315000026809C42FAD14468C068E36988601B78502B85
S315000026901FD0537AC3F302105B060AD54FF40043EA
S315000026A0927A02F00702D340002030BC4B600870DB
S315000026B070471C4A1C4B126A1B68C2F30264A34093
S315000026C0C2F30222D3400028EED080F00200C340BD
S315000026D0EAE712F8F73CA2F580725D06C3F3021032
S315000026E00ED4104A104B126A1B68C2F30265AB4047
S315000026F0C2F30222D34048B180F00200C34005E095
S315000027004FF40043927A02F00702D340227C074836
S31500002710013A50F82220002030BCB3FBF2F30870D7
S315000027204B60704700E00140402C0020DC2B00206D
S315000027308268107A00F00100137AC3F340039842CE
S31500002740FAD1137A0020C3F340030B7113889BB2AE
S315000027500B607047C0E9053201610020704700BF79
S3150000276010B48268117A01F00101137AC3F34003B1
S315000027709942FAD1F424002143681472117393F933
S31500002780123013F1210F14D08B420FDB012203F01C
S315000027901F040B495B09A240203341F82320BFF3F5
S315000027A04F8FBFF36F8F436893F91230054A42F893
S315000027B0230000235DF8044B03601846704700BFF2
S315000027C000E100E0AC2D0020F0B585B0EFF3038307
S315000027D0103B214A5BB203F1C00152F821001F4CA5
S315000027E06FF3104042F8210054F82350D5E9011246
S315000027F00878137A0128DBB20CD1F424E86803F0D8
S31500002800F003147213720E7C154C411E89B244F803
S31500002810260011802F69B7B16C69D4B194E807001E
S3150000282001AE86E807009B0644BF00232371AB690F
S3150000283020462360B8476B691BB196E8070083E81A
S315000028400700AA68137ADBB203F00F03137205B010
S31500002850F0BD01AE3446E6E700600040AC2D002036
S31500002860DC2B0020064B074993F826001A6A51F81C
S315000028702030C2F302620449D3400B60704700BFA8
S3150000288000E0014098050020402C0020354BF0B4B4
S3150000289001214AF203541A463348A0F8FE43A3F82E
S315000028A00411B2F804319BB2002BFAD101214FF486
S315000028B0004409262D4DA2F800112D48A9602A4A88
S315000028C029602C4D92F8261045602B4D2B4FC0E900
S315000028D002452B4D0760C0E90445146A50F82110E3
S315000028E0C4F30264E140274C216082F8133482F875
S315000028F0A26092F8801419B182F8813482F880348B
S31500002900194B002543F20212194683F832501A85F4
S3150000291091F83C301A07FBD50023134A81F82A3078
S3150000292092F83C309B06FBD50327052301254FF47F
S3150000293025460C4981F81C7182F82630124B136229
S3150000294092F82630116A50F82330C1F30261CB4069
S31500002950236082F8305082F85250A2F8FE63F0BC31
S31500002960704700BF00C0014000E001400070004019
S315000029709805002000127A0000366E0180A8120128
S3150000298000C2EB0B402C0020222201200346024A03
S3150000299000201A60704700BF00000103A0F101008B
S315000029A00028FBD1704700BFF0B44FF47A760023BD
S315000029B04FF0FF3201FB00F1A1FB06450F48AB4289
S315000029C007680F4808BFA242B0FBF7F006D3B4FB76
S315000029D0F0F0800880B1F0BCFFF7E0BF8000B1FBEB
S315000029E0F0F0A0FB06018B4208BF8242F2D2F0BC97
S315000029F04FF0FF30FFF7D2BFF0BC7047402C0020ED
S31500002A0000CA9A3B70B500240A4B0B4EB3F84051EE
S31500002A10ADB225FA04F3DB07E0B203D556F824304D
S31500002A2003B198470134102CF3D1024BA3F830516F
S31500002A3070BD00BF00600040F42B0020F0B50320FD
S31500002A4085B000F07FF86FF0FF054FF0FF311F4CA7
S31500002A500023224601271E4804F1C0068564CDE9FD
S31500002A600111039132F8020F590960B104A800EB75
S31500002A70810151F80C0C03F01F0507FA05F520EA51
S31500002A80050041F80C0CB24203F10103EAD1019AA8
S31500002A90104B114911480A60C3F88022029A02605D
S31500002AA0C3F88422039A03208A60C3F8882200F0C0
S31500002AB019F800230A4803F1C00234F8021F013353
S31500002AC0602B40F82210F6D105B0F0BDEE3D0000B7
S31500002AD00080004000E100E070800040748000400B
S31500002AE000600040EFF31081012383F31088124B3E
S31500002AF033F8102092B22AB133F81020013A92B27C
S31500002B0023F8102033F810309BB293B90B4A10B457
S31500002B10B2F8FE330A4C9BB234F8100043F4254356
S31500002B2023EA0003A2F8FE3381F310885DF8044B14
S31500002B30704781F310887047342C002000E0014074
S31500002B406C3F000030B4EFF31081012383F310884B
S31500002B500D4A32F810309BB263B90C4C0C4DB4F8E8
S31500002B60FE3335F810509BB22B4343F425439BB2FA
S31500002B70A4F8FE3332F8103001339BB222F810303D
S31500002B8081F3108830BC7047342C002000E00140EF
S31500002B906C3F00000D4908B50A6803464AB1033385
S31500002BA00B4823F003031344834206D810460B60F8
S31500002BB008BD084802460860F1E700F077F80C23E4
S31500002BC04FF0FF320360104608BD00BF3C2C0020CA
S31500002BD0402F0020402F002000BE704708B500F0AF
S31500002BE003F8FEF7D7FBFEE74FF47001234B244AA8
S31500002BF070B50020C3F888109A60FEF755FAFFF703
S31500002C0045FE0120FEF750FA1E4B83F30A881E4844
S31500002C101E4A0021121A00F05CF81D481D4A1E4982
S31500002C20121A00F049F81D4D1D4B5B1B002B07DDEA
S31500002C3000249E1055F8043B01349847A642F9DC5F
S31500002C40FFF710FE0320FFF77DFF00234FF6FF700E
S31500002C50144903F108020133092B21F81200F8D1B7
S31500002C600320FFF73FFF0220FEF71EFAFFF7E6FEFE
S31500002C70BDE87040002000F017B800BF00ED00E08E
S31500002C8000000000402F0020B00500203C2F00204F
S31500002C9000000020980500200C4000009005002050
S31500002CA094050020000D0840704700BF014B1868CE
S31500002CB0704700BF2C0500200A44431E914200D1F4
S31500002CC0704710B511F8014B914203F8014FF9D145
S31500002CD010BD02440346934200D1704703F8011B1E
S31500002CE0F9E7FFFF0EB400B59CB06FF000411DABD5
S31500002CF002900690079104910848094953F8042B5D
S31500002D00059102A90068019300F09EF8029B00223B
S31500002D101A701CB05DF804EB03B070472C05002058
S31500002D200802FFFF024610B5147813460132002C44
S31500002D30FAD1013B11F8012B03F8012F002AF9D132
S31500002D4010BD034611F8012B03F8012B002AF9D117
S31500002D507047034613F8012B002AFBD1181A0138D5
S31500002D607047F0B50C7864B103461A7818465E1CB5
S31500002D700AB9104605E0944208D10D4615F8012F10
S31500002D8002B9F0BD13F8017F9742F7D03346ECE75E
S31500002D902DE9F0478E6882460C4690469E421F46B5
S31500002DA038D88A8912F4906F32D0256801330969C0
S31500002DB0A5EB0109656905EB45054B4405EBD575A2
S31500002DC06D109D4238BF1D46530531D5294600F08A
S31500002DD049FB064650B90C234FF0FF30CAF80030C5
S31500002DE0A38943F04003A381BDE8F0874A462169E1
S31500002DF0FFF762FFA38923F4906343F08003A38166
S31500002E0026614E446561A5EB090526603E46A56030
S31500002E10BE4200D93E4632464146206800F0B8FA26
S31500002E20A368226800209B1B3244A3602260DBE774
S31500002E302A4600F071FB06460028E1D1216950467A
S31500002E4000F0C0FAC7E7FFFF2DE9F04F98468B89DF
S31500002E509DB007461B060D4614460ED50B6963B991
S31500002E60402100F0FFFA2860286120B90C233B605E
S31500002E704FF0FF30D1E040236B610023CDF80C808A
S31500002E804FF00109DFF8AC81099320238DF8293032
S31500002E9030238DF82A3023469A4613F8012B0AB1BF
S31500002EA0252AF9D1BAEB040B0BD05B4622462946FC
S31500002EB03846FFF76DFF013000F0AA80099A5A44A0
S31500002EC009929AF80030002B00F0A28000234FF000
S31500002ED0FF320AF1010A049307938DF853301A93CF
S31500002EE0CDE9052354460522524814F8011B00F08B
S31500002EF041FA049AD8B9D00644BF20238DF853303E
S31500002F00110744BF2B238DF853309AF800302A2B33
S31500002F1015D0079A544600204FF00A0C214611F8A6
S31500002F20013B303B092B4ED9B0B1079214E0A0EB20
S31500002F300803A24609FA03F313430493D2E7039B5B
S31500002F40191D1B68002B0391BBBF5B4242F00202B6
S31500002F5007930793B8BF049223782E2B0CD163787E
S31500002F602A2B35D1039B02341A1D1B68002B0392B2
S31500002F70B8BF4FF0FF330593DFF8C8A003222178CE
S31500002F80504600F0F7F940B14023A0EB0A000134A7
S31500002F9003FA00F0049B0343049314F8011B062272
S31500002FA025488DF8281000F0E5F9002838D0234B85
S31500002FB01BBB039B073323F0070308330393099BCB
S31500002FC03344099367E70CFB02320C460120A5E760
S31500002FD0002301344FF00A0C19460593204610F8D9
S31500002FE0012B303A092A03D9002BC5D00591C3E736
S31500002FF00CFB012104460123F0E703AB2A4604A992
S31500003000384600930E4B00E000BF421C0646D6D160
S31500003010AB895B063FF52CAF09981DB0BDE8F08F74
S3150000302003AB2A4604A938460093054B00F07CF80A
S31500003030EBE700BF743F00007E3F00000000000089
S31500003040912D00007A3F00002DE9F047164699467B
S315000030508A6807460B690C46DDF820809342B8BFA4
S315000030601346336091F843200AB101333360236875
S31500003070990642BF336802333360256815F00605AA
S3150000308006D104F1190AE36832689B1AAB4229DCBF
S3150000309094F84320131E226818BF012392062ED4EB
S315000030A004F1430249463846C047013021D023681F
S315000030B01A3454F80E5C03F0060332680026042B1B
S315000030C054F8123C08BFAD1A54F80A2C14BF002558
S315000030D025EAE5759342C4BF9B1AED18B5421AD18D
S315000030E0002008E00123524649463846C0470130D1
S315000030F003D14FF0FF30BDE8F0870135C3E7E11893
S315000031005A1C30200233224481F8430094F84510BB
S3150000311082F84310C4E70123224649463846C04791
S315000031200130E6D00136D9E72DE9FF470C46914636
S3150000313080469A46277E04F143020C99782F07D8D9
S31500003140622F0AD8002F00F0D880582F00F0A380F5
S3150000315004F1420684F842703AE0A7F16303152BA6
S31500003160F6D801A050F823F0C1310000D531000097
S315000031705131000051310000513100005131000041
S31500003180D5310000513100005131000051310000AD
S3150000319051310000E132000005320000C332000068
S315000031A0513100005131000003330000513100005D
S315000031B0053200005131000051310000CB320000D1
S315000031C00B6804F142061A1D1B680A6084F8423037
S315000031D00123A3E0256808682E0600F104030AD53A
S315000031E005680B60002D03DA2D236D4284F8433009
S315000031F05E480A2319E015F0400F05680B6018BFFA
S315000032002DB2EFE70B682568181D0860280601D562
S315000032101D6802E06906FBD51D886F2F53480CBF59
S3150000322008230A23002184F843106668002EA6604E
S31500003230A2BF216821F0040121600DB9002E4DD0F6
S315000032401646B5FBF3F103FB1157C75D06F8017D82
S315000032502F460D46BB42F4D9082B0BD12368DF0756
S3150000326008D5236961689942DEBF302306F8013C20
S3150000327006F1FF36921B22614B4603AA21464046C1
S31500003280CDF800A0FFF7E0FE01304CD14FF0FF3043
S3150000329004B0BDE8F087354884F8457023680E68A9
S315000032A01F0656F8045B0E6014D5D90744BF43F0D9
S315000032B0200323601DB9236823F020032360102315
S315000032C0B0E7236843F0200323607823284884F876
S315000032D04530E3E75E0648BFADB2E6E71646BBE714
S315000032E00B6826681D1D60690D6035061B6801D5D3
S315000032F0186002E07106FBD518800023164623618C
S31500003300BAE70B681A1D0A6000211E68626830461B
S3150000331000F030F808B1801B606063682361002309
S3150000332084F84330A8E72369324649464046D047E9
S315000033300130ABD023689B0713D4E068039B984207
S31500003340B8BF1846A4E70123324649464046D0474F
S3150000335001309BD00135E36803995B1AAB42F2DC7E
S31500003360EBE7002504F11906F5E700BF853F0000ED
S31500003370963F0000C9B2024410B59042034601D1FF
S31500003380002303E01C7801308C42F6D1184610BDAC
S31500003390884210B501EB020402D98442234607D8BD
S315000033A0431EA14208D011F8012B03F8012FF8E7BC
S315000033B0024401468A4200D110BD13F8014D02F8BD
S315000033C0014DF7E737B5002947D051F8043C0C1FEB
S315000033D00190002BB8BFE41800F0D4F8204A0198F9
S315000033E01368154633B96360146003B0BDE8304016
S315000033F000F0CEB8A3420BD921686218934202BFEF
S315000034001A685B685218636008BF22602C60ECE79C
S315000034101A465B680BB1A342FAD911685518A54242
S315000034200BD12468214454181160A342DDD11C68D5
S315000034305B68214453601160D7E702D90C2303600F
S31500003440D3E7256861198B4202BF19685B68491981
S31500003450636008BF21605460C7E703B030BD00BF9A
S31500003460442C0020F8B5CD1C064625F0030508358A
S315000034700C2D38BF0C25002D01DBA94203D90C23E6
S3150000348033600020F8BD00F07DF821490A68144633
S315000034909CB9204F3B6823B92146304600F062F8BC
S315000034A038602946304600F05DF8431C23D10C23D2
S315000034B03046336000F06CF8E3E723685B1B17D4F3
S315000034C00B2B03D923601C44256004E06368A242E9
S315000034D00CBF0B605360304600F05AF804F10B0045
S315000034E0231D20F00700C21ACCD01B1AA350C9E72F
S315000034F022466468CCE7C41C24F00304A042E3D04F
S31500003500211A304600F02EF80130DDD1CFE700BF9A
S31500003510442C0020482C0020F8B5074614460E46D9
S3150000352021B91146BDE8F840FFF79CBF22B92546F0
S31500003530FFF748FF2846F8BD00F030F8A0420FD24A
S3150000354021463846FFF78EFF05460028F2D0314661
S315000035502246FFF7B1FB31463846FFF733FFE9E76E
S315000035603546E7E738B50023054D044608462B6087
S31500003570FFF710FB431C02D12B6803B1236038BD53
S315000035802C2F0020014800F011B800BF342F002076
S31500003590014800F00CB800BF342F002051F8043C5D
S315000035A0181F002BBCBF0B58C018704770477047D8
S315000035B04275696C7420776974682052656E65730C
S315000035C0617320416476616E63656420466C65783C
S315000035D069626C6520536F6674776172652050610D
S315000035E0636B6167652076657273696F6E20332E33
S315000035F0312E3000332E312E300000000000010342
S31500003600F8B500BFF8BC08BC9E467047F8B500BFC9
S31500003610F8BC08BC9E4670475465726D696E616C55
S31500003620000000005254540053454747455200FFDE
S3150000363030313233343536373839414243444546E2
S3150000364041545A0D0A0000004F4B00004154450DED
S315000036500A00000041542B57464D4F44453D310D5D
S315000036600A00000041542B574643433D43480D0A88
S315000036700000000041542B57465341503D52656EA1
S31500003680657361735F576966692C332C312C31324F
S315000036903334353637382C312C43480D0A000000B8
S315000036A041542B524553544152540D0A0000000018
S315000036B0444F4E450000000041542B4E5749503DA3
S315000036C0312C3139322E3136382E31302E322C32E1
S315000036D035352E3235352E3235352E302C313932C0
S315000036E02E3136382E31302E310D0A0041542B4EF4
S315000036F0574448533D310D0A0000000041542B4EFB
S31500003700574448523D3139322E3136382E31302E1B
S31500003710332C3139322E3136382E31302E31300DB0
S315000037200A00000041542B545254533D38300D0AC0
S315000037300000000041542B5452534156450D0A00D7
S315000037405769666920496E697469616C697A652092
S315000037504572726F722C20706C656173652072659C
S315000037607374617274200D0A00000000576966695F
S3150000377020496E697469616C697A65205375636363
S3150000378065737321200D0A00576966692073657495
S3150000379074696E67204572726F7221200D0A0000EF
S315000037A0576966692073657474696E67204F4B2C80
S315000037B020706C6561736520636F6E6E656374203F
S315000037C057692D4669206F72206F70656E20687488
S315000037D0747020636C69656E74200D0A0000000029
S315000037E04854545020474554207265636569766590
S315000037F0642C20757064617465205375636365730A
S315000038007321200D0A00000048545450204C4544B2
S31500003810204F4E2072656365697665642C2075704D
S3150000382064617465205375636365737321200D0AA3
S315000038300000000048545450204C4544204F464652
S315000038402072656365697665642C207570646174A1
S3150000385065205375636365737321200D0A000000AC
S3150000386048545450204C454420424C494E4B2072FB
S31500003870656365697665642C20757064617465207E
S315000038805375636365737321200D0A0048545450C1
S31500003890204F5448455253207265636569766564C6
S315000038A02C2075706461746520537563636573734A
S315000038B021200D0A00FFFFFF0D0A2A2A2A2A2A2A9A
S315000038C02A2A2A2A2A2A2A2A2A2A2A2A2A2A2A2A52
S315000038D02A2A2A2A2A2A2A2A2A2A2A2A2A2A2A2A42
S315000038E02A2A2A2A2A2A2A2A2A2A2A2A2A2A2A2A32
S315000038F02A2A2A2A2A2A2A2A2A2A2A2A00000000CA
S315000039000D0A2A20202052656E6573617320465386
S3150000391050204578616D706C652050726F6A6563E2
S315000039207420666F722052656E65736173205769E5
S31500003930666920444131363230302044656D6F204F
S315000039404D6F64756C6520202020202020202020CB
S31500003950202020202020202A00000000312E3000C8
S315000039600D0A2A2020204578616D706C6520507202
S315000039706F6A6563742056657273696F6E2025736E
S315000039802020202020202020202020202020202031
S315000039902020202020202020202020202020202021
S315000039A0202000002A0D0A2A202020466C65782057
S315000039B0536F667477617265205061636B2056653C
S315000039C07273696F6E202025642E25642E2564206F
S315000039D020202020202020202020202020202020E1
S315000039E020202020202020202020202A0000000047
S315000039F00D0A526566657220746F20717569636B76
S31500003A0020737461727420677569646520666F72CD
S31500003A10206D6F72652064657461696C73206F6ECA
S31500003A20204578616D706C652050726F6A656374AD
S31500003A300D0A00FF2B54524454533A302C00FFFF1A
S31500003A402F696E6465782E68746D6C004745540066
S31500003A502F000000626C696E6B3D4F4E0000000047
S31500003A60626C696E6B3D4F4646000000626C696E83
S31500003A706B3D424C494E4B001B533025642C00FFD6
S31500003A80485454502F312E3120323030200D0A4305
S31500003A906F6E74656E742D4C656E6774683A20257A
S31500003AA0640D0A436F6E74656E742D547970653AB1
S31500003AB020746578742F68746D6C0D0A0D0A00FF0A
S31500003AC0042D0020983B0000F03E0000582D0020F9
S31500003AD0D83A0000283F00000A0C07000301000046
S31500003AE0FD0F00000000000000000000682D00200F
S31500003AF0F83A0000D03E000009000000A086010050
S31500003B0044000000010CDF05060000000000000074
S31500003B10000000006D11000000000000203B0000C6
S31500003B20010700830F01FFFF3C2D0020343B0000FE
S31500003B303C3F0000000000002000000000000000E4
S31500003B4010000000000A0400510E000000000000F2
S31500003B50543B000040000001000000FF0C2D002037
S31500003B60683B0000B03E0000000000000C000C01A5
S31500003B700C020C030000000000000000410E0000D3
S31500003B8000000000883B000000010000280500201E
S31500003B900F00FFFF000000004A000000A03B0000ED
S31500003BA0008000000000000000800000010000000E
S31500003BB0004000000200000000800000030000003A
S31500003BC004000000040000000040000005000000A2
S31500003BD00040000006000000008000000700000012
S31500003BE0104000000800000004000000090000006A
S31500003BF0008000000E000000008000000F000000A2
S31500003C00000C011C00010000000C011C0101000059
S31500003C10000C011C02010000000C011C0301000045
S31500003C20000C011C04010000000C011C0501000031
S31500003C30000C011C06010000000C011C070100001D
S31500003C400000010008010000000001000901000059
S31500003C50000001000A010000040000000B01000042
S31500003C60040000000F0100004000010502020000F0
S31500003C7040000105030200000000010000030000EF
S31500003C800400000003030000040000000403000019
S31500003C90000C011105030000000C011106030000D1
S31500003CA0000C011107030000000C011108030000BD
S31500003CB0000C011109030000000C01110A030000A9
S31500003CC0040000000B030000040000000C030000C9
S31500003CD0040000000D0300000400000000040000C2
S31500003CE0000C011701040000000C0117020400007B
S31500003CF0050C00000304000004000000040400009A
S31500003D00000C011705040000000C01170604000052
S31500003D10000001130704000000000103080400006E
S31500003D201040000009040000000001040A0400001D
S31500003D30000001040B040000104000000E04000007
S31500003D40040000000F04000000000113000500003D
S31500003D500000011301050000000401070B05000027
S31500003D60000401070C050000000C011C0006000001
S31500003D70000C011C01060000000C011C02060000DC
S31500003D80000C011C0A060000040000000B060000DF
S31500003D90040000000C060000000C011700070000DC
S31500003DA0000C011701070000000C011702070000B4
S31500003DB0000C011703070000000C011704070000A0
S31500003DC0000C0117050700000400000008070000AA
S31500003DD00400000009070000040000000A070000B4
S31500003DE0040000000C070000040000000D0700009E
S31500003DF080018101820183014000B701B8010B00F7
S31500003E0000000000000000000000000000000000AC
S31500003E10000000000000000000000000000000009C
S31500003E20000000000000000000000000000000008C
S31500003E30000000000000000000000000000000007C
S31500003E40000000000000000000000000000000006C
S31500003E50000000000000000000000000000000005C
S31500003E60000000000000000000000000000000004C
S31500003E70000000000000000000000000000000003C
S31500003E80000000000000000000000000000000002C
S31500003E90000000000000000000000000000000001C
S31500003EA0000000000000000000000000000000000C
S31500003EB075150000551400005D140000AD140000D7
S31500003EC0ED140000F9140000A1140000A113000075
S31500003ED0F11A0000B51C0000E91C00004D1A000094
S31500003EE0751A00007D1A0000891A0000A11A000048
S31500003EF021220000511F0000392200004522000047
S31500003F000920000051200000952000005D1F0000E0
S31500003F10A91F0000C91F0000F11F00003520000086
S31500003F20791F00008D1F0000F122000069230000A8
S31500003F30A9230000D1230000D9230000912400000A
S31500003F40C1250000DD250000F92500001926000026
S31500003F502D260000392600006D260000712600007F
S31500003F6031270000552700006127000001000200EC
S31500003F7008001000232D302B2000686C4C0065666D
S31500003F8067454647003031323334353637383941A4
S31500003F9042434445460030313233343536373839BA
S31500003FA061626364656600FF0000000000000000B7
S31500003FB000000000000000000000000000000000FB
S31500003FC000000000000000000000000000000000EB
S31500003FD000000000000000000000000000000000DB
S31500003FE000000000000000000000000000000000CB
S31500003FF000000000000000000000000000000000BB
S31100004000000000000000000000000000AE
S3150000400C403600004836000040000A00F40100006B
S3150000401C4C3600004836000020000500C8000000A1
S3150000402C543600004836000020000500C800000089
S3150000403C643600004836000020000500C800000069
S3150000404C743600004836000080000500C8000000E9
S3150000405CA0360000B036000080000500E803000022
S3150000406CB83600004836000040000500E8030000A2
S3150000407CEC3600004836000040000500C800000081
S3150000408CFC3600004836000040000500C800000061
S3150000409C243700004836000040000500C800000028
S315000040AC343700004836000020000500C800000028
S315000040BC3C68746D6C3E3C686561643E3C74697426
S315000040CC6C653E2048545450205365727665723C9C
S315000040DC2F7469746C653E3C2F686561643E3C6266
S315000040EC6F6479206267636F6C6F723D2223303088
S315000040FC3830464622203E3C666F6E7420636F6CE9
S3150000410C6F723D22476F6C64223E3C62723E0D0A12
S3150000411C3C62723E0D0A3C62723E0D0A3C483120EE
S3150000412C414C49474E3D2263656E746572223E3C96
S3150000413C6D65746120687474702D65717569763D52
S3150000414C22726566726573682220636F6E74656E83
S3150000415C743D2233223E202052656E6573617320B6
S3150000416C456C656374726F6E696373203C2F4831BE
S3150000417C3E0D0A3C483120414C49474E3D22636571
S3150000418C6E746572223E202057692D466920444183
S3150000419C3136787878204170706C69636174696F18
S315000041AC6E2044656D6F203C2F48313E0D0A3C74E1
S315000041BC61626C6520414C49474E3D2263656E74C5
S315000041CC6572222077696474683D22313030223E54
S315000041DC0D0A3C74723E3C483120414C49474E3DD9
S315000041EC2263656E746572223E203C74643E2054D4
S315000041FC656D7065726174757265203C2F74643ED2
S3150000420C3C74643E3C696E70757420747970653DBF
S3150000421C746578742076616C75653D222530326440
S3150000422C2220726561646F6E6C793D2272656164E1
S3150000423C6F6E6C7922207374796C653D2274657887
S3150000424C742D616C69676E3A63656E746572223E95
S3150000425C3C2F74643E0D0A3C74643E2043203C2F74
S3150000426C74643E3C2F48313E0D0A3C2F74723E3C22
S3150000427C74723E3C483120414C49474E3D226365A1
S3150000428C6E746572223E203C74643E2048756D69DE
S3150000429C64697479203C2F74643E3C74643E3C69BA
S315000042AC6E70757420747970653D746578742076BB
S315000042BC616C75653D222532642220726561646FDE
S315000042CC6E6C793D22726561646F6E6C7922207317
S315000042DC74796C653D22746578742D616C69676EB2
S315000042EC3A63656E746572223E3C2F74643E0D0A09
S315000042FC3C74643E2026233337203C2F74643E3CAA
S3150000430C2F48313E0D0A3C2F74723E3C74723E3C73
S3150000431C483120414C49474E3D2263656E746572A7
S3150000432C223E203C74643E20427574746F6E20509D
S3150000433C757368656420436F756E74203C2F7464C6
S3150000434C3E3C74643E3C696E70757420747970657D
S3150000435C3D746578742076616C75653D22253264F2
S3150000436C2220726561646F6E6C793D2272656164A0
S3150000437C6F6E6C7922207374796C653D2274657846
S3150000438C742D616C69676E3A63656E746572223E54
S3150000439C3C2F74643E0D0A3C2F48313E0D0A3C2FCF
S315000043AC74723E3C2F7461626C653E0D0A3C6272FF
S315000043BC3E0D0A3C666F6E7420636F6C6F723D2205
S315000043CC4F72616E6765223E3C666F726D20414C82
S315000043DC49474E3D2263656E74657222206D657485
S315000043EC686F643D22504F53542220616374696F89
S315000043FC6E3D22696E6465782E68746D6C223E0D76
S3150000440C0A3C483220414C49474E3D2263656E7446
S3150000441C6572223E20204C45442020434F4E545278
S3150000442C4F4C203C62723E3C696E707574207479F8
S3150000443C70653D7375626D6974206E616D653D22A4
S3150000444C626C696E6B222076616C75653D224F4EEF
S3150000445C223E200920203C696E7075742074797098
S3150000446C653D7375626D6974206E616D653D226282
S3150000447C6C696E6B222076616C75653D224F4646E3
S3150000448C223E203C696E70757420747970653D739C
S3150000449C75626D6974206E616D653D22626C696E24
S315000044AC6B222076616C75653D22424C494E4B223F
S315000044BC3E200D0A200D0A3C2F48323E0D0A3C2F99
S315000044CC666F726D3E0D0A0D0A3C483120414C490F
S315000044DC474E3D2263656E746572223E2020506FF6
S315000044EC77657265642042792052656E65736173D7
S315000044FC2041524D204D43552053657269657320FA
S3150000450C3C2F48313E0D0A3C62723E3C62723E0DB7
S3150000451C0A3C2F666F6E743E3C2F626F64793E3C8C
S3150000452C2F68746D6C3E0000440016D930050020CF
S3150000453C00000000C83F0000E83F0000A83F000054
S3150000454C0000000000000000000000000000000059
S3150000455C0000000000000000000000000000000049
S3150000456C0000000000000000000000000000000039
S3150000457C0000000000000000000000000000000029
S3150000458C0000000000000000000000000000000019
S30D0000459CE5010000C101000069
S3150100A100FFFFFFFFFFFFFFFFFFFFFFFFFFFFFFFF58
S3150100A110FFFFFFFFFFFFFFFFFFFFFFFFFFFFFFFF48
S3150100A120FFFFFFFFFFFFFFFFFFFFFFFFFFFFFFFF38
S30D0100A130FFFFFFFFFFFFFFFF28
S3150100A200FFFBFFFFFFFFFFFFFFFFFFFFFFFFFFFF5B
S3150100A210FFFFFFFFFFFFFFFFFFFFFFFFFFFFFFFF47
S3150100A220FFFFFFFFFFFFFFFFFFFFFFFFFFFFFFFF37
S3150100A230FFFFFFFFFFFFFFFFFFFFFFFFFFFFFFFF27
S3150100A240FFFFFFFFFFFFFFFFFFFFFFFFFFFFFFFF17
S3150100A250FFFFFFFFFFFFFFFFFFFFFFFFFFFFFFFF07
S3150100A260FFFFFFFFFFFFFFFFFFFFFFFFFFFFFFFFF7
S3150100A270FFFFFFFFFFFFFFFFFFFFFFFFFFFFFFFFE7
S3150100A280F8F8FFFFFFFFFFFFFFFFFFFFFFFFFFFFE5
S3150100A290FFFFFFFFFFFFFFFFFFFFFFFFFFFFFFFFC7
S3150100A2A0FFFFFFFFFFFFFFFFFFFFFFFFFFFFFFFFB7
S3150100A2B0FFFFFFFFFFFFFFFFFFFFFFFFFFFFFFFFA7
S3110100A2C0FFFFFFFFFFFFFFFFFFFFFFFF97
S70500002BDDF2
